{"src/contracts/DappWorks.sol":{"DappWorks":{"abi":[{"anonymous":false,"inputs":[{"indexed":true,"internalType":"address","name":"previousOwner","type":"address"},{"indexed":true,"internalType":"address","name":"newOwner","type":"address"}],"name":"OwnershipTransferred","type":"event"},{"inputs":[{"internalType":"uint256","name":"id","type":"uint256"},{"internalType":"uint256","name":"jId","type":"uint256"},{"internalType":"address","name":"bidder","type":"address"}],"name":"acceptBid","outputs":[],"stateMutability":"nonpayable","type":"function"},{"inputs":[{"internalType":"string","name":"jobTitle","type":"string"},{"internalType":"string","name":"description","type":"string"},{"internalType":"string","name":"tags","type":"string"},{"internalType":"string","name":"answer","type":"string"}],"name":"addJobListing","outputs":[],"stateMutability":"payable","type":"function"},{"inputs":[{"internalType":"uint256","name":"id","type":"uint256"},{"internalType":"string","name":"answer","type":"string"}],"name":"bidForJob","outputs":[{"internalType":"bool","name":"pass","type":"bool"}],"stateMutability":"nonpayable","type":"function"},{"inputs":[{"internalType":"uint256","name":"id","type":"uint256"},{"internalType":"address","name":"user","type":"address"}],"name":"bidPassStatus","outputs":[{"internalType":"bool","name":"hasUserPassed","type":"bool"},{"internalType":"bool","name":"hasAnyonePassed","type":"bool"}],"stateMutability":"view","type":"function"},{"inputs":[{"internalType":"uint256","name":"id","type":"uint256"}],"name":"bidStatus","outputs":[{"internalType":"bool","name":"","type":"bool"}],"stateMutability":"view","type":"function"},{"inputs":[{"internalType":"uint256","name":"jobId","type":"uint256"}],"name":"countTotalBids","outputs":[{"internalType":"uint256","name":"","type":"uint256"}],"stateMutability":"view","type":"function"},{"inputs":[{"internalType":"uint256","name":"id","type":"uint256"}],"name":"deleteJob","outputs":[],"stateMutability":"nonpayable","type":"function"},{"inputs":[{"internalType":"uint256","name":"id","type":"uint256"}],"name":"dispute","outputs":[],"stateMutability":"nonpayable","type":"function"},{"inputs":[{"internalType":"uint256","name":"id","type":"uint256"}],"name":"getAcceptedFreelancer","outputs":[{"components":[{"internalType":"uint256","name":"id","type":"uint256"},{"internalType":"address","name":"account","type":"address"}],"internalType":"struct DappWorks.FreelancerStruct","name":"","type":"tuple"}],"stateMutability":"view","type":"function"},{"inputs":[],"name":"getAssignedJobs","outputs":[{"components":[{"internalType":"uint256","name":"id","type":"uint256"},{"internalType":"address","name":"owner","type":"address"},{"internalType":"address","name":"freelancer","type":"address"},{"internalType":"string","name":"jobTitle","type":"string"},{"internalType":"string","name":"description","type":"string"},{"internalType":"string","name":"tags","type":"string"},{"internalType":"uint256","name":"prize","type":"uint256"},{"internalType":"bool","name":"paidOut","type":"bool"},{"internalType":"uint256","name":"timestamp","type":"uint256"},{"internalType":"bool","name":"listed","type":"bool"},{"internalType":"uint256","name":"disputed","type":"uint256"},{"internalType":"address[]","name":"bidders","type":"address[]"},{"internalType":"string","name":"answer","type":"string"},{"internalType":"uint256","name":"timestamp_end","type":"uint256"},{"internalType":"uint256","name":"timestamp_verified","type":"uint256"}],"internalType":"struct DappWorks.JobStruct[]","name":"AssignedJobs","type":"tuple[]"}],"stateMutability":"view","type":"function"},{"inputs":[{"internalType":"uint256","name":"id","type":"uint256"}],"name":"getBidders","outputs":[{"components":[{"internalType":"uint256","name":"id","type":"uint256"},{"internalType":"uint256","name":"jId","type":"uint256"},{"internalType":"address","name":"account","type":"address"},{"internalType":"bool","name":"pass","type":"bool"}],"internalType":"struct DappWorks.BidStruct[]","name":"Bidders","type":"tuple[]"}],"stateMutability":"view","type":"function"},{"inputs":[],"name":"getBidsForBidder","outputs":[{"components":[{"internalType":"uint256","name":"id","type":"uint256"},{"internalType":"uint256","name":"jId","type":"uint256"},{"internalType":"address","name":"account","type":"address"},{"internalType":"bool","name":"pass","type":"bool"}],"internalType":"struct DappWorks.BidStruct[]","name":"Bids","type":"tuple[]"}],"stateMutability":"view","type":"function"},{"inputs":[{"internalType":"uint256","name":"id","type":"uint256"}],"name":"getFreelancers","outputs":[{"components":[{"internalType":"uint256","name":"id","type":"uint256"},{"internalType":"address","name":"account","type":"address"}],"internalType":"struct DappWorks.FreelancerStruct[]","name":"","type":"tuple[]"}],"stateMutability":"view","type":"function"},{"inputs":[{"internalType":"uint256","name":"id","type":"uint256"}],"name":"getJob","outputs":[{"components":[{"internalType":"uint256","name":"id","type":"uint256"},{"internalType":"address","name":"owner","type":"address"},{"internalType":"address","name":"freelancer","type":"address"},{"internalType":"string","name":"jobTitle","type":"string"},{"internalType":"string","name":"description","type":"string"},{"internalType":"string","name":"tags","type":"string"},{"internalType":"uint256","name":"prize","type":"uint256"},{"internalType":"bool","name":"paidOut","type":"bool"},{"internalType":"uint256","name":"timestamp","type":"uint256"},{"internalType":"bool","name":"listed","type":"bool"},{"internalType":"uint256","name":"disputed","type":"uint256"},{"internalType":"address[]","name":"bidders","type":"address[]"},{"internalType":"string","name":"answer","type":"string"},{"internalType":"uint256","name":"timestamp_end","type":"uint256"},{"internalType":"uint256","name":"timestamp_verified","type":"uint256"}],"internalType":"struct DappWorks.JobStruct","name":"","type":"tuple"}],"stateMutability":"view","type":"function"},{"inputs":[],"name":"getJobs","outputs":[{"components":[{"internalType":"uint256","name":"id","type":"uint256"},{"internalType":"address","name":"owner","type":"address"},{"internalType":"address","name":"freelancer","type":"address"},{"internalType":"string","name":"jobTitle","type":"string"},{"internalType":"string","name":"description","type":"string"},{"internalType":"string","name":"tags","type":"string"},{"internalType":"uint256","name":"prize","type":"uint256"},{"internalType":"bool","name":"paidOut","type":"bool"},{"internalType":"uint256","name":"timestamp","type":"uint256"},{"internalType":"bool","name":"listed","type":"bool"},{"internalType":"uint256","name":"disputed","type":"uint256"},{"internalType":"address[]","name":"bidders","type":"address[]"},{"internalType":"string","name":"answer","type":"string"},{"internalType":"uint256","name":"timestamp_end","type":"uint256"},{"internalType":"uint256","name":"timestamp_verified","type":"uint256"}],"internalType":"struct DappWorks.JobStruct[]","name":"ActiveJobs","type":"tuple[]"}],"stateMutability":"view","type":"function"},{"inputs":[],"name":"getJobsForBidder","outputs":[{"components":[{"internalType":"uint256","name":"id","type":"uint256"},{"internalType":"address","name":"owner","type":"address"},{"internalType":"address","name":"freelancer","type":"address"},{"internalType":"string","name":"jobTitle","type":"string"},{"internalType":"string","name":"description","type":"string"},{"internalType":"string","name":"tags","type":"string"},{"internalType":"uint256","name":"prize","type":"uint256"},{"internalType":"bool","name":"paidOut","type":"bool"},{"internalType":"uint256","name":"timestamp","type":"uint256"},{"internalType":"bool","name":"listed","type":"bool"},{"internalType":"uint256","name":"disputed","type":"uint256"},{"internalType":"address[]","name":"bidders","type":"address[]"},{"internalType":"string","name":"answer","type":"string"},{"internalType":"uint256","name":"timestamp_end","type":"uint256"},{"internalType":"uint256","name":"timestamp_verified","type":"uint256"}],"internalType":"struct DappWorks.JobStruct[]","name":"bidderJobs","type":"tuple[]"}],"stateMutability":"view","type":"function"},{"inputs":[],"name":"getMyJobs","outputs":[{"components":[{"internalType":"uint256","name":"id","type":"uint256"},{"internalType":"address","name":"owner","type":"address"},{"internalType":"address","name":"freelancer","type":"address"},{"internalType":"string","name":"jobTitle","type":"string"},{"internalType":"string","name":"description","type":"string"},{"internalType":"string","name":"tags","type":"string"},{"internalType":"uint256","name":"prize","type":"uint256"},{"internalType":"bool","name":"paidOut","type":"bool"},{"internalType":"uint256","name":"timestamp","type":"uint256"},{"internalType":"bool","name":"listed","type":"bool"},{"internalType":"uint256","name":"disputed","type":"uint256"},{"internalType":"address[]","name":"bidders","type":"address[]"},{"internalType":"string","name":"answer","type":"string"},{"internalType":"uint256","name":"timestamp_end","type":"uint256"},{"internalType":"uint256","name":"timestamp_verified","type":"uint256"}],"internalType":"struct DappWorks.JobStruct[]","name":"MyJobs","type":"tuple[]"}],"stateMutability":"view","type":"function"},{"inputs":[{"internalType":"uint256","name":"","type":"uint256"},{"internalType":"address","name":"","type":"address"}],"name":"hasPlacedBid","outputs":[{"internalType":"bool","name":"","type":"bool"}],"stateMutability":"view","type":"function"},{"inputs":[{"internalType":"address","name":"","type":"address"}],"name":"isRegistered","outputs":[{"internalType":"bool","name":"","type":"bool"}],"stateMutability":"view","type":"function"},{"inputs":[{"internalType":"address","name":"","type":"address"},{"internalType":"uint256","name":"","type":"uint256"}],"name":"jobsBidByUser","outputs":[{"internalType":"uint256","name":"","type":"uint256"}],"stateMutability":"view","type":"function"},{"inputs":[],"name":"nextUserId","outputs":[{"internalType":"uint256","name":"","type":"uint256"}],"stateMutability":"view","type":"function"},{"inputs":[],"name":"owner","outputs":[{"internalType":"address","name":"","type":"address"}],"stateMutability":"view","type":"function"},{"inputs":[{"internalType":"uint256","name":"id","type":"uint256"}],"name":"payout","outputs":[],"stateMutability":"nonpayable","type":"function"},{"inputs":[],"name":"platformCharge","outputs":[{"internalType":"uint256","name":"","type":"uint256"}],"stateMutability":"view","type":"function"},{"inputs":[],"name":"registerOrLogin","outputs":[],"stateMutability":"nonpayable","type":"function"},{"inputs":[],"name":"renounceOwnership","outputs":[],"stateMutability":"nonpayable","type":"function"},{"inputs":[{"internalType":"uint256","name":"id","type":"uint256"},{"internalType":"uint256","name":"jId","type":"uint256"}],"name":"resolved","outputs":[],"stateMutability":"nonpayable","type":"function"},{"inputs":[{"internalType":"uint256","name":"jId","type":"uint256"},{"internalType":"uint256","name":"id","type":"uint256"}],"name":"revoke","outputs":[],"stateMutability":"nonpayable","type":"function"},{"inputs":[{"internalType":"address","name":"newOwner","type":"address"}],"name":"transferOwnership","outputs":[],"stateMutability":"nonpayable","type":"function"},{"inputs":[{"internalType":"uint256","name":"id","type":"uint256"},{"internalType":"string","name":"jobTitle","type":"string"},{"internalType":"string","name":"description","type":"string"},{"internalType":"string","name":"tags","type":"string"},{"internalType":"string","name":"answer","type":"string"}],"name":"updateJob","outputs":[],"stateMutability":"nonpayable","type":"function"},{"inputs":[{"internalType":"address","name":"","type":"address"}],"name":"users","outputs":[{"internalType":"uint256","name":"id","type":"uint256"},{"internalType":"address","name":"account","type":"address"}],"stateMutability":"view","type":"function"}],"evm":{"bytecode":{"linkReferences":{},"object":"608060405260056003556001600a553480156200001b57600080fd5b50620000273362000031565b6001805562000081565b600080546001600160a01b038381166001600160a01b0319831681178455604051919092169283917f8be0079c531659141344cd1fd0a4f28419497f9722a3daafe3b4186f6b6457e09190a35050565b613c9c80620000916000396000f3fe6080604052600436106101d65760003560e01c80639b00214c11610102578063c4ff0b4511610095578063e6f813aa11610064578063e6f813aa146105c8578063eb361f81146105ff578063ebad1b891461063f578063f2fde38b1461065257600080fd5b8063c4ff0b4514610553578063cd97c9de14610568578063def5e73714610588578063e1152343146105a857600080fd5b8063aa4ccafa116100d1578063aa4ccafa146104a9578063be1b6fc6146104d6578063bf22c457146104f6578063c3c5a5471461052357600080fd5b80639b00214c146103e9578063a1e6a255146103fe578063a7e2a33014610414578063a87430ba1461044f57600080fd5b806368581ebd1161017a5780638b142225116101495780638b142225146103685780638d95e37d1461038c5780638da5cb5b146103ac5780639180f2a0146103d457600080fd5b806368581ebd146102fe578063715018a61461031357806371928fe11461032857806386d6282c1461034857600080fd5b80634b3f53e0116101b65780634b3f53e0146102645780634fa7b507146102915780635af7e835146102be5780636358bb8c146102de57600080fd5b80620a106b146101db578062ebd5fa1461022b5780631d8c91a11461024d575b600080fd5b3480156101e757600080fd5b506102166101f6366004613427565b600860209081526000928352604080842090915290825290205460ff1681565b60405190151581526020015b60405180910390f35b34801561023757600080fd5b50610240610672565b6040516102229190613609565b34801561025957600080fd5b50610262610b4c565b005b34801561027057600080fd5b5061028461027f36600461366b565b610bd7565b6040516102229190613684565b34801561029d57600080fd5b506102b16102ac36600461366b565b610c5f565b60405161022291906136e4565b3480156102ca57600080fd5b506102626102d93660046137e9565b610d61565b3480156102ea57600080fd5b506102626102f936600461366b565b610ec4565b34801561030a57600080fd5b50610240610fc0565b34801561031f57600080fd5b50610262611483565b34801561033457600080fd5b506102626103433660046138a0565b611497565b34801561035457600080fd5b5061026261036336600461366b565b61156a565b34801561037457600080fd5b5061037e60035481565b604051908152602001610222565b34801561039857600080fd5b5061037e6103a73660046138c2565b61166e565b3480156103b857600080fd5b506000546040516001600160a01b039091168152602001610222565b3480156103e057600080fd5b506102b161169f565b3480156103f557600080fd5b5061024061191c565b34801561040a57600080fd5b5061037e600a5481565b34801561042057600080fd5b5061021661042f36600461366b565b600090815260086020908152604080832033845290915290205460ff1690565b34801561045b57600080fd5b5061048c61046a3660046138ec565b600b60205260009081526040902080546001909101546001600160a01b031682565b604080519283526001600160a01b03909116602083015201610222565b3480156104b557600080fd5b5061037e6104c436600461366b565b60009081526006602052604090205490565b3480156104e257600080fd5b506102626104f13660046138a0565b611db3565b34801561050257600080fd5b5061051661051136600461366b565b611e75565b604051610222919061390e565b34801561052f57600080fd5b5061021661053e3660046138ec565b600c6020526000908152604090205460ff1681565b34801561055f57600080fd5b506102406121d4565b34801561057457600080fd5b50610216610583366004613921565b6126b5565b34801561059457600080fd5b506102626105a3366004613968565b612953565b3480156105b457600080fd5b506102626105c336600461366b565b6129ba565b3480156105d457600080fd5b506105e86105e3366004613427565b612be7565b604080519215158352901515602083015201610222565b34801561060b57600080fd5b5061063261061a36600461366b565b50604080518082019091526000808252602082015290565b604051610222919061399d565b61026261064d3660046139bd565b612d3b565b34801561065e57600080fd5b5061026261066d3660046138ec565b613065565b6060600060015b60025481116106fc5760008181526007602052604090205460ff1680156106b2575060008181526004602052604090206007015460ff16155b80156106d757506000818152600460205260409020600201546001600160a01b031633145b156106ea57816106e681613a80565b9250505b806106f481613a80565b915050610679565b508067ffffffffffffffff81111561071657610716613746565b60405190808252806020026020018201604052801561074f57816020015b61073c613263565b8152602001906001900390816107345790505b509150600060015b6002548111610b465760008181526007602052604090205460ff168015610790575060008181526004602052604090206007015460ff16155b80156107b557506000818152600460205260409020600201546001600160a01b031633145b15610b345760008181526004602090815260409182902082516101e0810184528154815260018201546001600160a01b039081169382019390935260028201549092169282019290925260038201805491929160608401919061081790613a9b565b80601f016020809104026020016040519081016040528092919081815260200182805461084390613a9b565b80156108905780601f1061086557610100808354040283529160200191610890565b820191906000526020600020905b81548152906001019060200180831161087357829003601f168201915b505050505081526020016004820180546108a990613a9b565b80601f01602080910402602001604051908101604052809291908181526020018280546108d590613a9b565b80156109225780601f106108f757610100808354040283529160200191610922565b820191906000526020600020905b81548152906001019060200180831161090557829003601f168201915b5050505050815260200160058201805461093b90613a9b565b80601f016020809104026020016040519081016040528092919081815260200182805461096790613a9b565b80156109b45780601f10610989576101008083540402835291602001916109b4565b820191906000526020600020905b81548152906001019060200180831161099757829003601f168201915b50505091835250506006820154602080830191909152600783015460ff908116151560408085019190915260088501546060850152600985015490911615156080840152600a84015460a0840152600b8401805482518185028101850190935280835260c0909401939192909190830182828015610a5b57602002820191906000526020600020905b81546001600160a01b03168152600190910190602001808311610a3d575b50505050508152602001600c82018054610a7490613a9b565b80601f0160208091040260200160405190810160405280929190818152602001828054610aa090613a9b565b8015610aed5780601f10610ac257610100808354040283529160200191610aed565b820191906000526020600020905b815481529060010190602001808311610ad057829003601f168201915b50505050508152602001600d8201548152602001600e82015481525050848380610b1690613a80565b945081518110610b2857610b28613ad6565b60200260200101819052505b80610b3e81613a80565b915050610757565b50505090565b336000908152600c602052604090205460ff1615610b6657565b604080518082018252600a805482523360208084018281526000928352600b82528583209451855551600194850180546001600160a01b0319166001600160a01b03909216919091179055600c9052928320805460ff1916909217909155805491610bd083613a80565b9190505550565b606060056000838152602001908152602001600020805480602002602001604051908101604052809291908181526020016000905b82821015610c545760008481526020908190206040805180820190915260028502909101805482526001908101546001600160a01b0316828401529083529092019101610c0c565b505050509050919050565b60008181526004602052604090206009015460609060ff168015610c91575060008281526007602052604090205460ff165b15610d2757600082815260066020908152604080832080548251818502810185019093528083529193909284015b82821015610c54576000848152602090819020604080516080810182526003860290920180548352600180820154848601526002909101546001600160a01b03811692840192909252600160a01b90910460ff16151560608301529083529092019101610cbf565b6040805160008082526020820190925290610d58565b610d456132ef565b815260200190600190039081610d3d5790505b5090505b919050565b60008581526007602052604090205460ff16610d985760405162461bcd60e51b8152600401610d8f90613aec565b60405180910390fd5b60008581526004602052604090206009015460ff16610df35760405162461bcd60e51b81526020600482015260176024820152762a3434b9903537b1103430b9903132b2b7103a30b5b2b760491b6044820152606401610d8f565b60008581526004602052604090206007015460ff1615610e255760405162461bcd60e51b8152600401610d8f90613b23565b60008581526004602090815260409091208551610e4a92600390920191870190613322565b5060008581526004602081815260409092208551610e7093919092019190860190613322565b5060008581526004602090815260409091208351610e9692600590920191850190613322565b5060008581526004602090815260409091208251610ebc92600c90920191840190613322565b505050505050565b60008181526007602052604090205460ff16610ef25760405162461bcd60e51b8152600401610d8f90613aec565b60008181526004602052604090206009015460ff16610f4d5760405162461bcd60e51b81526020600482015260176024820152762a3434b9903537b1103430b9903132b2b7103a30b5b2b760491b6044820152606401610d8f565b60008181526004602052604090206007015460ff1615610f7f5760405162461bcd60e51b8152600401610d8f90613b23565b6000818152600760209081526040808320805460ff19169055600490915290206001810154600690910154610fbd916001600160a01b0316906130db565b50565b606060008060015b60025481116110435760008181526007602052604090205460ff168015611000575060008181526004602052604090206009015460ff165b801561101e575060008181526004602052604090206007015460ff16155b15611031578261102d81613a80565b9350505b8061103b81613a80565b915050610fc8565b508167ffffffffffffffff81111561105d5761105d613746565b60405190808252806020026020018201604052801561109657816020015b611083613263565b81526020019060019003908161107b5790505b50925060015b6002548111610b465760008181526007602052604090205460ff1680156110d4575060008181526004602052604090206009015460ff165b80156110f2575060008181526004602052604090206007015460ff16155b156114715760008181526004602090815260409182902082516101e0810184528154815260018201546001600160a01b039081169382019390935260028201549092169282019290925260038201805491929160608401919061115490613a9b565b80601f016020809104026020016040519081016040528092919081815260200182805461118090613a9b565b80156111cd5780601f106111a2576101008083540402835291602001916111cd565b820191906000526020600020905b8154815290600101906020018083116111b057829003601f168201915b505050505081526020016004820180546111e690613a9b565b80601f016020809104026020016040519081016040528092919081815260200182805461121290613a9b565b801561125f5780601f106112345761010080835404028352916020019161125f565b820191906000526020600020905b81548152906001019060200180831161124257829003601f168201915b5050505050815260200160058201805461127890613a9b565b80601f01602080910402602001604051908101604052809291908181526020018280546112a490613a9b565b80156112f15780601f106112c6576101008083540402835291602001916112f1565b820191906000526020600020905b8154815290600101906020018083116112d457829003601f168201915b50505091835250506006820154602080830191909152600783015460ff908116151560408085019190915260088501546060850152600985015490911615156080840152600a84015460a0840152600b8401805482518185028101850190935280835260c090940193919290919083018282801561139857602002820191906000526020600020905b81546001600160a01b0316815260019091019060200180831161137a575b50505050508152602001600c820180546113b190613a9b565b80601f01602080910402602001604051908101604052809291908181526020018280546113dd90613a9b565b801561142a5780601f106113ff5761010080835404028352916020019161142a565b820191906000526020600020905b81548152906001019060200180831161140d57829003601f168201915b50505050508152602001600d8201548152602001600e8201548152505084838061145390613a80565b94508151811061146557611465613ad6565b60200260200101819052505b8061147b81613a80565b91505061109c565b61148b613140565b611495600061319a565b565b60008281526007602052604090205460ff166114c55760405162461bcd60e51b8152600401610d8f90613aec565b6000828152600460205260409020600a01546115235760405162461bcd60e51b815260206004820152601b60248201527f54686973206a6f62206d757374206265206f6e206469737075746500000000006044820152606401610d8f565b60008281526004602052604090206007015460ff16156115555760405162461bcd60e51b8152600401610d8f90613b23565b506000908152600460205260408120600a0155565b60008181526007602052604090205460ff166115985760405162461bcd60e51b8152600401610d8f90613aec565b6000818152600460205260409020600d015442116115f05760405162461bcd60e51b8152602060048201526015602482015274105b9cddd95c881d1a5b59481b9bdd08195b991959605a1b6044820152606401610d8f565b6000818152600460205260409020600e015442106116445760405162461bcd60e51b815260206004820152601160248201527014995d9a595dc81d1a5b5948195b991959607a1b6044820152606401610d8f565b6000818152600460205260408120600a01805460019290611666908490613b5a565b909155505050565b6009602052816000526040600020818154811061168a57600080fd5b90600052602060002001600091509150505481565b606060006116ac60025490565b67ffffffffffffffff8111156116c4576116c4613746565b6040519080825280602002602001820160405280156116fd57816020015b6116ea6132ef565b8152602001906001900390816116e25790505b509050600060015b60025481116118715760008181526007602052604090205460ff161561185f57600081815260086020908152604080832033845290915290205460ff161561185f5760005b60008281526006602052604090205481101561185d57600082815260066020526040902080543391908390811061178357611783613ad6565b60009182526020909120600260039092020101546001600160a01b0316141561184b5760008281526006602052604090208054829081106117c6576117c6613ad6565b600091825260209182902060408051608081018252600393909302909101805483526001810154938301939093526002909201546001600160a01b03811692820192909252600160a01b90910460ff1615156060820152845185908590811061183157611831613ad6565b6020026020010181905250828061184790613a80565b9350505b8061185581613a80565b91505061174a565b505b8061186981613a80565b915050611705565b508067ffffffffffffffff81111561188b5761188b613746565b6040519080825280602002602001820160405280156118c457816020015b6118b16132ef565b8152602001906001900390816118a95790505b50925060005b81811015610b46578281815181106118e4576118e4613ad6565b60200260200101518482815181106118fe576118fe613ad6565b6020026020010181905250808061191490613a80565b9150506118ca565b606060008060015b60025481116119895760008181526007602052604090205460ff16801561196457506000818152600460205260409020600101546001600160a01b031633145b15611977578261197381613a80565b9350505b8061198181613a80565b915050611924565b508167ffffffffffffffff8111156119a3576119a3613746565b6040519080825280602002602001820160405280156119dc57816020015b6119c9613263565b8152602001906001900390816119c15790505b50925060015b6002548111610b465760008181526007602052604090205460ff168015611a2257506000818152600460205260409020600101546001600160a01b031633145b15611da15760008181526004602090815260409182902082516101e0810184528154815260018201546001600160a01b0390811693820193909352600282015490921692820192909252600382018054919291606084019190611a8490613a9b565b80601f0160208091040260200160405190810160405280929190818152602001828054611ab090613a9b565b8015611afd5780601f10611ad257610100808354040283529160200191611afd565b820191906000526020600020905b815481529060010190602001808311611ae057829003601f168201915b50505050508152602001600482018054611b1690613a9b565b80601f0160208091040260200160405190810160405280929190818152602001828054611b4290613a9b565b8015611b8f5780601f10611b6457610100808354040283529160200191611b8f565b820191906000526020600020905b815481529060010190602001808311611b7257829003601f168201915b50505050508152602001600582018054611ba890613a9b565b80601f0160208091040260200160405190810160405280929190818152602001828054611bd490613a9b565b8015611c215780601f10611bf657610100808354040283529160200191611c21565b820191906000526020600020905b815481529060010190602001808311611c0457829003601f168201915b50505091835250506006820154602080830191909152600783015460ff908116151560408085019190915260088501546060850152600985015490911615156080840152600a84015460a0840152600b8401805482518185028101850190935280835260c0909401939192909190830182828015611cc857602002820191906000526020600020905b81546001600160a01b03168152600190910190602001808311611caa575b50505050508152602001600c82018054611ce190613a9b565b80601f0160208091040260200160405190810160405280929190818152602001828054611d0d90613a9b565b8015611d5a5780601f10611d2f57610100808354040283529160200191611d5a565b820191906000526020600020905b815481529060010190602001808311611d3d57829003601f168201915b50505050508152602001600d8201548152602001600e82015481525050848380611d8390613a80565b945081518110611d9557611d95613ad6565b60200260200101819052505b80611dab81613a80565b9150506119e2565b60008281526007602052604090205460ff16611de15760405162461bcd60e51b8152600401610d8f90613aec565b6000828152600460205260409020600a0154611e3f5760405162461bcd60e51b815260206004820152601b60248201527f54686973206a6f62206d757374206265206f6e206469737075746500000000006044820152606401610d8f565b60008281526004602052604090206007015460ff1615611e715760405162461bcd60e51b8152600401610d8f90613b23565b5050565b611e7d613263565b60008281526004602090815260409182902082516101e0810184528154815260018201546001600160a01b0390811693820193909352600282015490921692820192909252600382018054919291606084019190611eda90613a9b565b80601f0160208091040260200160405190810160405280929190818152602001828054611f0690613a9b565b8015611f535780601f10611f2857610100808354040283529160200191611f53565b820191906000526020600020905b815481529060010190602001808311611f3657829003601f168201915b50505050508152602001600482018054611f6c90613a9b565b80601f0160208091040260200160405190810160405280929190818152602001828054611f9890613a9b565b8015611fe55780601f10611fba57610100808354040283529160200191611fe5565b820191906000526020600020905b815481529060010190602001808311611fc857829003601f168201915b50505050508152602001600582018054611ffe90613a9b565b80601f016020809104026020016040519081016040528092919081815260200182805461202a90613a9b565b80156120775780601f1061204c57610100808354040283529160200191612077565b820191906000526020600020905b81548152906001019060200180831161205a57829003601f168201915b50505091835250506006820154602080830191909152600783015460ff908116151560408085019190915260088501546060850152600985015490911615156080840152600a84015460a0840152600b8401805482518185028101850190935280835260c090940193919290919083018282801561211e57602002820191906000526020600020905b81546001600160a01b03168152600190910190602001808311612100575b50505050508152602001600c8201805461213790613a9b565b80601f016020809104026020016040519081016040528092919081815260200182805461216390613a9b565b80156121b05780601f10612185576101008083540402835291602001916121b0565b820191906000526020600020905b81548152906001019060200180831161219357829003601f168201915b50505050508152602001600d8201548152602001600e820154815250509050919050565b606060006121e160025490565b67ffffffffffffffff8111156121f9576121f9613746565b60405190808252806020026020018201604052801561223257816020015b61221f613263565b8152602001906001900390816122175790505b509050600060015b600254811161260a5760008181526007602052604090205460ff16156125f857600081815260086020908152604080832033845290915290205460ff16156125f85760008181526004602090815260409182902082516101e0810184528154815260018201546001600160a01b03908116938201939093526002820154909216928201929092526003820180549192916060840191906122d990613a9b565b80601f016020809104026020016040519081016040528092919081815260200182805461230590613a9b565b80156123525780601f1061232757610100808354040283529160200191612352565b820191906000526020600020905b81548152906001019060200180831161233557829003601f168201915b5050505050815260200160048201805461236b90613a9b565b80601f016020809104026020016040519081016040528092919081815260200182805461239790613a9b565b80156123e45780601f106123b9576101008083540402835291602001916123e4565b820191906000526020600020905b8154815290600101906020018083116123c757829003601f168201915b505050505081526020016005820180546123fd90613a9b565b80601f016020809104026020016040519081016040528092919081815260200182805461242990613a9b565b80156124765780601f1061244b57610100808354040283529160200191612476565b820191906000526020600020905b81548152906001019060200180831161245957829003601f168201915b50505091835250506006820154602080830191909152600783015460ff908116151560408085019190915260088501546060850152600985015490911615156080840152600a84015460a0840152600b8401805482518185028101850190935280835260c090940193919290919083018282801561251d57602002820191906000526020600020905b81546001600160a01b031681526001909101906020018083116124ff575b50505050508152602001600c8201805461253690613a9b565b80601f016020809104026020016040519081016040528092919081815260200182805461256290613a9b565b80156125af5780601f10612584576101008083540402835291602001916125af565b820191906000526020600020905b81548152906001019060200180831161259257829003601f168201915b50505050508152602001600d8201548152602001600e820154815250508383815181106125de576125de613ad6565b602002602001018190525081806125f490613a80565b9250505b8061260281613a80565b91505061223a565b508067ffffffffffffffff81111561262457612624613746565b60405190808252806020026020018201604052801561265d57816020015b61264a613263565b8152602001906001900390816126425790505b50925060005b81811015610b465782818151811061267d5761267d613ad6565b602002602001015184828151811061269757612697613ad6565b602002602001018190525080806126ad90613a80565b915050612663565b60008281526007602052604081205460ff166126e35760405162461bcd60e51b8152600401610d8f90613aec565b6000838152600460205260409020600101546001600160a01b03163314156127415760405162461bcd60e51b8152602060048201526011602482015270466f7262696464656e20616374696f6e2160781b6044820152606401610d8f565b60008381526004602052604090206007015460ff16156127735760405162461bcd60e51b8152600401610d8f90613b23565b60008381526004602052604090206009015460ff166127d45760405162461bcd60e51b815260206004820152601860248201527f54686973206a6f622068617665206265656e2074616b656e00000000000000006044820152606401610d8f565b6127dc6132ef565b6000848152600660205260409020546127f6906001613b5a565b81526020808201859052336040808401919091528451858301206000878152600490935291819020905161282d91600c0190613b72565b60405180910390201415612847576001606082015261284f565b600060608201525b6000848152600460209081526040808320600b018054600181810183559185528385200180546001600160a01b03191633908117909155888552600684528285208054808401825590865284862087516003909202019081558685015192810192909255858301516002909201805460608801511515600160a01b026001600160a81b03199091166001600160a01b039490941693909317929092179091558784526008835281842090845290915290205460ff166129465760008481526008602090815260408083203384528252808320805460ff19166001908117909155600983529083208054918201815583529120018490555b6060015190505b92915050565b60008281526004602052604090206001015482906001600160a01b031633146129b45760405162461bcd60e51b8152602060048201526013602482015272556e617574686f72697a656420656e7469747960681b6044820152606401610d8f565b50505050565b6129c26131ea565b60008181526004602052604090206001015481906001600160a01b03163314612a235760405162461bcd60e51b8152602060048201526013602482015272556e617574686f72697a656420656e7469747960681b6044820152606401610d8f565b60008281526007602052604090205460ff16612a515760405162461bcd60e51b8152600401610d8f90613aec565b60008281526004602052604090206009015460ff1615612ab35760405162461bcd60e51b815260206004820152601b60248201527f54686973206a6f6220686173206e6f74206265656e2074616b656e00000000006044820152606401610d8f565b6000828152600460205260409020600a015415612b125760405162461bcd60e51b815260206004820152601f60248201527f54686973206a6f62206d757374206e6f74206265206f6e2064697370757465006044820152606401610d8f565b60008281526004602052604090206007015460ff1615612b445760405162461bcd60e51b8152600401610d8f90613b23565b600082815260046020526040812060060154600354909190606490612b699084613c0e565b612b739190613c2d565b600085815260046020526040902060020154909150612ba4906001600160a01b0316612b9f8385613c4f565b6130db565b612bbf612bb96000546001600160a01b031690565b826130db565b5050506000818152600460205260409020600701805460ff19166001179055610fbd60018055565b6000828152600660209081526040808320805482518185028101850190935280835284938493929190849084015b82821015612c7d576000848152602090819020604080516080810182526003860290920180548352600180820154848601526002909101546001600160a01b03811692840192909252600160a01b90910460ff16151560608301529083529092019101612c15565b50505050905060008060005b8351811015612d2e57838181518110612ca457612ca4613ad6565b60200260200101516060015115612cba57600191505b866001600160a01b0316848281518110612cd657612cd6613ad6565b6020026020010151604001516001600160a01b0316148015612d125750838181518110612d0557612d05613ad6565b6020026020010151606001515b15612d1c57600192505b80612d2681613a80565b915050612c89565b5090969095509350505050565b6000845111612d8c5760405162461bcd60e51b815260206004820152601a60248201527f506c656173652070726f766964652061206a6f62207469746c650000000000006044820152606401610d8f565b6000835111612ddd5760405162461bcd60e51b815260206004820152601c60248201527f506c656173652070726f766964652061206465736372697074696f6e000000006044820152606401610d8f565b6000825111612e245760405162461bcd60e51b8152602060048201526013602482015272506c656173652070726f76696465207461677360681b6044820152606401610d8f565b60003411612e695760405162461bcd60e51b8152602060048201526012602482015271496e73756666696369656e742066756e647360701b6044820152606401610d8f565b612e77600280546001019055565b6000612e8260025490565b9050612e8c613263565b818152336020820152606081018690526080810185905260a081018490523460c08201526001610120820152612ec0613244565b6101008201526101808101839052612ed6613244565b612ee39062278d00613b5a565b6101a0820152612ef1613244565b612efe9062093a80613b5a565b6101c082015260008281526004602090815260409182902083518155818401516001820180546001600160a01b03199081166001600160a01b03938416179091559385015160028301805490951691161790925560608301518051849392612f6d926003850192910190613322565b5060808201518051612f89916004840191602090910190613322565b5060a08201518051612fa5916005840191602090910190613322565b5060c0820151600682015560e082015160078201805491151560ff19928316179055610100830151600883015561012083015160098301805491151591909216179055610140820151600a820155610160820151805161300f91600b8401916020909101906133a6565b50610180820151805161302c91600c840191602090910190613322565b506101a0820151600d8201556101c090910151600e90910155506000908152600760205260409020805460ff1916600117905550505050565b61306d613140565b6001600160a01b0381166130d25760405162461bcd60e51b815260206004820152602660248201527f4f776e61626c653a206e6577206f776e657220697320746865207a65726f206160448201526564647265737360d01b6064820152608401610d8f565b610fbd8161319a565b6000826001600160a01b03168260405160006040518083038185875af1925050503d8060008114613128576040519150601f19603f3d011682016040523d82523d6000602084013e61312d565b606091505b505090508061313b57600080fd5b505050565b6000546001600160a01b031633146114955760405162461bcd60e51b815260206004820181905260248201527f4f776e61626c653a2063616c6c6572206973206e6f7420746865206f776e65726044820152606401610d8f565b600080546001600160a01b038381166001600160a01b0319831681178455604051919092169283917f8be0079c531659141344cd1fd0a4f28419497f9722a3daafe3b4186f6b6457e09190a35050565b6002600154141561323d5760405162461bcd60e51b815260206004820152601f60248201527f5265656e7472616e637947756172643a207265656e7472616e742063616c6c006044820152606401610d8f565b6002600155565b6000613252426103e8613c0e565b61325e906103e8613b5a565b905090565b604051806101e001604052806000815260200160006001600160a01b0316815260200160006001600160a01b03168152602001606081526020016060815260200160608152602001600081526020016000151581526020016000815260200160001515815260200160008152602001606081526020016060815260200160008152602001600081525090565b6040518060800160405280600081526020016000815260200160006001600160a01b031681526020016000151581525090565b82805461332e90613a9b565b90600052602060002090601f0160209004810192826133505760008555613396565b82601f1061336957805160ff1916838001178555613396565b82800160010185558215613396579182015b8281111561339657825182559160200191906001019061337b565b506133a29291506133fb565b5090565b828054828255906000526020600020908101928215613396579160200282015b8281111561339657825182546001600160a01b0319166001600160a01b039091161782556020909201916001909101906133c6565b5b808211156133a257600081556001016133fc565b80356001600160a01b0381168114610d5c57600080fd5b6000806040838503121561343a57600080fd5b8235915061344a60208401613410565b90509250929050565b6000815180845260005b818110156134795760208185018101518683018201520161345d565b8181111561348b576000602083870101525b50601f01601f19169290920160200192915050565b600081518084526020808501945080840160005b838110156134d95781516001600160a01b0316875295820195908201906001016134b4565b509495945050505050565b60006101e082518452602083015161350760208601826001600160a01b03169052565b50604083015161352260408601826001600160a01b03169052565b50606083015181606086015261353a82860182613453565b915050608083015184820360808601526135548282613453565b91505060a083015184820360a086015261356e8282613453565b91505060c083015160c085015260e083015161358e60e086018215159052565b50610100838101519085015261012080840151151590850152610140808401519085015261016080840151858303828701526135ca83826134a0565b9250505061018080840151858303828701526135e68382613453565b6101a086810151908801526101c095860151959096019490945250929392505050565b6000602080830181845280855180835260408601915060408160051b870101925083870160005b8281101561365e57603f1988860301845261364c8583516134e4565b94509285019290850190600101613630565b5092979650505050505050565b60006020828403121561367d57600080fd5b5035919050565b602080825282518282018190526000919060409081850190868401855b828110156136d7576136c7848351805182526020908101516001600160a01b0316910152565b92840192908501906001016136a1565b5091979650505050505050565b602080825282518282018190526000919060409081850190868401855b828110156136d7578151805185528681015187860152858101516001600160a01b03168686015260609081015115159085015260809093019290850190600101613701565b634e487b7160e01b600052604160045260246000fd5b600082601f83011261376d57600080fd5b813567ffffffffffffffff8082111561378857613788613746565b604051601f8301601f19908116603f011681019082821181831017156137b0576137b0613746565b816040528381528660208588010111156137c957600080fd5b836020870160208301376000602085830101528094505050505092915050565b600080600080600060a0868803121561380157600080fd5b85359450602086013567ffffffffffffffff8082111561382057600080fd5b61382c89838a0161375c565b9550604088013591508082111561384257600080fd5b61384e89838a0161375c565b9450606088013591508082111561386457600080fd5b61387089838a0161375c565b9350608088013591508082111561388657600080fd5b506138938882890161375c565b9150509295509295909350565b600080604083850312156138b357600080fd5b50508035926020909101359150565b600080604083850312156138d557600080fd5b6138de83613410565b946020939093013593505050565b6000602082840312156138fe57600080fd5b61390782613410565b9392505050565b60208152600061390760208301846134e4565b6000806040838503121561393457600080fd5b82359150602083013567ffffffffffffffff81111561395257600080fd5b61395e8582860161375c565b9150509250929050565b60008060006060848603121561397d57600080fd5b833592506020840135915061399460408501613410565b90509250925092565b815181526020808301516001600160a01b0316908201526040810161294d565b600080600080608085870312156139d357600080fd5b843567ffffffffffffffff808211156139eb57600080fd5b6139f78883890161375c565b95506020870135915080821115613a0d57600080fd5b613a198883890161375c565b94506040870135915080821115613a2f57600080fd5b613a3b8883890161375c565b93506060870135915080821115613a5157600080fd5b50613a5e8782880161375c565b91505092959194509250565b634e487b7160e01b600052601160045260246000fd5b6000600019821415613a9457613a94613a6a565b5060010190565b600181811c90821680613aaf57607f821691505b60208210811415613ad057634e487b7160e01b600052602260045260246000fd5b50919050565b634e487b7160e01b600052603260045260246000fd5b6020808252601e908201527f54686973206a6f62206c697374696e6720646f65736e27742065786973740000604082015260600190565b6020808252601a908201527f54686973206a6f6220686173206265656e2070616964206f7574000000000000604082015260600190565b60008219821115613b6d57613b6d613a6a565b500190565b600080835481600182811c915080831680613b8e57607f831692505b6020808410821415613bae57634e487b7160e01b86526022600452602486fd5b818015613bc25760018114613bd357613c00565b60ff19861689528489019650613c00565b60008a81526020902060005b86811015613bf85781548b820152908501908301613bdf565b505084890196505b509498975050505050505050565b6000816000190483118215151615613c2857613c28613a6a565b500290565b600082613c4a57634e487b7160e01b600052601260045260246000fd5b500490565b600082821015613c6157613c61613a6a565b50039056fea2646970667358221220da8e2dd72c397a6efa7a05c6eddd50781ff205e517110e9df3b649a72c1de3c264736f6c634300080b0033","opcodes":"PUSH1 0x80 PUSH1 0x40 MSTORE PUSH1 0x5 PUSH1 0x3 SSTORE PUSH1 0x1 PUSH1 0xA SSTORE CALLVALUE DUP1 ISZERO PUSH3 0x1B JUMPI PUSH1 0x0 DUP1 REVERT JUMPDEST POP PUSH3 0x27 CALLER PUSH3 0x31 JUMP JUMPDEST PUSH1 0x1 DUP1 SSTORE PUSH3 0x81 JUMP JUMPDEST PUSH1 0x0 DUP1 SLOAD PUSH1 0x1 PUSH1 0x1 PUSH1 0xA0 SHL SUB DUP4 DUP2 AND PUSH1 0x1 PUSH1 0x1 PUSH1 0xA0 SHL SUB NOT DUP4 AND DUP2 OR DUP5 SSTORE PUSH1 0x40 MLOAD SWAP2 SWAP1 SWAP3 AND SWAP3 DUP4 SWAP2 PUSH32 0x8BE0079C531659141344CD1FD0A4F28419497F9722A3DAAFE3B4186F6B6457E0 SWAP2 SWAP1 LOG3 POP POP JUMP JUMPDEST PUSH2 0x3C9C DUP1 PUSH3 0x91 PUSH1 0x0 CODECOPY PUSH1 0x0 RETURN INVALID PUSH1 0x80 PUSH1 0x40 MSTORE PUSH1 0x4 CALLDATASIZE LT PUSH2 0x1D6 JUMPI PUSH1 0x0 CALLDATALOAD PUSH1 0xE0 SHR DUP1 PUSH4 0x9B00214C GT PUSH2 0x102 JUMPI DUP1 PUSH4 0xC4FF0B45 GT PUSH2 0x95 JUMPI DUP1 PUSH4 0xE6F813AA GT PUSH2 0x64 JUMPI DUP1 PUSH4 0xE6F813AA EQ PUSH2 0x5C8 JUMPI DUP1 PUSH4 0xEB361F81 EQ PUSH2 0x5FF JUMPI DUP1 PUSH4 0xEBAD1B89 EQ PUSH2 0x63F JUMPI DUP1 PUSH4 0xF2FDE38B EQ PUSH2 0x652 JUMPI PUSH1 0x0 DUP1 REVERT JUMPDEST DUP1 PUSH4 0xC4FF0B45 EQ PUSH2 0x553 JUMPI DUP1 PUSH4 0xCD97C9DE EQ PUSH2 0x568 JUMPI DUP1 PUSH4 0xDEF5E737 EQ PUSH2 0x588 JUMPI DUP1 PUSH4 0xE1152343 EQ PUSH2 0x5A8 JUMPI PUSH1 0x0 DUP1 REVERT JUMPDEST DUP1 PUSH4 0xAA4CCAFA GT PUSH2 0xD1 JUMPI DUP1 PUSH4 0xAA4CCAFA EQ PUSH2 0x4A9 JUMPI DUP1 PUSH4 0xBE1B6FC6 EQ PUSH2 0x4D6 JUMPI DUP1 PUSH4 0xBF22C457 EQ PUSH2 0x4F6 JUMPI DUP1 PUSH4 0xC3C5A547 EQ PUSH2 0x523 JUMPI PUSH1 0x0 DUP1 REVERT JUMPDEST DUP1 PUSH4 0x9B00214C EQ PUSH2 0x3E9 JUMPI DUP1 PUSH4 0xA1E6A255 EQ PUSH2 0x3FE JUMPI DUP1 PUSH4 0xA7E2A330 EQ PUSH2 0x414 JUMPI DUP1 PUSH4 0xA87430BA EQ PUSH2 0x44F JUMPI PUSH1 0x0 DUP1 REVERT JUMPDEST DUP1 PUSH4 0x68581EBD GT PUSH2 0x17A JUMPI DUP1 PUSH4 0x8B142225 GT PUSH2 0x149 JUMPI DUP1 PUSH4 0x8B142225 EQ PUSH2 0x368 JUMPI DUP1 PUSH4 0x8D95E37D EQ PUSH2 0x38C JUMPI DUP1 PUSH4 0x8DA5CB5B EQ PUSH2 0x3AC JUMPI DUP1 PUSH4 0x9180F2A0 EQ PUSH2 0x3D4 JUMPI PUSH1 0x0 DUP1 REVERT JUMPDEST DUP1 PUSH4 0x68581EBD EQ PUSH2 0x2FE JUMPI DUP1 PUSH4 0x715018A6 EQ PUSH2 0x313 JUMPI DUP1 PUSH4 0x71928FE1 EQ PUSH2 0x328 JUMPI DUP1 PUSH4 0x86D6282C EQ PUSH2 0x348 JUMPI PUSH1 0x0 DUP1 REVERT JUMPDEST DUP1 PUSH4 0x4B3F53E0 GT PUSH2 0x1B6 JUMPI DUP1 PUSH4 0x4B3F53E0 EQ PUSH2 0x264 JUMPI DUP1 PUSH4 0x4FA7B507 EQ PUSH2 0x291 JUMPI DUP1 PUSH4 0x5AF7E835 EQ PUSH2 0x2BE JUMPI DUP1 PUSH4 0x6358BB8C EQ PUSH2 0x2DE JUMPI PUSH1 0x0 DUP1 REVERT JUMPDEST DUP1 PUSH3 0xA106B EQ PUSH2 0x1DB JUMPI DUP1 PUSH3 0xEBD5FA EQ PUSH2 0x22B JUMPI DUP1 PUSH4 0x1D8C91A1 EQ PUSH2 0x24D JUMPI JUMPDEST PUSH1 0x0 DUP1 REVERT JUMPDEST CALLVALUE DUP1 ISZERO PUSH2 0x1E7 JUMPI PUSH1 0x0 DUP1 REVERT JUMPDEST POP PUSH2 0x216 PUSH2 0x1F6 CALLDATASIZE PUSH1 0x4 PUSH2 0x3427 JUMP JUMPDEST PUSH1 0x8 PUSH1 0x20 SWAP1 DUP2 MSTORE PUSH1 0x0 SWAP3 DUP4 MSTORE PUSH1 0x40 DUP1 DUP5 KECCAK256 SWAP1 SWAP2 MSTORE SWAP1 DUP3 MSTORE SWAP1 KECCAK256 SLOAD PUSH1 0xFF AND DUP2 JUMP JUMPDEST PUSH1 0x40 MLOAD SWAP1 ISZERO ISZERO DUP2 MSTORE PUSH1 0x20 ADD JUMPDEST PUSH1 0x40 MLOAD DUP1 SWAP2 SUB SWAP1 RETURN JUMPDEST CALLVALUE DUP1 ISZERO PUSH2 0x237 JUMPI PUSH1 0x0 DUP1 REVERT JUMPDEST POP PUSH2 0x240 PUSH2 0x672 JUMP JUMPDEST PUSH1 0x40 MLOAD PUSH2 0x222 SWAP2 SWAP1 PUSH2 0x3609 JUMP JUMPDEST CALLVALUE DUP1 ISZERO PUSH2 0x259 JUMPI PUSH1 0x0 DUP1 REVERT JUMPDEST POP PUSH2 0x262 PUSH2 0xB4C JUMP JUMPDEST STOP JUMPDEST CALLVALUE DUP1 ISZERO PUSH2 0x270 JUMPI PUSH1 0x0 DUP1 REVERT JUMPDEST POP PUSH2 0x284 PUSH2 0x27F CALLDATASIZE PUSH1 0x4 PUSH2 0x366B JUMP JUMPDEST PUSH2 0xBD7 JUMP JUMPDEST PUSH1 0x40 MLOAD PUSH2 0x222 SWAP2 SWAP1 PUSH2 0x3684 JUMP JUMPDEST CALLVALUE DUP1 ISZERO PUSH2 0x29D JUMPI PUSH1 0x0 DUP1 REVERT JUMPDEST POP PUSH2 0x2B1 PUSH2 0x2AC CALLDATASIZE PUSH1 0x4 PUSH2 0x366B JUMP JUMPDEST PUSH2 0xC5F JUMP JUMPDEST PUSH1 0x40 MLOAD PUSH2 0x222 SWAP2 SWAP1 PUSH2 0x36E4 JUMP JUMPDEST CALLVALUE DUP1 ISZERO PUSH2 0x2CA JUMPI PUSH1 0x0 DUP1 REVERT JUMPDEST POP PUSH2 0x262 PUSH2 0x2D9 CALLDATASIZE PUSH1 0x4 PUSH2 0x37E9 JUMP JUMPDEST PUSH2 0xD61 JUMP JUMPDEST CALLVALUE DUP1 ISZERO PUSH2 0x2EA JUMPI PUSH1 0x0 DUP1 REVERT JUMPDEST POP PUSH2 0x262 PUSH2 0x2F9 CALLDATASIZE PUSH1 0x4 PUSH2 0x366B JUMP JUMPDEST PUSH2 0xEC4 JUMP JUMPDEST CALLVALUE DUP1 ISZERO PUSH2 0x30A JUMPI PUSH1 0x0 DUP1 REVERT JUMPDEST POP PUSH2 0x240 PUSH2 0xFC0 JUMP JUMPDEST CALLVALUE DUP1 ISZERO PUSH2 0x31F JUMPI PUSH1 0x0 DUP1 REVERT JUMPDEST POP PUSH2 0x262 PUSH2 0x1483 JUMP JUMPDEST CALLVALUE DUP1 ISZERO PUSH2 0x334 JUMPI PUSH1 0x0 DUP1 REVERT JUMPDEST POP PUSH2 0x262 PUSH2 0x343 CALLDATASIZE PUSH1 0x4 PUSH2 0x38A0 JUMP JUMPDEST PUSH2 0x1497 JUMP JUMPDEST CALLVALUE DUP1 ISZERO PUSH2 0x354 JUMPI PUSH1 0x0 DUP1 REVERT JUMPDEST POP PUSH2 0x262 PUSH2 0x363 CALLDATASIZE PUSH1 0x4 PUSH2 0x366B JUMP JUMPDEST PUSH2 0x156A JUMP JUMPDEST CALLVALUE DUP1 ISZERO PUSH2 0x374 JUMPI PUSH1 0x0 DUP1 REVERT JUMPDEST POP PUSH2 0x37E PUSH1 0x3 SLOAD DUP2 JUMP JUMPDEST PUSH1 0x40 MLOAD SWAP1 DUP2 MSTORE PUSH1 0x20 ADD PUSH2 0x222 JUMP JUMPDEST CALLVALUE DUP1 ISZERO PUSH2 0x398 JUMPI PUSH1 0x0 DUP1 REVERT JUMPDEST POP PUSH2 0x37E PUSH2 0x3A7 CALLDATASIZE PUSH1 0x4 PUSH2 0x38C2 JUMP JUMPDEST PUSH2 0x166E JUMP JUMPDEST CALLVALUE DUP1 ISZERO PUSH2 0x3B8 JUMPI PUSH1 0x0 DUP1 REVERT JUMPDEST POP PUSH1 0x0 SLOAD PUSH1 0x40 MLOAD PUSH1 0x1 PUSH1 0x1 PUSH1 0xA0 SHL SUB SWAP1 SWAP2 AND DUP2 MSTORE PUSH1 0x20 ADD PUSH2 0x222 JUMP JUMPDEST CALLVALUE DUP1 ISZERO PUSH2 0x3E0 JUMPI PUSH1 0x0 DUP1 REVERT JUMPDEST POP PUSH2 0x2B1 PUSH2 0x169F JUMP JUMPDEST CALLVALUE DUP1 ISZERO PUSH2 0x3F5 JUMPI PUSH1 0x0 DUP1 REVERT JUMPDEST POP PUSH2 0x240 PUSH2 0x191C JUMP JUMPDEST CALLVALUE DUP1 ISZERO PUSH2 0x40A JUMPI PUSH1 0x0 DUP1 REVERT JUMPDEST POP PUSH2 0x37E PUSH1 0xA SLOAD DUP2 JUMP JUMPDEST CALLVALUE DUP1 ISZERO PUSH2 0x420 JUMPI PUSH1 0x0 DUP1 REVERT JUMPDEST POP PUSH2 0x216 PUSH2 0x42F CALLDATASIZE PUSH1 0x4 PUSH2 0x366B JUMP JUMPDEST PUSH1 0x0 SWAP1 DUP2 MSTORE PUSH1 0x8 PUSH1 0x20 SWAP1 DUP2 MSTORE PUSH1 0x40 DUP1 DUP4 KECCAK256 CALLER DUP5 MSTORE SWAP1 SWAP2 MSTORE SWAP1 KECCAK256 SLOAD PUSH1 0xFF AND SWAP1 JUMP JUMPDEST CALLVALUE DUP1 ISZERO PUSH2 0x45B JUMPI PUSH1 0x0 DUP1 REVERT JUMPDEST POP PUSH2 0x48C PUSH2 0x46A CALLDATASIZE PUSH1 0x4 PUSH2 0x38EC JUMP JUMPDEST PUSH1 0xB PUSH1 0x20 MSTORE PUSH1 0x0 SWAP1 DUP2 MSTORE PUSH1 0x40 SWAP1 KECCAK256 DUP1 SLOAD PUSH1 0x1 SWAP1 SWAP2 ADD SLOAD PUSH1 0x1 PUSH1 0x1 PUSH1 0xA0 SHL SUB AND DUP3 JUMP JUMPDEST PUSH1 0x40 DUP1 MLOAD SWAP3 DUP4 MSTORE PUSH1 0x1 PUSH1 0x1 PUSH1 0xA0 SHL SUB SWAP1 SWAP2 AND PUSH1 0x20 DUP4 ADD MSTORE ADD PUSH2 0x222 JUMP JUMPDEST CALLVALUE DUP1 ISZERO PUSH2 0x4B5 JUMPI PUSH1 0x0 DUP1 REVERT JUMPDEST POP PUSH2 0x37E PUSH2 0x4C4 CALLDATASIZE PUSH1 0x4 PUSH2 0x366B JUMP JUMPDEST PUSH1 0x0 SWAP1 DUP2 MSTORE PUSH1 0x6 PUSH1 0x20 MSTORE PUSH1 0x40 SWAP1 KECCAK256 SLOAD SWAP1 JUMP JUMPDEST CALLVALUE DUP1 ISZERO PUSH2 0x4E2 JUMPI PUSH1 0x0 DUP1 REVERT JUMPDEST POP PUSH2 0x262 PUSH2 0x4F1 CALLDATASIZE PUSH1 0x4 PUSH2 0x38A0 JUMP JUMPDEST PUSH2 0x1DB3 JUMP JUMPDEST CALLVALUE DUP1 ISZERO PUSH2 0x502 JUMPI PUSH1 0x0 DUP1 REVERT JUMPDEST POP PUSH2 0x516 PUSH2 0x511 CALLDATASIZE PUSH1 0x4 PUSH2 0x366B JUMP JUMPDEST PUSH2 0x1E75 JUMP JUMPDEST PUSH1 0x40 MLOAD PUSH2 0x222 SWAP2 SWAP1 PUSH2 0x390E JUMP JUMPDEST CALLVALUE DUP1 ISZERO PUSH2 0x52F JUMPI PUSH1 0x0 DUP1 REVERT JUMPDEST POP PUSH2 0x216 PUSH2 0x53E CALLDATASIZE PUSH1 0x4 PUSH2 0x38EC JUMP JUMPDEST PUSH1 0xC PUSH1 0x20 MSTORE PUSH1 0x0 SWAP1 DUP2 MSTORE PUSH1 0x40 SWAP1 KECCAK256 SLOAD PUSH1 0xFF AND DUP2 JUMP JUMPDEST CALLVALUE DUP1 ISZERO PUSH2 0x55F JUMPI PUSH1 0x0 DUP1 REVERT JUMPDEST POP PUSH2 0x240 PUSH2 0x21D4 JUMP JUMPDEST CALLVALUE DUP1 ISZERO PUSH2 0x574 JUMPI PUSH1 0x0 DUP1 REVERT JUMPDEST POP PUSH2 0x216 PUSH2 0x583 CALLDATASIZE PUSH1 0x4 PUSH2 0x3921 JUMP JUMPDEST PUSH2 0x26B5 JUMP JUMPDEST CALLVALUE DUP1 ISZERO PUSH2 0x594 JUMPI PUSH1 0x0 DUP1 REVERT JUMPDEST POP PUSH2 0x262 PUSH2 0x5A3 CALLDATASIZE PUSH1 0x4 PUSH2 0x3968 JUMP JUMPDEST PUSH2 0x2953 JUMP JUMPDEST CALLVALUE DUP1 ISZERO PUSH2 0x5B4 JUMPI PUSH1 0x0 DUP1 REVERT JUMPDEST POP PUSH2 0x262 PUSH2 0x5C3 CALLDATASIZE PUSH1 0x4 PUSH2 0x366B JUMP JUMPDEST PUSH2 0x29BA JUMP JUMPDEST CALLVALUE DUP1 ISZERO PUSH2 0x5D4 JUMPI PUSH1 0x0 DUP1 REVERT JUMPDEST POP PUSH2 0x5E8 PUSH2 0x5E3 CALLDATASIZE PUSH1 0x4 PUSH2 0x3427 JUMP JUMPDEST PUSH2 0x2BE7 JUMP JUMPDEST PUSH1 0x40 DUP1 MLOAD SWAP3 ISZERO ISZERO DUP4 MSTORE SWAP1 ISZERO ISZERO PUSH1 0x20 DUP4 ADD MSTORE ADD PUSH2 0x222 JUMP JUMPDEST CALLVALUE DUP1 ISZERO PUSH2 0x60B JUMPI PUSH1 0x0 DUP1 REVERT JUMPDEST POP PUSH2 0x632 PUSH2 0x61A CALLDATASIZE PUSH1 0x4 PUSH2 0x366B JUMP JUMPDEST POP PUSH1 0x40 DUP1 MLOAD DUP1 DUP3 ADD SWAP1 SWAP2 MSTORE PUSH1 0x0 DUP1 DUP3 MSTORE PUSH1 0x20 DUP3 ADD MSTORE SWAP1 JUMP JUMPDEST PUSH1 0x40 MLOAD PUSH2 0x222 SWAP2 SWAP1 PUSH2 0x399D JUMP JUMPDEST PUSH2 0x262 PUSH2 0x64D CALLDATASIZE PUSH1 0x4 PUSH2 0x39BD JUMP JUMPDEST PUSH2 0x2D3B JUMP JUMPDEST CALLVALUE DUP1 ISZERO PUSH2 0x65E JUMPI PUSH1 0x0 DUP1 REVERT JUMPDEST POP PUSH2 0x262 PUSH2 0x66D CALLDATASIZE PUSH1 0x4 PUSH2 0x38EC JUMP JUMPDEST PUSH2 0x3065 JUMP JUMPDEST PUSH1 0x60 PUSH1 0x0 PUSH1 0x1 JUMPDEST PUSH1 0x2 SLOAD DUP2 GT PUSH2 0x6FC JUMPI PUSH1 0x0 DUP2 DUP2 MSTORE PUSH1 0x7 PUSH1 0x20 MSTORE PUSH1 0x40 SWAP1 KECCAK256 SLOAD PUSH1 0xFF AND DUP1 ISZERO PUSH2 0x6B2 JUMPI POP PUSH1 0x0 DUP2 DUP2 MSTORE PUSH1 0x4 PUSH1 0x20 MSTORE PUSH1 0x40 SWAP1 KECCAK256 PUSH1 0x7 ADD SLOAD PUSH1 0xFF AND ISZERO JUMPDEST DUP1 ISZERO PUSH2 0x6D7 JUMPI POP PUSH1 0x0 DUP2 DUP2 MSTORE PUSH1 0x4 PUSH1 0x20 MSTORE PUSH1 0x40 SWAP1 KECCAK256 PUSH1 0x2 ADD SLOAD PUSH1 0x1 PUSH1 0x1 PUSH1 0xA0 SHL SUB AND CALLER EQ JUMPDEST ISZERO PUSH2 0x6EA JUMPI DUP2 PUSH2 0x6E6 DUP2 PUSH2 0x3A80 JUMP JUMPDEST SWAP3 POP POP JUMPDEST DUP1 PUSH2 0x6F4 DUP2 PUSH2 0x3A80 JUMP JUMPDEST SWAP2 POP POP PUSH2 0x679 JUMP JUMPDEST POP DUP1 PUSH8 0xFFFFFFFFFFFFFFFF DUP2 GT ISZERO PUSH2 0x716 JUMPI PUSH2 0x716 PUSH2 0x3746 JUMP JUMPDEST PUSH1 0x40 MLOAD SWAP1 DUP1 DUP3 MSTORE DUP1 PUSH1 0x20 MUL PUSH1 0x20 ADD DUP3 ADD PUSH1 0x40 MSTORE DUP1 ISZERO PUSH2 0x74F JUMPI DUP2 PUSH1 0x20 ADD JUMPDEST PUSH2 0x73C PUSH2 0x3263 JUMP JUMPDEST DUP2 MSTORE PUSH1 0x20 ADD SWAP1 PUSH1 0x1 SWAP1 SUB SWAP1 DUP2 PUSH2 0x734 JUMPI SWAP1 POP JUMPDEST POP SWAP2 POP PUSH1 0x0 PUSH1 0x1 JUMPDEST PUSH1 0x2 SLOAD DUP2 GT PUSH2 0xB46 JUMPI PUSH1 0x0 DUP2 DUP2 MSTORE PUSH1 0x7 PUSH1 0x20 MSTORE PUSH1 0x40 SWAP1 KECCAK256 SLOAD PUSH1 0xFF AND DUP1 ISZERO PUSH2 0x790 JUMPI POP PUSH1 0x0 DUP2 DUP2 MSTORE PUSH1 0x4 PUSH1 0x20 MSTORE PUSH1 0x40 SWAP1 KECCAK256 PUSH1 0x7 ADD SLOAD PUSH1 0xFF AND ISZERO JUMPDEST DUP1 ISZERO PUSH2 0x7B5 JUMPI POP PUSH1 0x0 DUP2 DUP2 MSTORE PUSH1 0x4 PUSH1 0x20 MSTORE PUSH1 0x40 SWAP1 KECCAK256 PUSH1 0x2 ADD SLOAD PUSH1 0x1 PUSH1 0x1 PUSH1 0xA0 SHL SUB AND CALLER EQ JUMPDEST ISZERO PUSH2 0xB34 JUMPI PUSH1 0x0 DUP2 DUP2 MSTORE PUSH1 0x4 PUSH1 0x20 SWAP1 DUP2 MSTORE PUSH1 0x40 SWAP2 DUP3 SWAP1 KECCAK256 DUP3 MLOAD PUSH2 0x1E0 DUP2 ADD DUP5 MSTORE DUP2 SLOAD DUP2 MSTORE PUSH1 0x1 DUP3 ADD SLOAD PUSH1 0x1 PUSH1 0x1 PUSH1 0xA0 SHL SUB SWAP1 DUP2 AND SWAP4 DUP3 ADD SWAP4 SWAP1 SWAP4 MSTORE PUSH1 0x2 DUP3 ADD SLOAD SWAP1 SWAP3 AND SWAP3 DUP3 ADD SWAP3 SWAP1 SWAP3 MSTORE PUSH1 0x3 DUP3 ADD DUP1 SLOAD SWAP2 SWAP3 SWAP2 PUSH1 0x60 DUP5 ADD SWAP2 SWAP1 PUSH2 0x817 SWAP1 PUSH2 0x3A9B JUMP JUMPDEST DUP1 PUSH1 0x1F ADD PUSH1 0x20 DUP1 SWAP2 DIV MUL PUSH1 0x20 ADD PUSH1 0x40 MLOAD SWAP1 DUP2 ADD PUSH1 0x40 MSTORE DUP1 SWAP3 SWAP2 SWAP1 DUP2 DUP2 MSTORE PUSH1 0x20 ADD DUP3 DUP1 SLOAD PUSH2 0x843 SWAP1 PUSH2 0x3A9B JUMP JUMPDEST DUP1 ISZERO PUSH2 0x890 JUMPI DUP1 PUSH1 0x1F LT PUSH2 0x865 JUMPI PUSH2 0x100 DUP1 DUP4 SLOAD DIV MUL DUP4 MSTORE SWAP2 PUSH1 0x20 ADD SWAP2 PUSH2 0x890 JUMP JUMPDEST DUP3 ADD SWAP2 SWAP1 PUSH1 0x0 MSTORE PUSH1 0x20 PUSH1 0x0 KECCAK256 SWAP1 JUMPDEST DUP2 SLOAD DUP2 MSTORE SWAP1 PUSH1 0x1 ADD SWAP1 PUSH1 0x20 ADD DUP1 DUP4 GT PUSH2 0x873 JUMPI DUP3 SWAP1 SUB PUSH1 0x1F AND DUP3 ADD SWAP2 JUMPDEST POP POP POP POP POP DUP2 MSTORE PUSH1 0x20 ADD PUSH1 0x4 DUP3 ADD DUP1 SLOAD PUSH2 0x8A9 SWAP1 PUSH2 0x3A9B JUMP JUMPDEST DUP1 PUSH1 0x1F ADD PUSH1 0x20 DUP1 SWAP2 DIV MUL PUSH1 0x20 ADD PUSH1 0x40 MLOAD SWAP1 DUP2 ADD PUSH1 0x40 MSTORE DUP1 SWAP3 SWAP2 SWAP1 DUP2 DUP2 MSTORE PUSH1 0x20 ADD DUP3 DUP1 SLOAD PUSH2 0x8D5 SWAP1 PUSH2 0x3A9B JUMP JUMPDEST DUP1 ISZERO PUSH2 0x922 JUMPI DUP1 PUSH1 0x1F LT PUSH2 0x8F7 JUMPI PUSH2 0x100 DUP1 DUP4 SLOAD DIV MUL DUP4 MSTORE SWAP2 PUSH1 0x20 ADD SWAP2 PUSH2 0x922 JUMP JUMPDEST DUP3 ADD SWAP2 SWAP1 PUSH1 0x0 MSTORE PUSH1 0x20 PUSH1 0x0 KECCAK256 SWAP1 JUMPDEST DUP2 SLOAD DUP2 MSTORE SWAP1 PUSH1 0x1 ADD SWAP1 PUSH1 0x20 ADD DUP1 DUP4 GT PUSH2 0x905 JUMPI DUP3 SWAP1 SUB PUSH1 0x1F AND DUP3 ADD SWAP2 JUMPDEST POP POP POP POP POP DUP2 MSTORE PUSH1 0x20 ADD PUSH1 0x5 DUP3 ADD DUP1 SLOAD PUSH2 0x93B SWAP1 PUSH2 0x3A9B JUMP JUMPDEST DUP1 PUSH1 0x1F ADD PUSH1 0x20 DUP1 SWAP2 DIV MUL PUSH1 0x20 ADD PUSH1 0x40 MLOAD SWAP1 DUP2 ADD PUSH1 0x40 MSTORE DUP1 SWAP3 SWAP2 SWAP1 DUP2 DUP2 MSTORE PUSH1 0x20 ADD DUP3 DUP1 SLOAD PUSH2 0x967 SWAP1 PUSH2 0x3A9B JUMP JUMPDEST DUP1 ISZERO PUSH2 0x9B4 JUMPI DUP1 PUSH1 0x1F LT PUSH2 0x989 JUMPI PUSH2 0x100 DUP1 DUP4 SLOAD DIV MUL DUP4 MSTORE SWAP2 PUSH1 0x20 ADD SWAP2 PUSH2 0x9B4 JUMP JUMPDEST DUP3 ADD SWAP2 SWAP1 PUSH1 0x0 MSTORE PUSH1 0x20 PUSH1 0x0 KECCAK256 SWAP1 JUMPDEST DUP2 SLOAD DUP2 MSTORE SWAP1 PUSH1 0x1 ADD SWAP1 PUSH1 0x20 ADD DUP1 DUP4 GT PUSH2 0x997 JUMPI DUP3 SWAP1 SUB PUSH1 0x1F AND DUP3 ADD SWAP2 JUMPDEST POP POP POP SWAP2 DUP4 MSTORE POP POP PUSH1 0x6 DUP3 ADD SLOAD PUSH1 0x20 DUP1 DUP4 ADD SWAP2 SWAP1 SWAP2 MSTORE PUSH1 0x7 DUP4 ADD SLOAD PUSH1 0xFF SWAP1 DUP2 AND ISZERO ISZERO PUSH1 0x40 DUP1 DUP6 ADD SWAP2 SWAP1 SWAP2 MSTORE PUSH1 0x8 DUP6 ADD SLOAD PUSH1 0x60 DUP6 ADD MSTORE PUSH1 0x9 DUP6 ADD SLOAD SWAP1 SWAP2 AND ISZERO ISZERO PUSH1 0x80 DUP5 ADD MSTORE PUSH1 0xA DUP5 ADD SLOAD PUSH1 0xA0 DUP5 ADD MSTORE PUSH1 0xB DUP5 ADD DUP1 SLOAD DUP3 MLOAD DUP2 DUP6 MUL DUP2 ADD DUP6 ADD SWAP1 SWAP4 MSTORE DUP1 DUP4 MSTORE PUSH1 0xC0 SWAP1 SWAP5 ADD SWAP4 SWAP2 SWAP3 SWAP1 SWAP2 SWAP1 DUP4 ADD DUP3 DUP3 DUP1 ISZERO PUSH2 0xA5B JUMPI PUSH1 0x20 MUL DUP3 ADD SWAP2 SWAP1 PUSH1 0x0 MSTORE PUSH1 0x20 PUSH1 0x0 KECCAK256 SWAP1 JUMPDEST DUP2 SLOAD PUSH1 0x1 PUSH1 0x1 PUSH1 0xA0 SHL SUB AND DUP2 MSTORE PUSH1 0x1 SWAP1 SWAP2 ADD SWAP1 PUSH1 0x20 ADD DUP1 DUP4 GT PUSH2 0xA3D JUMPI JUMPDEST POP POP POP POP POP DUP2 MSTORE PUSH1 0x20 ADD PUSH1 0xC DUP3 ADD DUP1 SLOAD PUSH2 0xA74 SWAP1 PUSH2 0x3A9B JUMP JUMPDEST DUP1 PUSH1 0x1F ADD PUSH1 0x20 DUP1 SWAP2 DIV MUL PUSH1 0x20 ADD PUSH1 0x40 MLOAD SWAP1 DUP2 ADD PUSH1 0x40 MSTORE DUP1 SWAP3 SWAP2 SWAP1 DUP2 DUP2 MSTORE PUSH1 0x20 ADD DUP3 DUP1 SLOAD PUSH2 0xAA0 SWAP1 PUSH2 0x3A9B JUMP JUMPDEST DUP1 ISZERO PUSH2 0xAED JUMPI DUP1 PUSH1 0x1F LT PUSH2 0xAC2 JUMPI PUSH2 0x100 DUP1 DUP4 SLOAD DIV MUL DUP4 MSTORE SWAP2 PUSH1 0x20 ADD SWAP2 PUSH2 0xAED JUMP JUMPDEST DUP3 ADD SWAP2 SWAP1 PUSH1 0x0 MSTORE PUSH1 0x20 PUSH1 0x0 KECCAK256 SWAP1 JUMPDEST DUP2 SLOAD DUP2 MSTORE SWAP1 PUSH1 0x1 ADD SWAP1 PUSH1 0x20 ADD DUP1 DUP4 GT PUSH2 0xAD0 JUMPI DUP3 SWAP1 SUB PUSH1 0x1F AND DUP3 ADD SWAP2 JUMPDEST POP POP POP POP POP DUP2 MSTORE PUSH1 0x20 ADD PUSH1 0xD DUP3 ADD SLOAD DUP2 MSTORE PUSH1 0x20 ADD PUSH1 0xE DUP3 ADD SLOAD DUP2 MSTORE POP POP DUP5 DUP4 DUP1 PUSH2 0xB16 SWAP1 PUSH2 0x3A80 JUMP JUMPDEST SWAP5 POP DUP2 MLOAD DUP2 LT PUSH2 0xB28 JUMPI PUSH2 0xB28 PUSH2 0x3AD6 JUMP JUMPDEST PUSH1 0x20 MUL PUSH1 0x20 ADD ADD DUP2 SWAP1 MSTORE POP JUMPDEST DUP1 PUSH2 0xB3E DUP2 PUSH2 0x3A80 JUMP JUMPDEST SWAP2 POP POP PUSH2 0x757 JUMP JUMPDEST POP POP POP SWAP1 JUMP JUMPDEST CALLER PUSH1 0x0 SWAP1 DUP2 MSTORE PUSH1 0xC PUSH1 0x20 MSTORE PUSH1 0x40 SWAP1 KECCAK256 SLOAD PUSH1 0xFF AND ISZERO PUSH2 0xB66 JUMPI JUMP JUMPDEST PUSH1 0x40 DUP1 MLOAD DUP1 DUP3 ADD DUP3 MSTORE PUSH1 0xA DUP1 SLOAD DUP3 MSTORE CALLER PUSH1 0x20 DUP1 DUP5 ADD DUP3 DUP2 MSTORE PUSH1 0x0 SWAP3 DUP4 MSTORE PUSH1 0xB DUP3 MSTORE DUP6 DUP4 KECCAK256 SWAP5 MLOAD DUP6 SSTORE MLOAD PUSH1 0x1 SWAP5 DUP6 ADD DUP1 SLOAD PUSH1 0x1 PUSH1 0x1 PUSH1 0xA0 SHL SUB NOT AND PUSH1 0x1 PUSH1 0x1 PUSH1 0xA0 SHL SUB SWAP1 SWAP3 AND SWAP2 SWAP1 SWAP2 OR SWAP1 SSTORE PUSH1 0xC SWAP1 MSTORE SWAP3 DUP4 KECCAK256 DUP1 SLOAD PUSH1 0xFF NOT AND SWAP1 SWAP3 OR SWAP1 SWAP2 SSTORE DUP1 SLOAD SWAP2 PUSH2 0xBD0 DUP4 PUSH2 0x3A80 JUMP JUMPDEST SWAP2 SWAP1 POP SSTORE POP JUMP JUMPDEST PUSH1 0x60 PUSH1 0x5 PUSH1 0x0 DUP4 DUP2 MSTORE PUSH1 0x20 ADD SWAP1 DUP2 MSTORE PUSH1 0x20 ADD PUSH1 0x0 KECCAK256 DUP1 SLOAD DUP1 PUSH1 0x20 MUL PUSH1 0x20 ADD PUSH1 0x40 MLOAD SWAP1 DUP2 ADD PUSH1 0x40 MSTORE DUP1 SWAP3 SWAP2 SWAP1 DUP2 DUP2 MSTORE PUSH1 0x20 ADD PUSH1 0x0 SWAP1 JUMPDEST DUP3 DUP3 LT ISZERO PUSH2 0xC54 JUMPI PUSH1 0x0 DUP5 DUP2 MSTORE PUSH1 0x20 SWAP1 DUP2 SWAP1 KECCAK256 PUSH1 0x40 DUP1 MLOAD DUP1 DUP3 ADD SWAP1 SWAP2 MSTORE PUSH1 0x2 DUP6 MUL SWAP1 SWAP2 ADD DUP1 SLOAD DUP3 MSTORE PUSH1 0x1 SWAP1 DUP2 ADD SLOAD PUSH1 0x1 PUSH1 0x1 PUSH1 0xA0 SHL SUB AND DUP3 DUP5 ADD MSTORE SWAP1 DUP4 MSTORE SWAP1 SWAP3 ADD SWAP2 ADD PUSH2 0xC0C JUMP JUMPDEST POP POP POP POP SWAP1 POP SWAP2 SWAP1 POP JUMP JUMPDEST PUSH1 0x0 DUP2 DUP2 MSTORE PUSH1 0x4 PUSH1 0x20 MSTORE PUSH1 0x40 SWAP1 KECCAK256 PUSH1 0x9 ADD SLOAD PUSH1 0x60 SWAP1 PUSH1 0xFF AND DUP1 ISZERO PUSH2 0xC91 JUMPI POP PUSH1 0x0 DUP3 DUP2 MSTORE PUSH1 0x7 PUSH1 0x20 MSTORE PUSH1 0x40 SWAP1 KECCAK256 SLOAD PUSH1 0xFF AND JUMPDEST ISZERO PUSH2 0xD27 JUMPI PUSH1 0x0 DUP3 DUP2 MSTORE PUSH1 0x6 PUSH1 0x20 SWAP1 DUP2 MSTORE PUSH1 0x40 DUP1 DUP4 KECCAK256 DUP1 SLOAD DUP3 MLOAD DUP2 DUP6 MUL DUP2 ADD DUP6 ADD SWAP1 SWAP4 MSTORE DUP1 DUP4 MSTORE SWAP2 SWAP4 SWAP1 SWAP3 DUP5 ADD JUMPDEST DUP3 DUP3 LT ISZERO PUSH2 0xC54 JUMPI PUSH1 0x0 DUP5 DUP2 MSTORE PUSH1 0x20 SWAP1 DUP2 SWAP1 KECCAK256 PUSH1 0x40 DUP1 MLOAD PUSH1 0x80 DUP2 ADD DUP3 MSTORE PUSH1 0x3 DUP7 MUL SWAP1 SWAP3 ADD DUP1 SLOAD DUP4 MSTORE PUSH1 0x1 DUP1 DUP3 ADD SLOAD DUP5 DUP7 ADD MSTORE PUSH1 0x2 SWAP1 SWAP2 ADD SLOAD PUSH1 0x1 PUSH1 0x1 PUSH1 0xA0 SHL SUB DUP2 AND SWAP3 DUP5 ADD SWAP3 SWAP1 SWAP3 MSTORE PUSH1 0x1 PUSH1 0xA0 SHL SWAP1 SWAP2 DIV PUSH1 0xFF AND ISZERO ISZERO PUSH1 0x60 DUP4 ADD MSTORE SWAP1 DUP4 MSTORE SWAP1 SWAP3 ADD SWAP2 ADD PUSH2 0xCBF JUMP JUMPDEST PUSH1 0x40 DUP1 MLOAD PUSH1 0x0 DUP1 DUP3 MSTORE PUSH1 0x20 DUP3 ADD SWAP1 SWAP3 MSTORE SWAP1 PUSH2 0xD58 JUMP JUMPDEST PUSH2 0xD45 PUSH2 0x32EF JUMP JUMPDEST DUP2 MSTORE PUSH1 0x20 ADD SWAP1 PUSH1 0x1 SWAP1 SUB SWAP1 DUP2 PUSH2 0xD3D JUMPI SWAP1 POP JUMPDEST POP SWAP1 POP JUMPDEST SWAP2 SWAP1 POP JUMP JUMPDEST PUSH1 0x0 DUP6 DUP2 MSTORE PUSH1 0x7 PUSH1 0x20 MSTORE PUSH1 0x40 SWAP1 KECCAK256 SLOAD PUSH1 0xFF AND PUSH2 0xD98 JUMPI PUSH1 0x40 MLOAD PUSH3 0x461BCD PUSH1 0xE5 SHL DUP2 MSTORE PUSH1 0x4 ADD PUSH2 0xD8F SWAP1 PUSH2 0x3AEC JUMP JUMPDEST PUSH1 0x40 MLOAD DUP1 SWAP2 SUB SWAP1 REVERT JUMPDEST PUSH1 0x0 DUP6 DUP2 MSTORE PUSH1 0x4 PUSH1 0x20 MSTORE PUSH1 0x40 SWAP1 KECCAK256 PUSH1 0x9 ADD SLOAD PUSH1 0xFF AND PUSH2 0xDF3 JUMPI PUSH1 0x40 MLOAD PUSH3 0x461BCD PUSH1 0xE5 SHL DUP2 MSTORE PUSH1 0x20 PUSH1 0x4 DUP3 ADD MSTORE PUSH1 0x17 PUSH1 0x24 DUP3 ADD MSTORE PUSH23 0x2A3434B9903537B1103430B9903132B2B7103A30B5B2B7 PUSH1 0x49 SHL PUSH1 0x44 DUP3 ADD MSTORE PUSH1 0x64 ADD PUSH2 0xD8F JUMP JUMPDEST PUSH1 0x0 DUP6 DUP2 MSTORE PUSH1 0x4 PUSH1 0x20 MSTORE PUSH1 0x40 SWAP1 KECCAK256 PUSH1 0x7 ADD SLOAD PUSH1 0xFF AND ISZERO PUSH2 0xE25 JUMPI PUSH1 0x40 MLOAD PUSH3 0x461BCD PUSH1 0xE5 SHL DUP2 MSTORE PUSH1 0x4 ADD PUSH2 0xD8F SWAP1 PUSH2 0x3B23 JUMP JUMPDEST PUSH1 0x0 DUP6 DUP2 MSTORE PUSH1 0x4 PUSH1 0x20 SWAP1 DUP2 MSTORE PUSH1 0x40 SWAP1 SWAP2 KECCAK256 DUP6 MLOAD PUSH2 0xE4A SWAP3 PUSH1 0x3 SWAP1 SWAP3 ADD SWAP2 DUP8 ADD SWAP1 PUSH2 0x3322 JUMP JUMPDEST POP PUSH1 0x0 DUP6 DUP2 MSTORE PUSH1 0x4 PUSH1 0x20 DUP2 DUP2 MSTORE PUSH1 0x40 SWAP1 SWAP3 KECCAK256 DUP6 MLOAD PUSH2 0xE70 SWAP4 SWAP2 SWAP1 SWAP3 ADD SWAP2 SWAP1 DUP7 ADD SWAP1 PUSH2 0x3322 JUMP JUMPDEST POP PUSH1 0x0 DUP6 DUP2 MSTORE PUSH1 0x4 PUSH1 0x20 SWAP1 DUP2 MSTORE PUSH1 0x40 SWAP1 SWAP2 KECCAK256 DUP4 MLOAD PUSH2 0xE96 SWAP3 PUSH1 0x5 SWAP1 SWAP3 ADD SWAP2 DUP6 ADD SWAP1 PUSH2 0x3322 JUMP JUMPDEST POP PUSH1 0x0 DUP6 DUP2 MSTORE PUSH1 0x4 PUSH1 0x20 SWAP1 DUP2 MSTORE PUSH1 0x40 SWAP1 SWAP2 KECCAK256 DUP3 MLOAD PUSH2 0xEBC SWAP3 PUSH1 0xC SWAP1 SWAP3 ADD SWAP2 DUP5 ADD SWAP1 PUSH2 0x3322 JUMP JUMPDEST POP POP POP POP POP POP JUMP JUMPDEST PUSH1 0x0 DUP2 DUP2 MSTORE PUSH1 0x7 PUSH1 0x20 MSTORE PUSH1 0x40 SWAP1 KECCAK256 SLOAD PUSH1 0xFF AND PUSH2 0xEF2 JUMPI PUSH1 0x40 MLOAD PUSH3 0x461BCD PUSH1 0xE5 SHL DUP2 MSTORE PUSH1 0x4 ADD PUSH2 0xD8F SWAP1 PUSH2 0x3AEC JUMP JUMPDEST PUSH1 0x0 DUP2 DUP2 MSTORE PUSH1 0x4 PUSH1 0x20 MSTORE PUSH1 0x40 SWAP1 KECCAK256 PUSH1 0x9 ADD SLOAD PUSH1 0xFF AND PUSH2 0xF4D JUMPI PUSH1 0x40 MLOAD PUSH3 0x461BCD PUSH1 0xE5 SHL DUP2 MSTORE PUSH1 0x20 PUSH1 0x4 DUP3 ADD MSTORE PUSH1 0x17 PUSH1 0x24 DUP3 ADD MSTORE PUSH23 0x2A3434B9903537B1103430B9903132B2B7103A30B5B2B7 PUSH1 0x49 SHL PUSH1 0x44 DUP3 ADD MSTORE PUSH1 0x64 ADD PUSH2 0xD8F JUMP JUMPDEST PUSH1 0x0 DUP2 DUP2 MSTORE PUSH1 0x4 PUSH1 0x20 MSTORE PUSH1 0x40 SWAP1 KECCAK256 PUSH1 0x7 ADD SLOAD PUSH1 0xFF AND ISZERO PUSH2 0xF7F JUMPI PUSH1 0x40 MLOAD PUSH3 0x461BCD PUSH1 0xE5 SHL DUP2 MSTORE PUSH1 0x4 ADD PUSH2 0xD8F SWAP1 PUSH2 0x3B23 JUMP JUMPDEST PUSH1 0x0 DUP2 DUP2 MSTORE PUSH1 0x7 PUSH1 0x20 SWAP1 DUP2 MSTORE PUSH1 0x40 DUP1 DUP4 KECCAK256 DUP1 SLOAD PUSH1 0xFF NOT AND SWAP1 SSTORE PUSH1 0x4 SWAP1 SWAP2 MSTORE SWAP1 KECCAK256 PUSH1 0x1 DUP2 ADD SLOAD PUSH1 0x6 SWAP1 SWAP2 ADD SLOAD PUSH2 0xFBD SWAP2 PUSH1 0x1 PUSH1 0x1 PUSH1 0xA0 SHL SUB AND SWAP1 PUSH2 0x30DB JUMP JUMPDEST POP JUMP JUMPDEST PUSH1 0x60 PUSH1 0x0 DUP1 PUSH1 0x1 JUMPDEST PUSH1 0x2 SLOAD DUP2 GT PUSH2 0x1043 JUMPI PUSH1 0x0 DUP2 DUP2 MSTORE PUSH1 0x7 PUSH1 0x20 MSTORE PUSH1 0x40 SWAP1 KECCAK256 SLOAD PUSH1 0xFF AND DUP1 ISZERO PUSH2 0x1000 JUMPI POP PUSH1 0x0 DUP2 DUP2 MSTORE PUSH1 0x4 PUSH1 0x20 MSTORE PUSH1 0x40 SWAP1 KECCAK256 PUSH1 0x9 ADD SLOAD PUSH1 0xFF AND JUMPDEST DUP1 ISZERO PUSH2 0x101E JUMPI POP PUSH1 0x0 DUP2 DUP2 MSTORE PUSH1 0x4 PUSH1 0x20 MSTORE PUSH1 0x40 SWAP1 KECCAK256 PUSH1 0x7 ADD SLOAD PUSH1 0xFF AND ISZERO JUMPDEST ISZERO PUSH2 0x1031 JUMPI DUP3 PUSH2 0x102D DUP2 PUSH2 0x3A80 JUMP JUMPDEST SWAP4 POP POP JUMPDEST DUP1 PUSH2 0x103B DUP2 PUSH2 0x3A80 JUMP JUMPDEST SWAP2 POP POP PUSH2 0xFC8 JUMP JUMPDEST POP DUP2 PUSH8 0xFFFFFFFFFFFFFFFF DUP2 GT ISZERO PUSH2 0x105D JUMPI PUSH2 0x105D PUSH2 0x3746 JUMP JUMPDEST PUSH1 0x40 MLOAD SWAP1 DUP1 DUP3 MSTORE DUP1 PUSH1 0x20 MUL PUSH1 0x20 ADD DUP3 ADD PUSH1 0x40 MSTORE DUP1 ISZERO PUSH2 0x1096 JUMPI DUP2 PUSH1 0x20 ADD JUMPDEST PUSH2 0x1083 PUSH2 0x3263 JUMP JUMPDEST DUP2 MSTORE PUSH1 0x20 ADD SWAP1 PUSH1 0x1 SWAP1 SUB SWAP1 DUP2 PUSH2 0x107B JUMPI SWAP1 POP JUMPDEST POP SWAP3 POP PUSH1 0x1 JUMPDEST PUSH1 0x2 SLOAD DUP2 GT PUSH2 0xB46 JUMPI PUSH1 0x0 DUP2 DUP2 MSTORE PUSH1 0x7 PUSH1 0x20 MSTORE PUSH1 0x40 SWAP1 KECCAK256 SLOAD PUSH1 0xFF AND DUP1 ISZERO PUSH2 0x10D4 JUMPI POP PUSH1 0x0 DUP2 DUP2 MSTORE PUSH1 0x4 PUSH1 0x20 MSTORE PUSH1 0x40 SWAP1 KECCAK256 PUSH1 0x9 ADD SLOAD PUSH1 0xFF AND JUMPDEST DUP1 ISZERO PUSH2 0x10F2 JUMPI POP PUSH1 0x0 DUP2 DUP2 MSTORE PUSH1 0x4 PUSH1 0x20 MSTORE PUSH1 0x40 SWAP1 KECCAK256 PUSH1 0x7 ADD SLOAD PUSH1 0xFF AND ISZERO JUMPDEST ISZERO PUSH2 0x1471 JUMPI PUSH1 0x0 DUP2 DUP2 MSTORE PUSH1 0x4 PUSH1 0x20 SWAP1 DUP2 MSTORE PUSH1 0x40 SWAP2 DUP3 SWAP1 KECCAK256 DUP3 MLOAD PUSH2 0x1E0 DUP2 ADD DUP5 MSTORE DUP2 SLOAD DUP2 MSTORE PUSH1 0x1 DUP3 ADD SLOAD PUSH1 0x1 PUSH1 0x1 PUSH1 0xA0 SHL SUB SWAP1 DUP2 AND SWAP4 DUP3 ADD SWAP4 SWAP1 SWAP4 MSTORE PUSH1 0x2 DUP3 ADD SLOAD SWAP1 SWAP3 AND SWAP3 DUP3 ADD SWAP3 SWAP1 SWAP3 MSTORE PUSH1 0x3 DUP3 ADD DUP1 SLOAD SWAP2 SWAP3 SWAP2 PUSH1 0x60 DUP5 ADD SWAP2 SWAP1 PUSH2 0x1154 SWAP1 PUSH2 0x3A9B JUMP JUMPDEST DUP1 PUSH1 0x1F ADD PUSH1 0x20 DUP1 SWAP2 DIV MUL PUSH1 0x20 ADD PUSH1 0x40 MLOAD SWAP1 DUP2 ADD PUSH1 0x40 MSTORE DUP1 SWAP3 SWAP2 SWAP1 DUP2 DUP2 MSTORE PUSH1 0x20 ADD DUP3 DUP1 SLOAD PUSH2 0x1180 SWAP1 PUSH2 0x3A9B JUMP JUMPDEST DUP1 ISZERO PUSH2 0x11CD JUMPI DUP1 PUSH1 0x1F LT PUSH2 0x11A2 JUMPI PUSH2 0x100 DUP1 DUP4 SLOAD DIV MUL DUP4 MSTORE SWAP2 PUSH1 0x20 ADD SWAP2 PUSH2 0x11CD JUMP JUMPDEST DUP3 ADD SWAP2 SWAP1 PUSH1 0x0 MSTORE PUSH1 0x20 PUSH1 0x0 KECCAK256 SWAP1 JUMPDEST DUP2 SLOAD DUP2 MSTORE SWAP1 PUSH1 0x1 ADD SWAP1 PUSH1 0x20 ADD DUP1 DUP4 GT PUSH2 0x11B0 JUMPI DUP3 SWAP1 SUB PUSH1 0x1F AND DUP3 ADD SWAP2 JUMPDEST POP POP POP POP POP DUP2 MSTORE PUSH1 0x20 ADD PUSH1 0x4 DUP3 ADD DUP1 SLOAD PUSH2 0x11E6 SWAP1 PUSH2 0x3A9B JUMP JUMPDEST DUP1 PUSH1 0x1F ADD PUSH1 0x20 DUP1 SWAP2 DIV MUL PUSH1 0x20 ADD PUSH1 0x40 MLOAD SWAP1 DUP2 ADD PUSH1 0x40 MSTORE DUP1 SWAP3 SWAP2 SWAP1 DUP2 DUP2 MSTORE PUSH1 0x20 ADD DUP3 DUP1 SLOAD PUSH2 0x1212 SWAP1 PUSH2 0x3A9B JUMP JUMPDEST DUP1 ISZERO PUSH2 0x125F JUMPI DUP1 PUSH1 0x1F LT PUSH2 0x1234 JUMPI PUSH2 0x100 DUP1 DUP4 SLOAD DIV MUL DUP4 MSTORE SWAP2 PUSH1 0x20 ADD SWAP2 PUSH2 0x125F JUMP JUMPDEST DUP3 ADD SWAP2 SWAP1 PUSH1 0x0 MSTORE PUSH1 0x20 PUSH1 0x0 KECCAK256 SWAP1 JUMPDEST DUP2 SLOAD DUP2 MSTORE SWAP1 PUSH1 0x1 ADD SWAP1 PUSH1 0x20 ADD DUP1 DUP4 GT PUSH2 0x1242 JUMPI DUP3 SWAP1 SUB PUSH1 0x1F AND DUP3 ADD SWAP2 JUMPDEST POP POP POP POP POP DUP2 MSTORE PUSH1 0x20 ADD PUSH1 0x5 DUP3 ADD DUP1 SLOAD PUSH2 0x1278 SWAP1 PUSH2 0x3A9B JUMP JUMPDEST DUP1 PUSH1 0x1F ADD PUSH1 0x20 DUP1 SWAP2 DIV MUL PUSH1 0x20 ADD PUSH1 0x40 MLOAD SWAP1 DUP2 ADD PUSH1 0x40 MSTORE DUP1 SWAP3 SWAP2 SWAP1 DUP2 DUP2 MSTORE PUSH1 0x20 ADD DUP3 DUP1 SLOAD PUSH2 0x12A4 SWAP1 PUSH2 0x3A9B JUMP JUMPDEST DUP1 ISZERO PUSH2 0x12F1 JUMPI DUP1 PUSH1 0x1F LT PUSH2 0x12C6 JUMPI PUSH2 0x100 DUP1 DUP4 SLOAD DIV MUL DUP4 MSTORE SWAP2 PUSH1 0x20 ADD SWAP2 PUSH2 0x12F1 JUMP JUMPDEST DUP3 ADD SWAP2 SWAP1 PUSH1 0x0 MSTORE PUSH1 0x20 PUSH1 0x0 KECCAK256 SWAP1 JUMPDEST DUP2 SLOAD DUP2 MSTORE SWAP1 PUSH1 0x1 ADD SWAP1 PUSH1 0x20 ADD DUP1 DUP4 GT PUSH2 0x12D4 JUMPI DUP3 SWAP1 SUB PUSH1 0x1F AND DUP3 ADD SWAP2 JUMPDEST POP POP POP SWAP2 DUP4 MSTORE POP POP PUSH1 0x6 DUP3 ADD SLOAD PUSH1 0x20 DUP1 DUP4 ADD SWAP2 SWAP1 SWAP2 MSTORE PUSH1 0x7 DUP4 ADD SLOAD PUSH1 0xFF SWAP1 DUP2 AND ISZERO ISZERO PUSH1 0x40 DUP1 DUP6 ADD SWAP2 SWAP1 SWAP2 MSTORE PUSH1 0x8 DUP6 ADD SLOAD PUSH1 0x60 DUP6 ADD MSTORE PUSH1 0x9 DUP6 ADD SLOAD SWAP1 SWAP2 AND ISZERO ISZERO PUSH1 0x80 DUP5 ADD MSTORE PUSH1 0xA DUP5 ADD SLOAD PUSH1 0xA0 DUP5 ADD MSTORE PUSH1 0xB DUP5 ADD DUP1 SLOAD DUP3 MLOAD DUP2 DUP6 MUL DUP2 ADD DUP6 ADD SWAP1 SWAP4 MSTORE DUP1 DUP4 MSTORE PUSH1 0xC0 SWAP1 SWAP5 ADD SWAP4 SWAP2 SWAP3 SWAP1 SWAP2 SWAP1 DUP4 ADD DUP3 DUP3 DUP1 ISZERO PUSH2 0x1398 JUMPI PUSH1 0x20 MUL DUP3 ADD SWAP2 SWAP1 PUSH1 0x0 MSTORE PUSH1 0x20 PUSH1 0x0 KECCAK256 SWAP1 JUMPDEST DUP2 SLOAD PUSH1 0x1 PUSH1 0x1 PUSH1 0xA0 SHL SUB AND DUP2 MSTORE PUSH1 0x1 SWAP1 SWAP2 ADD SWAP1 PUSH1 0x20 ADD DUP1 DUP4 GT PUSH2 0x137A JUMPI JUMPDEST POP POP POP POP POP DUP2 MSTORE PUSH1 0x20 ADD PUSH1 0xC DUP3 ADD DUP1 SLOAD PUSH2 0x13B1 SWAP1 PUSH2 0x3A9B JUMP JUMPDEST DUP1 PUSH1 0x1F ADD PUSH1 0x20 DUP1 SWAP2 DIV MUL PUSH1 0x20 ADD PUSH1 0x40 MLOAD SWAP1 DUP2 ADD PUSH1 0x40 MSTORE DUP1 SWAP3 SWAP2 SWAP1 DUP2 DUP2 MSTORE PUSH1 0x20 ADD DUP3 DUP1 SLOAD PUSH2 0x13DD SWAP1 PUSH2 0x3A9B JUMP JUMPDEST DUP1 ISZERO PUSH2 0x142A JUMPI DUP1 PUSH1 0x1F LT PUSH2 0x13FF JUMPI PUSH2 0x100 DUP1 DUP4 SLOAD DIV MUL DUP4 MSTORE SWAP2 PUSH1 0x20 ADD SWAP2 PUSH2 0x142A JUMP JUMPDEST DUP3 ADD SWAP2 SWAP1 PUSH1 0x0 MSTORE PUSH1 0x20 PUSH1 0x0 KECCAK256 SWAP1 JUMPDEST DUP2 SLOAD DUP2 MSTORE SWAP1 PUSH1 0x1 ADD SWAP1 PUSH1 0x20 ADD DUP1 DUP4 GT PUSH2 0x140D JUMPI DUP3 SWAP1 SUB PUSH1 0x1F AND DUP3 ADD SWAP2 JUMPDEST POP POP POP POP POP DUP2 MSTORE PUSH1 0x20 ADD PUSH1 0xD DUP3 ADD SLOAD DUP2 MSTORE PUSH1 0x20 ADD PUSH1 0xE DUP3 ADD SLOAD DUP2 MSTORE POP POP DUP5 DUP4 DUP1 PUSH2 0x1453 SWAP1 PUSH2 0x3A80 JUMP JUMPDEST SWAP5 POP DUP2 MLOAD DUP2 LT PUSH2 0x1465 JUMPI PUSH2 0x1465 PUSH2 0x3AD6 JUMP JUMPDEST PUSH1 0x20 MUL PUSH1 0x20 ADD ADD DUP2 SWAP1 MSTORE POP JUMPDEST DUP1 PUSH2 0x147B DUP2 PUSH2 0x3A80 JUMP JUMPDEST SWAP2 POP POP PUSH2 0x109C JUMP JUMPDEST PUSH2 0x148B PUSH2 0x3140 JUMP JUMPDEST PUSH2 0x1495 PUSH1 0x0 PUSH2 0x319A JUMP JUMPDEST JUMP JUMPDEST PUSH1 0x0 DUP3 DUP2 MSTORE PUSH1 0x7 PUSH1 0x20 MSTORE PUSH1 0x40 SWAP1 KECCAK256 SLOAD PUSH1 0xFF AND PUSH2 0x14C5 JUMPI PUSH1 0x40 MLOAD PUSH3 0x461BCD PUSH1 0xE5 SHL DUP2 MSTORE PUSH1 0x4 ADD PUSH2 0xD8F SWAP1 PUSH2 0x3AEC JUMP JUMPDEST PUSH1 0x0 DUP3 DUP2 MSTORE PUSH1 0x4 PUSH1 0x20 MSTORE PUSH1 0x40 SWAP1 KECCAK256 PUSH1 0xA ADD SLOAD PUSH2 0x1523 JUMPI PUSH1 0x40 MLOAD PUSH3 0x461BCD PUSH1 0xE5 SHL DUP2 MSTORE PUSH1 0x20 PUSH1 0x4 DUP3 ADD MSTORE PUSH1 0x1B PUSH1 0x24 DUP3 ADD MSTORE PUSH32 0x54686973206A6F62206D757374206265206F6E20646973707574650000000000 PUSH1 0x44 DUP3 ADD MSTORE PUSH1 0x64 ADD PUSH2 0xD8F JUMP JUMPDEST PUSH1 0x0 DUP3 DUP2 MSTORE PUSH1 0x4 PUSH1 0x20 MSTORE PUSH1 0x40 SWAP1 KECCAK256 PUSH1 0x7 ADD SLOAD PUSH1 0xFF AND ISZERO PUSH2 0x1555 JUMPI PUSH1 0x40 MLOAD PUSH3 0x461BCD PUSH1 0xE5 SHL DUP2 MSTORE PUSH1 0x4 ADD PUSH2 0xD8F SWAP1 PUSH2 0x3B23 JUMP JUMPDEST POP PUSH1 0x0 SWAP1 DUP2 MSTORE PUSH1 0x4 PUSH1 0x20 MSTORE PUSH1 0x40 DUP2 KECCAK256 PUSH1 0xA ADD SSTORE JUMP JUMPDEST PUSH1 0x0 DUP2 DUP2 MSTORE PUSH1 0x7 PUSH1 0x20 MSTORE PUSH1 0x40 SWAP1 KECCAK256 SLOAD PUSH1 0xFF AND PUSH2 0x1598 JUMPI PUSH1 0x40 MLOAD PUSH3 0x461BCD PUSH1 0xE5 SHL DUP2 MSTORE PUSH1 0x4 ADD PUSH2 0xD8F SWAP1 PUSH2 0x3AEC JUMP JUMPDEST PUSH1 0x0 DUP2 DUP2 MSTORE PUSH1 0x4 PUSH1 0x20 MSTORE PUSH1 0x40 SWAP1 KECCAK256 PUSH1 0xD ADD SLOAD TIMESTAMP GT PUSH2 0x15F0 JUMPI PUSH1 0x40 MLOAD PUSH3 0x461BCD PUSH1 0xE5 SHL DUP2 MSTORE PUSH1 0x20 PUSH1 0x4 DUP3 ADD MSTORE PUSH1 0x15 PUSH1 0x24 DUP3 ADD MSTORE PUSH21 0x105B9CDDD95C881D1A5B59481B9BDD08195B991959 PUSH1 0x5A SHL PUSH1 0x44 DUP3 ADD MSTORE PUSH1 0x64 ADD PUSH2 0xD8F JUMP JUMPDEST PUSH1 0x0 DUP2 DUP2 MSTORE PUSH1 0x4 PUSH1 0x20 MSTORE PUSH1 0x40 SWAP1 KECCAK256 PUSH1 0xE ADD SLOAD TIMESTAMP LT PUSH2 0x1644 JUMPI PUSH1 0x40 MLOAD PUSH3 0x461BCD PUSH1 0xE5 SHL DUP2 MSTORE PUSH1 0x20 PUSH1 0x4 DUP3 ADD MSTORE PUSH1 0x11 PUSH1 0x24 DUP3 ADD MSTORE PUSH17 0x14995D9A595DC81D1A5B5948195B991959 PUSH1 0x7A SHL PUSH1 0x44 DUP3 ADD MSTORE PUSH1 0x64 ADD PUSH2 0xD8F JUMP JUMPDEST PUSH1 0x0 DUP2 DUP2 MSTORE PUSH1 0x4 PUSH1 0x20 MSTORE PUSH1 0x40 DUP2 KECCAK256 PUSH1 0xA ADD DUP1 SLOAD PUSH1 0x1 SWAP3 SWAP1 PUSH2 0x1666 SWAP1 DUP5 SWAP1 PUSH2 0x3B5A JUMP JUMPDEST SWAP1 SWAP2 SSTORE POP POP POP JUMP JUMPDEST PUSH1 0x9 PUSH1 0x20 MSTORE DUP2 PUSH1 0x0 MSTORE PUSH1 0x40 PUSH1 0x0 KECCAK256 DUP2 DUP2 SLOAD DUP2 LT PUSH2 0x168A JUMPI PUSH1 0x0 DUP1 REVERT JUMPDEST SWAP1 PUSH1 0x0 MSTORE PUSH1 0x20 PUSH1 0x0 KECCAK256 ADD PUSH1 0x0 SWAP2 POP SWAP2 POP POP SLOAD DUP2 JUMP JUMPDEST PUSH1 0x60 PUSH1 0x0 PUSH2 0x16AC PUSH1 0x2 SLOAD SWAP1 JUMP JUMPDEST PUSH8 0xFFFFFFFFFFFFFFFF DUP2 GT ISZERO PUSH2 0x16C4 JUMPI PUSH2 0x16C4 PUSH2 0x3746 JUMP JUMPDEST PUSH1 0x40 MLOAD SWAP1 DUP1 DUP3 MSTORE DUP1 PUSH1 0x20 MUL PUSH1 0x20 ADD DUP3 ADD PUSH1 0x40 MSTORE DUP1 ISZERO PUSH2 0x16FD JUMPI DUP2 PUSH1 0x20 ADD JUMPDEST PUSH2 0x16EA PUSH2 0x32EF JUMP JUMPDEST DUP2 MSTORE PUSH1 0x20 ADD SWAP1 PUSH1 0x1 SWAP1 SUB SWAP1 DUP2 PUSH2 0x16E2 JUMPI SWAP1 POP JUMPDEST POP SWAP1 POP PUSH1 0x0 PUSH1 0x1 JUMPDEST PUSH1 0x2 SLOAD DUP2 GT PUSH2 0x1871 JUMPI PUSH1 0x0 DUP2 DUP2 MSTORE PUSH1 0x7 PUSH1 0x20 MSTORE PUSH1 0x40 SWAP1 KECCAK256 SLOAD PUSH1 0xFF AND ISZERO PUSH2 0x185F JUMPI PUSH1 0x0 DUP2 DUP2 MSTORE PUSH1 0x8 PUSH1 0x20 SWAP1 DUP2 MSTORE PUSH1 0x40 DUP1 DUP4 KECCAK256 CALLER DUP5 MSTORE SWAP1 SWAP2 MSTORE SWAP1 KECCAK256 SLOAD PUSH1 0xFF AND ISZERO PUSH2 0x185F JUMPI PUSH1 0x0 JUMPDEST PUSH1 0x0 DUP3 DUP2 MSTORE PUSH1 0x6 PUSH1 0x20 MSTORE PUSH1 0x40 SWAP1 KECCAK256 SLOAD DUP2 LT ISZERO PUSH2 0x185D JUMPI PUSH1 0x0 DUP3 DUP2 MSTORE PUSH1 0x6 PUSH1 0x20 MSTORE PUSH1 0x40 SWAP1 KECCAK256 DUP1 SLOAD CALLER SWAP2 SWAP1 DUP4 SWAP1 DUP2 LT PUSH2 0x1783 JUMPI PUSH2 0x1783 PUSH2 0x3AD6 JUMP JUMPDEST PUSH1 0x0 SWAP2 DUP3 MSTORE PUSH1 0x20 SWAP1 SWAP2 KECCAK256 PUSH1 0x2 PUSH1 0x3 SWAP1 SWAP3 MUL ADD ADD SLOAD PUSH1 0x1 PUSH1 0x1 PUSH1 0xA0 SHL SUB AND EQ ISZERO PUSH2 0x184B JUMPI PUSH1 0x0 DUP3 DUP2 MSTORE PUSH1 0x6 PUSH1 0x20 MSTORE PUSH1 0x40 SWAP1 KECCAK256 DUP1 SLOAD DUP3 SWAP1 DUP2 LT PUSH2 0x17C6 JUMPI PUSH2 0x17C6 PUSH2 0x3AD6 JUMP JUMPDEST PUSH1 0x0 SWAP2 DUP3 MSTORE PUSH1 0x20 SWAP2 DUP3 SWAP1 KECCAK256 PUSH1 0x40 DUP1 MLOAD PUSH1 0x80 DUP2 ADD DUP3 MSTORE PUSH1 0x3 SWAP4 SWAP1 SWAP4 MUL SWAP1 SWAP2 ADD DUP1 SLOAD DUP4 MSTORE PUSH1 0x1 DUP2 ADD SLOAD SWAP4 DUP4 ADD SWAP4 SWAP1 SWAP4 MSTORE PUSH1 0x2 SWAP1 SWAP3 ADD SLOAD PUSH1 0x1 PUSH1 0x1 PUSH1 0xA0 SHL SUB DUP2 AND SWAP3 DUP3 ADD SWAP3 SWAP1 SWAP3 MSTORE PUSH1 0x1 PUSH1 0xA0 SHL SWAP1 SWAP2 DIV PUSH1 0xFF AND ISZERO ISZERO PUSH1 0x60 DUP3 ADD MSTORE DUP5 MLOAD DUP6 SWAP1 DUP6 SWAP1 DUP2 LT PUSH2 0x1831 JUMPI PUSH2 0x1831 PUSH2 0x3AD6 JUMP JUMPDEST PUSH1 0x20 MUL PUSH1 0x20 ADD ADD DUP2 SWAP1 MSTORE POP DUP3 DUP1 PUSH2 0x1847 SWAP1 PUSH2 0x3A80 JUMP JUMPDEST SWAP4 POP POP JUMPDEST DUP1 PUSH2 0x1855 DUP2 PUSH2 0x3A80 JUMP JUMPDEST SWAP2 POP POP PUSH2 0x174A JUMP JUMPDEST POP JUMPDEST DUP1 PUSH2 0x1869 DUP2 PUSH2 0x3A80 JUMP JUMPDEST SWAP2 POP POP PUSH2 0x1705 JUMP JUMPDEST POP DUP1 PUSH8 0xFFFFFFFFFFFFFFFF DUP2 GT ISZERO PUSH2 0x188B JUMPI PUSH2 0x188B PUSH2 0x3746 JUMP JUMPDEST PUSH1 0x40 MLOAD SWAP1 DUP1 DUP3 MSTORE DUP1 PUSH1 0x20 MUL PUSH1 0x20 ADD DUP3 ADD PUSH1 0x40 MSTORE DUP1 ISZERO PUSH2 0x18C4 JUMPI DUP2 PUSH1 0x20 ADD JUMPDEST PUSH2 0x18B1 PUSH2 0x32EF JUMP JUMPDEST DUP2 MSTORE PUSH1 0x20 ADD SWAP1 PUSH1 0x1 SWAP1 SUB SWAP1 DUP2 PUSH2 0x18A9 JUMPI SWAP1 POP JUMPDEST POP SWAP3 POP PUSH1 0x0 JUMPDEST DUP2 DUP2 LT ISZERO PUSH2 0xB46 JUMPI DUP3 DUP2 DUP2 MLOAD DUP2 LT PUSH2 0x18E4 JUMPI PUSH2 0x18E4 PUSH2 0x3AD6 JUMP JUMPDEST PUSH1 0x20 MUL PUSH1 0x20 ADD ADD MLOAD DUP5 DUP3 DUP2 MLOAD DUP2 LT PUSH2 0x18FE JUMPI PUSH2 0x18FE PUSH2 0x3AD6 JUMP JUMPDEST PUSH1 0x20 MUL PUSH1 0x20 ADD ADD DUP2 SWAP1 MSTORE POP DUP1 DUP1 PUSH2 0x1914 SWAP1 PUSH2 0x3A80 JUMP JUMPDEST SWAP2 POP POP PUSH2 0x18CA JUMP JUMPDEST PUSH1 0x60 PUSH1 0x0 DUP1 PUSH1 0x1 JUMPDEST PUSH1 0x2 SLOAD DUP2 GT PUSH2 0x1989 JUMPI PUSH1 0x0 DUP2 DUP2 MSTORE PUSH1 0x7 PUSH1 0x20 MSTORE PUSH1 0x40 SWAP1 KECCAK256 SLOAD PUSH1 0xFF AND DUP1 ISZERO PUSH2 0x1964 JUMPI POP PUSH1 0x0 DUP2 DUP2 MSTORE PUSH1 0x4 PUSH1 0x20 MSTORE PUSH1 0x40 SWAP1 KECCAK256 PUSH1 0x1 ADD SLOAD PUSH1 0x1 PUSH1 0x1 PUSH1 0xA0 SHL SUB AND CALLER EQ JUMPDEST ISZERO PUSH2 0x1977 JUMPI DUP3 PUSH2 0x1973 DUP2 PUSH2 0x3A80 JUMP JUMPDEST SWAP4 POP POP JUMPDEST DUP1 PUSH2 0x1981 DUP2 PUSH2 0x3A80 JUMP JUMPDEST SWAP2 POP POP PUSH2 0x1924 JUMP JUMPDEST POP DUP2 PUSH8 0xFFFFFFFFFFFFFFFF DUP2 GT ISZERO PUSH2 0x19A3 JUMPI PUSH2 0x19A3 PUSH2 0x3746 JUMP JUMPDEST PUSH1 0x40 MLOAD SWAP1 DUP1 DUP3 MSTORE DUP1 PUSH1 0x20 MUL PUSH1 0x20 ADD DUP3 ADD PUSH1 0x40 MSTORE DUP1 ISZERO PUSH2 0x19DC JUMPI DUP2 PUSH1 0x20 ADD JUMPDEST PUSH2 0x19C9 PUSH2 0x3263 JUMP JUMPDEST DUP2 MSTORE PUSH1 0x20 ADD SWAP1 PUSH1 0x1 SWAP1 SUB SWAP1 DUP2 PUSH2 0x19C1 JUMPI SWAP1 POP JUMPDEST POP SWAP3 POP PUSH1 0x1 JUMPDEST PUSH1 0x2 SLOAD DUP2 GT PUSH2 0xB46 JUMPI PUSH1 0x0 DUP2 DUP2 MSTORE PUSH1 0x7 PUSH1 0x20 MSTORE PUSH1 0x40 SWAP1 KECCAK256 SLOAD PUSH1 0xFF AND DUP1 ISZERO PUSH2 0x1A22 JUMPI POP PUSH1 0x0 DUP2 DUP2 MSTORE PUSH1 0x4 PUSH1 0x20 MSTORE PUSH1 0x40 SWAP1 KECCAK256 PUSH1 0x1 ADD SLOAD PUSH1 0x1 PUSH1 0x1 PUSH1 0xA0 SHL SUB AND CALLER EQ JUMPDEST ISZERO PUSH2 0x1DA1 JUMPI PUSH1 0x0 DUP2 DUP2 MSTORE PUSH1 0x4 PUSH1 0x20 SWAP1 DUP2 MSTORE PUSH1 0x40 SWAP2 DUP3 SWAP1 KECCAK256 DUP3 MLOAD PUSH2 0x1E0 DUP2 ADD DUP5 MSTORE DUP2 SLOAD DUP2 MSTORE PUSH1 0x1 DUP3 ADD SLOAD PUSH1 0x1 PUSH1 0x1 PUSH1 0xA0 SHL SUB SWAP1 DUP2 AND SWAP4 DUP3 ADD SWAP4 SWAP1 SWAP4 MSTORE PUSH1 0x2 DUP3 ADD SLOAD SWAP1 SWAP3 AND SWAP3 DUP3 ADD SWAP3 SWAP1 SWAP3 MSTORE PUSH1 0x3 DUP3 ADD DUP1 SLOAD SWAP2 SWAP3 SWAP2 PUSH1 0x60 DUP5 ADD SWAP2 SWAP1 PUSH2 0x1A84 SWAP1 PUSH2 0x3A9B JUMP JUMPDEST DUP1 PUSH1 0x1F ADD PUSH1 0x20 DUP1 SWAP2 DIV MUL PUSH1 0x20 ADD PUSH1 0x40 MLOAD SWAP1 DUP2 ADD PUSH1 0x40 MSTORE DUP1 SWAP3 SWAP2 SWAP1 DUP2 DUP2 MSTORE PUSH1 0x20 ADD DUP3 DUP1 SLOAD PUSH2 0x1AB0 SWAP1 PUSH2 0x3A9B JUMP JUMPDEST DUP1 ISZERO PUSH2 0x1AFD JUMPI DUP1 PUSH1 0x1F LT PUSH2 0x1AD2 JUMPI PUSH2 0x100 DUP1 DUP4 SLOAD DIV MUL DUP4 MSTORE SWAP2 PUSH1 0x20 ADD SWAP2 PUSH2 0x1AFD JUMP JUMPDEST DUP3 ADD SWAP2 SWAP1 PUSH1 0x0 MSTORE PUSH1 0x20 PUSH1 0x0 KECCAK256 SWAP1 JUMPDEST DUP2 SLOAD DUP2 MSTORE SWAP1 PUSH1 0x1 ADD SWAP1 PUSH1 0x20 ADD DUP1 DUP4 GT PUSH2 0x1AE0 JUMPI DUP3 SWAP1 SUB PUSH1 0x1F AND DUP3 ADD SWAP2 JUMPDEST POP POP POP POP POP DUP2 MSTORE PUSH1 0x20 ADD PUSH1 0x4 DUP3 ADD DUP1 SLOAD PUSH2 0x1B16 SWAP1 PUSH2 0x3A9B JUMP JUMPDEST DUP1 PUSH1 0x1F ADD PUSH1 0x20 DUP1 SWAP2 DIV MUL PUSH1 0x20 ADD PUSH1 0x40 MLOAD SWAP1 DUP2 ADD PUSH1 0x40 MSTORE DUP1 SWAP3 SWAP2 SWAP1 DUP2 DUP2 MSTORE PUSH1 0x20 ADD DUP3 DUP1 SLOAD PUSH2 0x1B42 SWAP1 PUSH2 0x3A9B JUMP JUMPDEST DUP1 ISZERO PUSH2 0x1B8F JUMPI DUP1 PUSH1 0x1F LT PUSH2 0x1B64 JUMPI PUSH2 0x100 DUP1 DUP4 SLOAD DIV MUL DUP4 MSTORE SWAP2 PUSH1 0x20 ADD SWAP2 PUSH2 0x1B8F JUMP JUMPDEST DUP3 ADD SWAP2 SWAP1 PUSH1 0x0 MSTORE PUSH1 0x20 PUSH1 0x0 KECCAK256 SWAP1 JUMPDEST DUP2 SLOAD DUP2 MSTORE SWAP1 PUSH1 0x1 ADD SWAP1 PUSH1 0x20 ADD DUP1 DUP4 GT PUSH2 0x1B72 JUMPI DUP3 SWAP1 SUB PUSH1 0x1F AND DUP3 ADD SWAP2 JUMPDEST POP POP POP POP POP DUP2 MSTORE PUSH1 0x20 ADD PUSH1 0x5 DUP3 ADD DUP1 SLOAD PUSH2 0x1BA8 SWAP1 PUSH2 0x3A9B JUMP JUMPDEST DUP1 PUSH1 0x1F ADD PUSH1 0x20 DUP1 SWAP2 DIV MUL PUSH1 0x20 ADD PUSH1 0x40 MLOAD SWAP1 DUP2 ADD PUSH1 0x40 MSTORE DUP1 SWAP3 SWAP2 SWAP1 DUP2 DUP2 MSTORE PUSH1 0x20 ADD DUP3 DUP1 SLOAD PUSH2 0x1BD4 SWAP1 PUSH2 0x3A9B JUMP JUMPDEST DUP1 ISZERO PUSH2 0x1C21 JUMPI DUP1 PUSH1 0x1F LT PUSH2 0x1BF6 JUMPI PUSH2 0x100 DUP1 DUP4 SLOAD DIV MUL DUP4 MSTORE SWAP2 PUSH1 0x20 ADD SWAP2 PUSH2 0x1C21 JUMP JUMPDEST DUP3 ADD SWAP2 SWAP1 PUSH1 0x0 MSTORE PUSH1 0x20 PUSH1 0x0 KECCAK256 SWAP1 JUMPDEST DUP2 SLOAD DUP2 MSTORE SWAP1 PUSH1 0x1 ADD SWAP1 PUSH1 0x20 ADD DUP1 DUP4 GT PUSH2 0x1C04 JUMPI DUP3 SWAP1 SUB PUSH1 0x1F AND DUP3 ADD SWAP2 JUMPDEST POP POP POP SWAP2 DUP4 MSTORE POP POP PUSH1 0x6 DUP3 ADD SLOAD PUSH1 0x20 DUP1 DUP4 ADD SWAP2 SWAP1 SWAP2 MSTORE PUSH1 0x7 DUP4 ADD SLOAD PUSH1 0xFF SWAP1 DUP2 AND ISZERO ISZERO PUSH1 0x40 DUP1 DUP6 ADD SWAP2 SWAP1 SWAP2 MSTORE PUSH1 0x8 DUP6 ADD SLOAD PUSH1 0x60 DUP6 ADD MSTORE PUSH1 0x9 DUP6 ADD SLOAD SWAP1 SWAP2 AND ISZERO ISZERO PUSH1 0x80 DUP5 ADD MSTORE PUSH1 0xA DUP5 ADD SLOAD PUSH1 0xA0 DUP5 ADD MSTORE PUSH1 0xB DUP5 ADD DUP1 SLOAD DUP3 MLOAD DUP2 DUP6 MUL DUP2 ADD DUP6 ADD SWAP1 SWAP4 MSTORE DUP1 DUP4 MSTORE PUSH1 0xC0 SWAP1 SWAP5 ADD SWAP4 SWAP2 SWAP3 SWAP1 SWAP2 SWAP1 DUP4 ADD DUP3 DUP3 DUP1 ISZERO PUSH2 0x1CC8 JUMPI PUSH1 0x20 MUL DUP3 ADD SWAP2 SWAP1 PUSH1 0x0 MSTORE PUSH1 0x20 PUSH1 0x0 KECCAK256 SWAP1 JUMPDEST DUP2 SLOAD PUSH1 0x1 PUSH1 0x1 PUSH1 0xA0 SHL SUB AND DUP2 MSTORE PUSH1 0x1 SWAP1 SWAP2 ADD SWAP1 PUSH1 0x20 ADD DUP1 DUP4 GT PUSH2 0x1CAA JUMPI JUMPDEST POP POP POP POP POP DUP2 MSTORE PUSH1 0x20 ADD PUSH1 0xC DUP3 ADD DUP1 SLOAD PUSH2 0x1CE1 SWAP1 PUSH2 0x3A9B JUMP JUMPDEST DUP1 PUSH1 0x1F ADD PUSH1 0x20 DUP1 SWAP2 DIV MUL PUSH1 0x20 ADD PUSH1 0x40 MLOAD SWAP1 DUP2 ADD PUSH1 0x40 MSTORE DUP1 SWAP3 SWAP2 SWAP1 DUP2 DUP2 MSTORE PUSH1 0x20 ADD DUP3 DUP1 SLOAD PUSH2 0x1D0D SWAP1 PUSH2 0x3A9B JUMP JUMPDEST DUP1 ISZERO PUSH2 0x1D5A JUMPI DUP1 PUSH1 0x1F LT PUSH2 0x1D2F JUMPI PUSH2 0x100 DUP1 DUP4 SLOAD DIV MUL DUP4 MSTORE SWAP2 PUSH1 0x20 ADD SWAP2 PUSH2 0x1D5A JUMP JUMPDEST DUP3 ADD SWAP2 SWAP1 PUSH1 0x0 MSTORE PUSH1 0x20 PUSH1 0x0 KECCAK256 SWAP1 JUMPDEST DUP2 SLOAD DUP2 MSTORE SWAP1 PUSH1 0x1 ADD SWAP1 PUSH1 0x20 ADD DUP1 DUP4 GT PUSH2 0x1D3D JUMPI DUP3 SWAP1 SUB PUSH1 0x1F AND DUP3 ADD SWAP2 JUMPDEST POP POP POP POP POP DUP2 MSTORE PUSH1 0x20 ADD PUSH1 0xD DUP3 ADD SLOAD DUP2 MSTORE PUSH1 0x20 ADD PUSH1 0xE DUP3 ADD SLOAD DUP2 MSTORE POP POP DUP5 DUP4 DUP1 PUSH2 0x1D83 SWAP1 PUSH2 0x3A80 JUMP JUMPDEST SWAP5 POP DUP2 MLOAD DUP2 LT PUSH2 0x1D95 JUMPI PUSH2 0x1D95 PUSH2 0x3AD6 JUMP JUMPDEST PUSH1 0x20 MUL PUSH1 0x20 ADD ADD DUP2 SWAP1 MSTORE POP JUMPDEST DUP1 PUSH2 0x1DAB DUP2 PUSH2 0x3A80 JUMP JUMPDEST SWAP2 POP POP PUSH2 0x19E2 JUMP JUMPDEST PUSH1 0x0 DUP3 DUP2 MSTORE PUSH1 0x7 PUSH1 0x20 MSTORE PUSH1 0x40 SWAP1 KECCAK256 SLOAD PUSH1 0xFF AND PUSH2 0x1DE1 JUMPI PUSH1 0x40 MLOAD PUSH3 0x461BCD PUSH1 0xE5 SHL DUP2 MSTORE PUSH1 0x4 ADD PUSH2 0xD8F SWAP1 PUSH2 0x3AEC JUMP JUMPDEST PUSH1 0x0 DUP3 DUP2 MSTORE PUSH1 0x4 PUSH1 0x20 MSTORE PUSH1 0x40 SWAP1 KECCAK256 PUSH1 0xA ADD SLOAD PUSH2 0x1E3F JUMPI PUSH1 0x40 MLOAD PUSH3 0x461BCD PUSH1 0xE5 SHL DUP2 MSTORE PUSH1 0x20 PUSH1 0x4 DUP3 ADD MSTORE PUSH1 0x1B PUSH1 0x24 DUP3 ADD MSTORE PUSH32 0x54686973206A6F62206D757374206265206F6E20646973707574650000000000 PUSH1 0x44 DUP3 ADD MSTORE PUSH1 0x64 ADD PUSH2 0xD8F JUMP JUMPDEST PUSH1 0x0 DUP3 DUP2 MSTORE PUSH1 0x4 PUSH1 0x20 MSTORE PUSH1 0x40 SWAP1 KECCAK256 PUSH1 0x7 ADD SLOAD PUSH1 0xFF AND ISZERO PUSH2 0x1E71 JUMPI PUSH1 0x40 MLOAD PUSH3 0x461BCD PUSH1 0xE5 SHL DUP2 MSTORE PUSH1 0x4 ADD PUSH2 0xD8F SWAP1 PUSH2 0x3B23 JUMP JUMPDEST POP POP JUMP JUMPDEST PUSH2 0x1E7D PUSH2 0x3263 JUMP JUMPDEST PUSH1 0x0 DUP3 DUP2 MSTORE PUSH1 0x4 PUSH1 0x20 SWAP1 DUP2 MSTORE PUSH1 0x40 SWAP2 DUP3 SWAP1 KECCAK256 DUP3 MLOAD PUSH2 0x1E0 DUP2 ADD DUP5 MSTORE DUP2 SLOAD DUP2 MSTORE PUSH1 0x1 DUP3 ADD SLOAD PUSH1 0x1 PUSH1 0x1 PUSH1 0xA0 SHL SUB SWAP1 DUP2 AND SWAP4 DUP3 ADD SWAP4 SWAP1 SWAP4 MSTORE PUSH1 0x2 DUP3 ADD SLOAD SWAP1 SWAP3 AND SWAP3 DUP3 ADD SWAP3 SWAP1 SWAP3 MSTORE PUSH1 0x3 DUP3 ADD DUP1 SLOAD SWAP2 SWAP3 SWAP2 PUSH1 0x60 DUP5 ADD SWAP2 SWAP1 PUSH2 0x1EDA SWAP1 PUSH2 0x3A9B JUMP JUMPDEST DUP1 PUSH1 0x1F ADD PUSH1 0x20 DUP1 SWAP2 DIV MUL PUSH1 0x20 ADD PUSH1 0x40 MLOAD SWAP1 DUP2 ADD PUSH1 0x40 MSTORE DUP1 SWAP3 SWAP2 SWAP1 DUP2 DUP2 MSTORE PUSH1 0x20 ADD DUP3 DUP1 SLOAD PUSH2 0x1F06 SWAP1 PUSH2 0x3A9B JUMP JUMPDEST DUP1 ISZERO PUSH2 0x1F53 JUMPI DUP1 PUSH1 0x1F LT PUSH2 0x1F28 JUMPI PUSH2 0x100 DUP1 DUP4 SLOAD DIV MUL DUP4 MSTORE SWAP2 PUSH1 0x20 ADD SWAP2 PUSH2 0x1F53 JUMP JUMPDEST DUP3 ADD SWAP2 SWAP1 PUSH1 0x0 MSTORE PUSH1 0x20 PUSH1 0x0 KECCAK256 SWAP1 JUMPDEST DUP2 SLOAD DUP2 MSTORE SWAP1 PUSH1 0x1 ADD SWAP1 PUSH1 0x20 ADD DUP1 DUP4 GT PUSH2 0x1F36 JUMPI DUP3 SWAP1 SUB PUSH1 0x1F AND DUP3 ADD SWAP2 JUMPDEST POP POP POP POP POP DUP2 MSTORE PUSH1 0x20 ADD PUSH1 0x4 DUP3 ADD DUP1 SLOAD PUSH2 0x1F6C SWAP1 PUSH2 0x3A9B JUMP JUMPDEST DUP1 PUSH1 0x1F ADD PUSH1 0x20 DUP1 SWAP2 DIV MUL PUSH1 0x20 ADD PUSH1 0x40 MLOAD SWAP1 DUP2 ADD PUSH1 0x40 MSTORE DUP1 SWAP3 SWAP2 SWAP1 DUP2 DUP2 MSTORE PUSH1 0x20 ADD DUP3 DUP1 SLOAD PUSH2 0x1F98 SWAP1 PUSH2 0x3A9B JUMP JUMPDEST DUP1 ISZERO PUSH2 0x1FE5 JUMPI DUP1 PUSH1 0x1F LT PUSH2 0x1FBA JUMPI PUSH2 0x100 DUP1 DUP4 SLOAD DIV MUL DUP4 MSTORE SWAP2 PUSH1 0x20 ADD SWAP2 PUSH2 0x1FE5 JUMP JUMPDEST DUP3 ADD SWAP2 SWAP1 PUSH1 0x0 MSTORE PUSH1 0x20 PUSH1 0x0 KECCAK256 SWAP1 JUMPDEST DUP2 SLOAD DUP2 MSTORE SWAP1 PUSH1 0x1 ADD SWAP1 PUSH1 0x20 ADD DUP1 DUP4 GT PUSH2 0x1FC8 JUMPI DUP3 SWAP1 SUB PUSH1 0x1F AND DUP3 ADD SWAP2 JUMPDEST POP POP POP POP POP DUP2 MSTORE PUSH1 0x20 ADD PUSH1 0x5 DUP3 ADD DUP1 SLOAD PUSH2 0x1FFE SWAP1 PUSH2 0x3A9B JUMP JUMPDEST DUP1 PUSH1 0x1F ADD PUSH1 0x20 DUP1 SWAP2 DIV MUL PUSH1 0x20 ADD PUSH1 0x40 MLOAD SWAP1 DUP2 ADD PUSH1 0x40 MSTORE DUP1 SWAP3 SWAP2 SWAP1 DUP2 DUP2 MSTORE PUSH1 0x20 ADD DUP3 DUP1 SLOAD PUSH2 0x202A SWAP1 PUSH2 0x3A9B JUMP JUMPDEST DUP1 ISZERO PUSH2 0x2077 JUMPI DUP1 PUSH1 0x1F LT PUSH2 0x204C JUMPI PUSH2 0x100 DUP1 DUP4 SLOAD DIV MUL DUP4 MSTORE SWAP2 PUSH1 0x20 ADD SWAP2 PUSH2 0x2077 JUMP JUMPDEST DUP3 ADD SWAP2 SWAP1 PUSH1 0x0 MSTORE PUSH1 0x20 PUSH1 0x0 KECCAK256 SWAP1 JUMPDEST DUP2 SLOAD DUP2 MSTORE SWAP1 PUSH1 0x1 ADD SWAP1 PUSH1 0x20 ADD DUP1 DUP4 GT PUSH2 0x205A JUMPI DUP3 SWAP1 SUB PUSH1 0x1F AND DUP3 ADD SWAP2 JUMPDEST POP POP POP SWAP2 DUP4 MSTORE POP POP PUSH1 0x6 DUP3 ADD SLOAD PUSH1 0x20 DUP1 DUP4 ADD SWAP2 SWAP1 SWAP2 MSTORE PUSH1 0x7 DUP4 ADD SLOAD PUSH1 0xFF SWAP1 DUP2 AND ISZERO ISZERO PUSH1 0x40 DUP1 DUP6 ADD SWAP2 SWAP1 SWAP2 MSTORE PUSH1 0x8 DUP6 ADD SLOAD PUSH1 0x60 DUP6 ADD MSTORE PUSH1 0x9 DUP6 ADD SLOAD SWAP1 SWAP2 AND ISZERO ISZERO PUSH1 0x80 DUP5 ADD MSTORE PUSH1 0xA DUP5 ADD SLOAD PUSH1 0xA0 DUP5 ADD MSTORE PUSH1 0xB DUP5 ADD DUP1 SLOAD DUP3 MLOAD DUP2 DUP6 MUL DUP2 ADD DUP6 ADD SWAP1 SWAP4 MSTORE DUP1 DUP4 MSTORE PUSH1 0xC0 SWAP1 SWAP5 ADD SWAP4 SWAP2 SWAP3 SWAP1 SWAP2 SWAP1 DUP4 ADD DUP3 DUP3 DUP1 ISZERO PUSH2 0x211E JUMPI PUSH1 0x20 MUL DUP3 ADD SWAP2 SWAP1 PUSH1 0x0 MSTORE PUSH1 0x20 PUSH1 0x0 KECCAK256 SWAP1 JUMPDEST DUP2 SLOAD PUSH1 0x1 PUSH1 0x1 PUSH1 0xA0 SHL SUB AND DUP2 MSTORE PUSH1 0x1 SWAP1 SWAP2 ADD SWAP1 PUSH1 0x20 ADD DUP1 DUP4 GT PUSH2 0x2100 JUMPI JUMPDEST POP POP POP POP POP DUP2 MSTORE PUSH1 0x20 ADD PUSH1 0xC DUP3 ADD DUP1 SLOAD PUSH2 0x2137 SWAP1 PUSH2 0x3A9B JUMP JUMPDEST DUP1 PUSH1 0x1F ADD PUSH1 0x20 DUP1 SWAP2 DIV MUL PUSH1 0x20 ADD PUSH1 0x40 MLOAD SWAP1 DUP2 ADD PUSH1 0x40 MSTORE DUP1 SWAP3 SWAP2 SWAP1 DUP2 DUP2 MSTORE PUSH1 0x20 ADD DUP3 DUP1 SLOAD PUSH2 0x2163 SWAP1 PUSH2 0x3A9B JUMP JUMPDEST DUP1 ISZERO PUSH2 0x21B0 JUMPI DUP1 PUSH1 0x1F LT PUSH2 0x2185 JUMPI PUSH2 0x100 DUP1 DUP4 SLOAD DIV MUL DUP4 MSTORE SWAP2 PUSH1 0x20 ADD SWAP2 PUSH2 0x21B0 JUMP JUMPDEST DUP3 ADD SWAP2 SWAP1 PUSH1 0x0 MSTORE PUSH1 0x20 PUSH1 0x0 KECCAK256 SWAP1 JUMPDEST DUP2 SLOAD DUP2 MSTORE SWAP1 PUSH1 0x1 ADD SWAP1 PUSH1 0x20 ADD DUP1 DUP4 GT PUSH2 0x2193 JUMPI DUP3 SWAP1 SUB PUSH1 0x1F AND DUP3 ADD SWAP2 JUMPDEST POP POP POP POP POP DUP2 MSTORE PUSH1 0x20 ADD PUSH1 0xD DUP3 ADD SLOAD DUP2 MSTORE PUSH1 0x20 ADD PUSH1 0xE DUP3 ADD SLOAD DUP2 MSTORE POP POP SWAP1 POP SWAP2 SWAP1 POP JUMP JUMPDEST PUSH1 0x60 PUSH1 0x0 PUSH2 0x21E1 PUSH1 0x2 SLOAD SWAP1 JUMP JUMPDEST PUSH8 0xFFFFFFFFFFFFFFFF DUP2 GT ISZERO PUSH2 0x21F9 JUMPI PUSH2 0x21F9 PUSH2 0x3746 JUMP JUMPDEST PUSH1 0x40 MLOAD SWAP1 DUP1 DUP3 MSTORE DUP1 PUSH1 0x20 MUL PUSH1 0x20 ADD DUP3 ADD PUSH1 0x40 MSTORE DUP1 ISZERO PUSH2 0x2232 JUMPI DUP2 PUSH1 0x20 ADD JUMPDEST PUSH2 0x221F PUSH2 0x3263 JUMP JUMPDEST DUP2 MSTORE PUSH1 0x20 ADD SWAP1 PUSH1 0x1 SWAP1 SUB SWAP1 DUP2 PUSH2 0x2217 JUMPI SWAP1 POP JUMPDEST POP SWAP1 POP PUSH1 0x0 PUSH1 0x1 JUMPDEST PUSH1 0x2 SLOAD DUP2 GT PUSH2 0x260A JUMPI PUSH1 0x0 DUP2 DUP2 MSTORE PUSH1 0x7 PUSH1 0x20 MSTORE PUSH1 0x40 SWAP1 KECCAK256 SLOAD PUSH1 0xFF AND ISZERO PUSH2 0x25F8 JUMPI PUSH1 0x0 DUP2 DUP2 MSTORE PUSH1 0x8 PUSH1 0x20 SWAP1 DUP2 MSTORE PUSH1 0x40 DUP1 DUP4 KECCAK256 CALLER DUP5 MSTORE SWAP1 SWAP2 MSTORE SWAP1 KECCAK256 SLOAD PUSH1 0xFF AND ISZERO PUSH2 0x25F8 JUMPI PUSH1 0x0 DUP2 DUP2 MSTORE PUSH1 0x4 PUSH1 0x20 SWAP1 DUP2 MSTORE PUSH1 0x40 SWAP2 DUP3 SWAP1 KECCAK256 DUP3 MLOAD PUSH2 0x1E0 DUP2 ADD DUP5 MSTORE DUP2 SLOAD DUP2 MSTORE PUSH1 0x1 DUP3 ADD SLOAD PUSH1 0x1 PUSH1 0x1 PUSH1 0xA0 SHL SUB SWAP1 DUP2 AND SWAP4 DUP3 ADD SWAP4 SWAP1 SWAP4 MSTORE PUSH1 0x2 DUP3 ADD SLOAD SWAP1 SWAP3 AND SWAP3 DUP3 ADD SWAP3 SWAP1 SWAP3 MSTORE PUSH1 0x3 DUP3 ADD DUP1 SLOAD SWAP2 SWAP3 SWAP2 PUSH1 0x60 DUP5 ADD SWAP2 SWAP1 PUSH2 0x22D9 SWAP1 PUSH2 0x3A9B JUMP JUMPDEST DUP1 PUSH1 0x1F ADD PUSH1 0x20 DUP1 SWAP2 DIV MUL PUSH1 0x20 ADD PUSH1 0x40 MLOAD SWAP1 DUP2 ADD PUSH1 0x40 MSTORE DUP1 SWAP3 SWAP2 SWAP1 DUP2 DUP2 MSTORE PUSH1 0x20 ADD DUP3 DUP1 SLOAD PUSH2 0x2305 SWAP1 PUSH2 0x3A9B JUMP JUMPDEST DUP1 ISZERO PUSH2 0x2352 JUMPI DUP1 PUSH1 0x1F LT PUSH2 0x2327 JUMPI PUSH2 0x100 DUP1 DUP4 SLOAD DIV MUL DUP4 MSTORE SWAP2 PUSH1 0x20 ADD SWAP2 PUSH2 0x2352 JUMP JUMPDEST DUP3 ADD SWAP2 SWAP1 PUSH1 0x0 MSTORE PUSH1 0x20 PUSH1 0x0 KECCAK256 SWAP1 JUMPDEST DUP2 SLOAD DUP2 MSTORE SWAP1 PUSH1 0x1 ADD SWAP1 PUSH1 0x20 ADD DUP1 DUP4 GT PUSH2 0x2335 JUMPI DUP3 SWAP1 SUB PUSH1 0x1F AND DUP3 ADD SWAP2 JUMPDEST POP POP POP POP POP DUP2 MSTORE PUSH1 0x20 ADD PUSH1 0x4 DUP3 ADD DUP1 SLOAD PUSH2 0x236B SWAP1 PUSH2 0x3A9B JUMP JUMPDEST DUP1 PUSH1 0x1F ADD PUSH1 0x20 DUP1 SWAP2 DIV MUL PUSH1 0x20 ADD PUSH1 0x40 MLOAD SWAP1 DUP2 ADD PUSH1 0x40 MSTORE DUP1 SWAP3 SWAP2 SWAP1 DUP2 DUP2 MSTORE PUSH1 0x20 ADD DUP3 DUP1 SLOAD PUSH2 0x2397 SWAP1 PUSH2 0x3A9B JUMP JUMPDEST DUP1 ISZERO PUSH2 0x23E4 JUMPI DUP1 PUSH1 0x1F LT PUSH2 0x23B9 JUMPI PUSH2 0x100 DUP1 DUP4 SLOAD DIV MUL DUP4 MSTORE SWAP2 PUSH1 0x20 ADD SWAP2 PUSH2 0x23E4 JUMP JUMPDEST DUP3 ADD SWAP2 SWAP1 PUSH1 0x0 MSTORE PUSH1 0x20 PUSH1 0x0 KECCAK256 SWAP1 JUMPDEST DUP2 SLOAD DUP2 MSTORE SWAP1 PUSH1 0x1 ADD SWAP1 PUSH1 0x20 ADD DUP1 DUP4 GT PUSH2 0x23C7 JUMPI DUP3 SWAP1 SUB PUSH1 0x1F AND DUP3 ADD SWAP2 JUMPDEST POP POP POP POP POP DUP2 MSTORE PUSH1 0x20 ADD PUSH1 0x5 DUP3 ADD DUP1 SLOAD PUSH2 0x23FD SWAP1 PUSH2 0x3A9B JUMP JUMPDEST DUP1 PUSH1 0x1F ADD PUSH1 0x20 DUP1 SWAP2 DIV MUL PUSH1 0x20 ADD PUSH1 0x40 MLOAD SWAP1 DUP2 ADD PUSH1 0x40 MSTORE DUP1 SWAP3 SWAP2 SWAP1 DUP2 DUP2 MSTORE PUSH1 0x20 ADD DUP3 DUP1 SLOAD PUSH2 0x2429 SWAP1 PUSH2 0x3A9B JUMP JUMPDEST DUP1 ISZERO PUSH2 0x2476 JUMPI DUP1 PUSH1 0x1F LT PUSH2 0x244B JUMPI PUSH2 0x100 DUP1 DUP4 SLOAD DIV MUL DUP4 MSTORE SWAP2 PUSH1 0x20 ADD SWAP2 PUSH2 0x2476 JUMP JUMPDEST DUP3 ADD SWAP2 SWAP1 PUSH1 0x0 MSTORE PUSH1 0x20 PUSH1 0x0 KECCAK256 SWAP1 JUMPDEST DUP2 SLOAD DUP2 MSTORE SWAP1 PUSH1 0x1 ADD SWAP1 PUSH1 0x20 ADD DUP1 DUP4 GT PUSH2 0x2459 JUMPI DUP3 SWAP1 SUB PUSH1 0x1F AND DUP3 ADD SWAP2 JUMPDEST POP POP POP SWAP2 DUP4 MSTORE POP POP PUSH1 0x6 DUP3 ADD SLOAD PUSH1 0x20 DUP1 DUP4 ADD SWAP2 SWAP1 SWAP2 MSTORE PUSH1 0x7 DUP4 ADD SLOAD PUSH1 0xFF SWAP1 DUP2 AND ISZERO ISZERO PUSH1 0x40 DUP1 DUP6 ADD SWAP2 SWAP1 SWAP2 MSTORE PUSH1 0x8 DUP6 ADD SLOAD PUSH1 0x60 DUP6 ADD MSTORE PUSH1 0x9 DUP6 ADD SLOAD SWAP1 SWAP2 AND ISZERO ISZERO PUSH1 0x80 DUP5 ADD MSTORE PUSH1 0xA DUP5 ADD SLOAD PUSH1 0xA0 DUP5 ADD MSTORE PUSH1 0xB DUP5 ADD DUP1 SLOAD DUP3 MLOAD DUP2 DUP6 MUL DUP2 ADD DUP6 ADD SWAP1 SWAP4 MSTORE DUP1 DUP4 MSTORE PUSH1 0xC0 SWAP1 SWAP5 ADD SWAP4 SWAP2 SWAP3 SWAP1 SWAP2 SWAP1 DUP4 ADD DUP3 DUP3 DUP1 ISZERO PUSH2 0x251D JUMPI PUSH1 0x20 MUL DUP3 ADD SWAP2 SWAP1 PUSH1 0x0 MSTORE PUSH1 0x20 PUSH1 0x0 KECCAK256 SWAP1 JUMPDEST DUP2 SLOAD PUSH1 0x1 PUSH1 0x1 PUSH1 0xA0 SHL SUB AND DUP2 MSTORE PUSH1 0x1 SWAP1 SWAP2 ADD SWAP1 PUSH1 0x20 ADD DUP1 DUP4 GT PUSH2 0x24FF JUMPI JUMPDEST POP POP POP POP POP DUP2 MSTORE PUSH1 0x20 ADD PUSH1 0xC DUP3 ADD DUP1 SLOAD PUSH2 0x2536 SWAP1 PUSH2 0x3A9B JUMP JUMPDEST DUP1 PUSH1 0x1F ADD PUSH1 0x20 DUP1 SWAP2 DIV MUL PUSH1 0x20 ADD PUSH1 0x40 MLOAD SWAP1 DUP2 ADD PUSH1 0x40 MSTORE DUP1 SWAP3 SWAP2 SWAP1 DUP2 DUP2 MSTORE PUSH1 0x20 ADD DUP3 DUP1 SLOAD PUSH2 0x2562 SWAP1 PUSH2 0x3A9B JUMP JUMPDEST DUP1 ISZERO PUSH2 0x25AF JUMPI DUP1 PUSH1 0x1F LT PUSH2 0x2584 JUMPI PUSH2 0x100 DUP1 DUP4 SLOAD DIV MUL DUP4 MSTORE SWAP2 PUSH1 0x20 ADD SWAP2 PUSH2 0x25AF JUMP JUMPDEST DUP3 ADD SWAP2 SWAP1 PUSH1 0x0 MSTORE PUSH1 0x20 PUSH1 0x0 KECCAK256 SWAP1 JUMPDEST DUP2 SLOAD DUP2 MSTORE SWAP1 PUSH1 0x1 ADD SWAP1 PUSH1 0x20 ADD DUP1 DUP4 GT PUSH2 0x2592 JUMPI DUP3 SWAP1 SUB PUSH1 0x1F AND DUP3 ADD SWAP2 JUMPDEST POP POP POP POP POP DUP2 MSTORE PUSH1 0x20 ADD PUSH1 0xD DUP3 ADD SLOAD DUP2 MSTORE PUSH1 0x20 ADD PUSH1 0xE DUP3 ADD SLOAD DUP2 MSTORE POP POP DUP4 DUP4 DUP2 MLOAD DUP2 LT PUSH2 0x25DE JUMPI PUSH2 0x25DE PUSH2 0x3AD6 JUMP JUMPDEST PUSH1 0x20 MUL PUSH1 0x20 ADD ADD DUP2 SWAP1 MSTORE POP DUP2 DUP1 PUSH2 0x25F4 SWAP1 PUSH2 0x3A80 JUMP JUMPDEST SWAP3 POP POP JUMPDEST DUP1 PUSH2 0x2602 DUP2 PUSH2 0x3A80 JUMP JUMPDEST SWAP2 POP POP PUSH2 0x223A JUMP JUMPDEST POP DUP1 PUSH8 0xFFFFFFFFFFFFFFFF DUP2 GT ISZERO PUSH2 0x2624 JUMPI PUSH2 0x2624 PUSH2 0x3746 JUMP JUMPDEST PUSH1 0x40 MLOAD SWAP1 DUP1 DUP3 MSTORE DUP1 PUSH1 0x20 MUL PUSH1 0x20 ADD DUP3 ADD PUSH1 0x40 MSTORE DUP1 ISZERO PUSH2 0x265D JUMPI DUP2 PUSH1 0x20 ADD JUMPDEST PUSH2 0x264A PUSH2 0x3263 JUMP JUMPDEST DUP2 MSTORE PUSH1 0x20 ADD SWAP1 PUSH1 0x1 SWAP1 SUB SWAP1 DUP2 PUSH2 0x2642 JUMPI SWAP1 POP JUMPDEST POP SWAP3 POP PUSH1 0x0 JUMPDEST DUP2 DUP2 LT ISZERO PUSH2 0xB46 JUMPI DUP3 DUP2 DUP2 MLOAD DUP2 LT PUSH2 0x267D JUMPI PUSH2 0x267D PUSH2 0x3AD6 JUMP JUMPDEST PUSH1 0x20 MUL PUSH1 0x20 ADD ADD MLOAD DUP5 DUP3 DUP2 MLOAD DUP2 LT PUSH2 0x2697 JUMPI PUSH2 0x2697 PUSH2 0x3AD6 JUMP JUMPDEST PUSH1 0x20 MUL PUSH1 0x20 ADD ADD DUP2 SWAP1 MSTORE POP DUP1 DUP1 PUSH2 0x26AD SWAP1 PUSH2 0x3A80 JUMP JUMPDEST SWAP2 POP POP PUSH2 0x2663 JUMP JUMPDEST PUSH1 0x0 DUP3 DUP2 MSTORE PUSH1 0x7 PUSH1 0x20 MSTORE PUSH1 0x40 DUP2 KECCAK256 SLOAD PUSH1 0xFF AND PUSH2 0x26E3 JUMPI PUSH1 0x40 MLOAD PUSH3 0x461BCD PUSH1 0xE5 SHL DUP2 MSTORE PUSH1 0x4 ADD PUSH2 0xD8F SWAP1 PUSH2 0x3AEC JUMP JUMPDEST PUSH1 0x0 DUP4 DUP2 MSTORE PUSH1 0x4 PUSH1 0x20 MSTORE PUSH1 0x40 SWAP1 KECCAK256 PUSH1 0x1 ADD SLOAD PUSH1 0x1 PUSH1 0x1 PUSH1 0xA0 SHL SUB AND CALLER EQ ISZERO PUSH2 0x2741 JUMPI PUSH1 0x40 MLOAD PUSH3 0x461BCD PUSH1 0xE5 SHL DUP2 MSTORE PUSH1 0x20 PUSH1 0x4 DUP3 ADD MSTORE PUSH1 0x11 PUSH1 0x24 DUP3 ADD MSTORE PUSH17 0x466F7262696464656E20616374696F6E21 PUSH1 0x78 SHL PUSH1 0x44 DUP3 ADD MSTORE PUSH1 0x64 ADD PUSH2 0xD8F JUMP JUMPDEST PUSH1 0x0 DUP4 DUP2 MSTORE PUSH1 0x4 PUSH1 0x20 MSTORE PUSH1 0x40 SWAP1 KECCAK256 PUSH1 0x7 ADD SLOAD PUSH1 0xFF AND ISZERO PUSH2 0x2773 JUMPI PUSH1 0x40 MLOAD PUSH3 0x461BCD PUSH1 0xE5 SHL DUP2 MSTORE PUSH1 0x4 ADD PUSH2 0xD8F SWAP1 PUSH2 0x3B23 JUMP JUMPDEST PUSH1 0x0 DUP4 DUP2 MSTORE PUSH1 0x4 PUSH1 0x20 MSTORE PUSH1 0x40 SWAP1 KECCAK256 PUSH1 0x9 ADD SLOAD PUSH1 0xFF AND PUSH2 0x27D4 JUMPI PUSH1 0x40 MLOAD PUSH3 0x461BCD PUSH1 0xE5 SHL DUP2 MSTORE PUSH1 0x20 PUSH1 0x4 DUP3 ADD MSTORE PUSH1 0x18 PUSH1 0x24 DUP3 ADD MSTORE PUSH32 0x54686973206A6F622068617665206265656E2074616B656E0000000000000000 PUSH1 0x44 DUP3 ADD MSTORE PUSH1 0x64 ADD PUSH2 0xD8F JUMP JUMPDEST PUSH2 0x27DC PUSH2 0x32EF JUMP JUMPDEST PUSH1 0x0 DUP5 DUP2 MSTORE PUSH1 0x6 PUSH1 0x20 MSTORE PUSH1 0x40 SWAP1 KECCAK256 SLOAD PUSH2 0x27F6 SWAP1 PUSH1 0x1 PUSH2 0x3B5A JUMP JUMPDEST DUP2 MSTORE PUSH1 0x20 DUP1 DUP3 ADD DUP6 SWAP1 MSTORE CALLER PUSH1 0x40 DUP1 DUP5 ADD SWAP2 SWAP1 SWAP2 MSTORE DUP5 MLOAD DUP6 DUP4 ADD KECCAK256 PUSH1 0x0 DUP8 DUP2 MSTORE PUSH1 0x4 SWAP1 SWAP4 MSTORE SWAP2 DUP2 SWAP1 KECCAK256 SWAP1 MLOAD PUSH2 0x282D SWAP2 PUSH1 0xC ADD SWAP1 PUSH2 0x3B72 JUMP JUMPDEST PUSH1 0x40 MLOAD DUP1 SWAP2 SUB SWAP1 KECCAK256 EQ ISZERO PUSH2 0x2847 JUMPI PUSH1 0x1 PUSH1 0x60 DUP3 ADD MSTORE PUSH2 0x284F JUMP JUMPDEST PUSH1 0x0 PUSH1 0x60 DUP3 ADD MSTORE JUMPDEST PUSH1 0x0 DUP5 DUP2 MSTORE PUSH1 0x4 PUSH1 0x20 SWAP1 DUP2 MSTORE PUSH1 0x40 DUP1 DUP4 KECCAK256 PUSH1 0xB ADD DUP1 SLOAD PUSH1 0x1 DUP2 DUP2 ADD DUP4 SSTORE SWAP2 DUP6 MSTORE DUP4 DUP6 KECCAK256 ADD DUP1 SLOAD PUSH1 0x1 PUSH1 0x1 PUSH1 0xA0 SHL SUB NOT AND CALLER SWAP1 DUP2 OR SWAP1 SWAP2 SSTORE DUP9 DUP6 MSTORE PUSH1 0x6 DUP5 MSTORE DUP3 DUP6 KECCAK256 DUP1 SLOAD DUP1 DUP5 ADD DUP3 SSTORE SWAP1 DUP7 MSTORE DUP5 DUP7 KECCAK256 DUP8 MLOAD PUSH1 0x3 SWAP1 SWAP3 MUL ADD SWAP1 DUP2 SSTORE DUP7 DUP6 ADD MLOAD SWAP3 DUP2 ADD SWAP3 SWAP1 SWAP3 SSTORE DUP6 DUP4 ADD MLOAD PUSH1 0x2 SWAP1 SWAP3 ADD DUP1 SLOAD PUSH1 0x60 DUP9 ADD MLOAD ISZERO ISZERO PUSH1 0x1 PUSH1 0xA0 SHL MUL PUSH1 0x1 PUSH1 0x1 PUSH1 0xA8 SHL SUB NOT SWAP1 SWAP2 AND PUSH1 0x1 PUSH1 0x1 PUSH1 0xA0 SHL SUB SWAP5 SWAP1 SWAP5 AND SWAP4 SWAP1 SWAP4 OR SWAP3 SWAP1 SWAP3 OR SWAP1 SWAP2 SSTORE DUP8 DUP5 MSTORE PUSH1 0x8 DUP4 MSTORE DUP2 DUP5 KECCAK256 SWAP1 DUP5 MSTORE SWAP1 SWAP2 MSTORE SWAP1 KECCAK256 SLOAD PUSH1 0xFF AND PUSH2 0x2946 JUMPI PUSH1 0x0 DUP5 DUP2 MSTORE PUSH1 0x8 PUSH1 0x20 SWAP1 DUP2 MSTORE PUSH1 0x40 DUP1 DUP4 KECCAK256 CALLER DUP5 MSTORE DUP3 MSTORE DUP1 DUP4 KECCAK256 DUP1 SLOAD PUSH1 0xFF NOT AND PUSH1 0x1 SWAP1 DUP2 OR SWAP1 SWAP2 SSTORE PUSH1 0x9 DUP4 MSTORE SWAP1 DUP4 KECCAK256 DUP1 SLOAD SWAP2 DUP3 ADD DUP2 SSTORE DUP4 MSTORE SWAP2 KECCAK256 ADD DUP5 SWAP1 SSTORE JUMPDEST PUSH1 0x60 ADD MLOAD SWAP1 POP JUMPDEST SWAP3 SWAP2 POP POP JUMP JUMPDEST PUSH1 0x0 DUP3 DUP2 MSTORE PUSH1 0x4 PUSH1 0x20 MSTORE PUSH1 0x40 SWAP1 KECCAK256 PUSH1 0x1 ADD SLOAD DUP3 SWAP1 PUSH1 0x1 PUSH1 0x1 PUSH1 0xA0 SHL SUB AND CALLER EQ PUSH2 0x29B4 JUMPI PUSH1 0x40 MLOAD PUSH3 0x461BCD PUSH1 0xE5 SHL DUP2 MSTORE PUSH1 0x20 PUSH1 0x4 DUP3 ADD MSTORE PUSH1 0x13 PUSH1 0x24 DUP3 ADD MSTORE PUSH19 0x556E617574686F72697A656420656E74697479 PUSH1 0x68 SHL PUSH1 0x44 DUP3 ADD MSTORE PUSH1 0x64 ADD PUSH2 0xD8F JUMP JUMPDEST POP POP POP POP JUMP JUMPDEST PUSH2 0x29C2 PUSH2 0x31EA JUMP JUMPDEST PUSH1 0x0 DUP2 DUP2 MSTORE PUSH1 0x4 PUSH1 0x20 MSTORE PUSH1 0x40 SWAP1 KECCAK256 PUSH1 0x1 ADD SLOAD DUP2 SWAP1 PUSH1 0x1 PUSH1 0x1 PUSH1 0xA0 SHL SUB AND CALLER EQ PUSH2 0x2A23 JUMPI PUSH1 0x40 MLOAD PUSH3 0x461BCD PUSH1 0xE5 SHL DUP2 MSTORE PUSH1 0x20 PUSH1 0x4 DUP3 ADD MSTORE PUSH1 0x13 PUSH1 0x24 DUP3 ADD MSTORE PUSH19 0x556E617574686F72697A656420656E74697479 PUSH1 0x68 SHL PUSH1 0x44 DUP3 ADD MSTORE PUSH1 0x64 ADD PUSH2 0xD8F JUMP JUMPDEST PUSH1 0x0 DUP3 DUP2 MSTORE PUSH1 0x7 PUSH1 0x20 MSTORE PUSH1 0x40 SWAP1 KECCAK256 SLOAD PUSH1 0xFF AND PUSH2 0x2A51 JUMPI PUSH1 0x40 MLOAD PUSH3 0x461BCD PUSH1 0xE5 SHL DUP2 MSTORE PUSH1 0x4 ADD PUSH2 0xD8F SWAP1 PUSH2 0x3AEC JUMP JUMPDEST PUSH1 0x0 DUP3 DUP2 MSTORE PUSH1 0x4 PUSH1 0x20 MSTORE PUSH1 0x40 SWAP1 KECCAK256 PUSH1 0x9 ADD SLOAD PUSH1 0xFF AND ISZERO PUSH2 0x2AB3 JUMPI PUSH1 0x40 MLOAD PUSH3 0x461BCD PUSH1 0xE5 SHL DUP2 MSTORE PUSH1 0x20 PUSH1 0x4 DUP3 ADD MSTORE PUSH1 0x1B PUSH1 0x24 DUP3 ADD MSTORE PUSH32 0x54686973206A6F6220686173206E6F74206265656E2074616B656E0000000000 PUSH1 0x44 DUP3 ADD MSTORE PUSH1 0x64 ADD PUSH2 0xD8F JUMP JUMPDEST PUSH1 0x0 DUP3 DUP2 MSTORE PUSH1 0x4 PUSH1 0x20 MSTORE PUSH1 0x40 SWAP1 KECCAK256 PUSH1 0xA ADD SLOAD ISZERO PUSH2 0x2B12 JUMPI PUSH1 0x40 MLOAD PUSH3 0x461BCD PUSH1 0xE5 SHL DUP2 MSTORE PUSH1 0x20 PUSH1 0x4 DUP3 ADD MSTORE PUSH1 0x1F PUSH1 0x24 DUP3 ADD MSTORE PUSH32 0x54686973206A6F62206D757374206E6F74206265206F6E206469737075746500 PUSH1 0x44 DUP3 ADD MSTORE PUSH1 0x64 ADD PUSH2 0xD8F JUMP JUMPDEST PUSH1 0x0 DUP3 DUP2 MSTORE PUSH1 0x4 PUSH1 0x20 MSTORE PUSH1 0x40 SWAP1 KECCAK256 PUSH1 0x7 ADD SLOAD PUSH1 0xFF AND ISZERO PUSH2 0x2B44 JUMPI PUSH1 0x40 MLOAD PUSH3 0x461BCD PUSH1 0xE5 SHL DUP2 MSTORE PUSH1 0x4 ADD PUSH2 0xD8F SWAP1 PUSH2 0x3B23 JUMP JUMPDEST PUSH1 0x0 DUP3 DUP2 MSTORE PUSH1 0x4 PUSH1 0x20 MSTORE PUSH1 0x40 DUP2 KECCAK256 PUSH1 0x6 ADD SLOAD PUSH1 0x3 SLOAD SWAP1 SWAP2 SWAP1 PUSH1 0x64 SWAP1 PUSH2 0x2B69 SWAP1 DUP5 PUSH2 0x3C0E JUMP JUMPDEST PUSH2 0x2B73 SWAP2 SWAP1 PUSH2 0x3C2D JUMP JUMPDEST PUSH1 0x0 DUP6 DUP2 MSTORE PUSH1 0x4 PUSH1 0x20 MSTORE PUSH1 0x40 SWAP1 KECCAK256 PUSH1 0x2 ADD SLOAD SWAP1 SWAP2 POP PUSH2 0x2BA4 SWAP1 PUSH1 0x1 PUSH1 0x1 PUSH1 0xA0 SHL SUB AND PUSH2 0x2B9F DUP4 DUP6 PUSH2 0x3C4F JUMP JUMPDEST PUSH2 0x30DB JUMP JUMPDEST PUSH2 0x2BBF PUSH2 0x2BB9 PUSH1 0x0 SLOAD PUSH1 0x1 PUSH1 0x1 PUSH1 0xA0 SHL SUB AND SWAP1 JUMP JUMPDEST DUP3 PUSH2 0x30DB JUMP JUMPDEST POP POP POP PUSH1 0x0 DUP2 DUP2 MSTORE PUSH1 0x4 PUSH1 0x20 MSTORE PUSH1 0x40 SWAP1 KECCAK256 PUSH1 0x7 ADD DUP1 SLOAD PUSH1 0xFF NOT AND PUSH1 0x1 OR SWAP1 SSTORE PUSH2 0xFBD PUSH1 0x1 DUP1 SSTORE JUMP JUMPDEST PUSH1 0x0 DUP3 DUP2 MSTORE PUSH1 0x6 PUSH1 0x20 SWAP1 DUP2 MSTORE PUSH1 0x40 DUP1 DUP4 KECCAK256 DUP1 SLOAD DUP3 MLOAD DUP2 DUP6 MUL DUP2 ADD DUP6 ADD SWAP1 SWAP4 MSTORE DUP1 DUP4 MSTORE DUP5 SWAP4 DUP5 SWAP4 SWAP3 SWAP2 SWAP1 DUP5 SWAP1 DUP5 ADD JUMPDEST DUP3 DUP3 LT ISZERO PUSH2 0x2C7D JUMPI PUSH1 0x0 DUP5 DUP2 MSTORE PUSH1 0x20 SWAP1 DUP2 SWAP1 KECCAK256 PUSH1 0x40 DUP1 MLOAD PUSH1 0x80 DUP2 ADD DUP3 MSTORE PUSH1 0x3 DUP7 MUL SWAP1 SWAP3 ADD DUP1 SLOAD DUP4 MSTORE PUSH1 0x1 DUP1 DUP3 ADD SLOAD DUP5 DUP7 ADD MSTORE PUSH1 0x2 SWAP1 SWAP2 ADD SLOAD PUSH1 0x1 PUSH1 0x1 PUSH1 0xA0 SHL SUB DUP2 AND SWAP3 DUP5 ADD SWAP3 SWAP1 SWAP3 MSTORE PUSH1 0x1 PUSH1 0xA0 SHL SWAP1 SWAP2 DIV PUSH1 0xFF AND ISZERO ISZERO PUSH1 0x60 DUP4 ADD MSTORE SWAP1 DUP4 MSTORE SWAP1 SWAP3 ADD SWAP2 ADD PUSH2 0x2C15 JUMP JUMPDEST POP POP POP POP SWAP1 POP PUSH1 0x0 DUP1 PUSH1 0x0 JUMPDEST DUP4 MLOAD DUP2 LT ISZERO PUSH2 0x2D2E JUMPI DUP4 DUP2 DUP2 MLOAD DUP2 LT PUSH2 0x2CA4 JUMPI PUSH2 0x2CA4 PUSH2 0x3AD6 JUMP JUMPDEST PUSH1 0x20 MUL PUSH1 0x20 ADD ADD MLOAD PUSH1 0x60 ADD MLOAD ISZERO PUSH2 0x2CBA JUMPI PUSH1 0x1 SWAP2 POP JUMPDEST DUP7 PUSH1 0x1 PUSH1 0x1 PUSH1 0xA0 SHL SUB AND DUP5 DUP3 DUP2 MLOAD DUP2 LT PUSH2 0x2CD6 JUMPI PUSH2 0x2CD6 PUSH2 0x3AD6 JUMP JUMPDEST PUSH1 0x20 MUL PUSH1 0x20 ADD ADD MLOAD PUSH1 0x40 ADD MLOAD PUSH1 0x1 PUSH1 0x1 PUSH1 0xA0 SHL SUB AND EQ DUP1 ISZERO PUSH2 0x2D12 JUMPI POP DUP4 DUP2 DUP2 MLOAD DUP2 LT PUSH2 0x2D05 JUMPI PUSH2 0x2D05 PUSH2 0x3AD6 JUMP JUMPDEST PUSH1 0x20 MUL PUSH1 0x20 ADD ADD MLOAD PUSH1 0x60 ADD MLOAD JUMPDEST ISZERO PUSH2 0x2D1C JUMPI PUSH1 0x1 SWAP3 POP JUMPDEST DUP1 PUSH2 0x2D26 DUP2 PUSH2 0x3A80 JUMP JUMPDEST SWAP2 POP POP PUSH2 0x2C89 JUMP JUMPDEST POP SWAP1 SWAP7 SWAP1 SWAP6 POP SWAP4 POP POP POP POP JUMP JUMPDEST PUSH1 0x0 DUP5 MLOAD GT PUSH2 0x2D8C JUMPI PUSH1 0x40 MLOAD PUSH3 0x461BCD PUSH1 0xE5 SHL DUP2 MSTORE PUSH1 0x20 PUSH1 0x4 DUP3 ADD MSTORE PUSH1 0x1A PUSH1 0x24 DUP3 ADD MSTORE PUSH32 0x506C656173652070726F766964652061206A6F62207469746C65000000000000 PUSH1 0x44 DUP3 ADD MSTORE PUSH1 0x64 ADD PUSH2 0xD8F JUMP JUMPDEST PUSH1 0x0 DUP4 MLOAD GT PUSH2 0x2DDD JUMPI PUSH1 0x40 MLOAD PUSH3 0x461BCD PUSH1 0xE5 SHL DUP2 MSTORE PUSH1 0x20 PUSH1 0x4 DUP3 ADD MSTORE PUSH1 0x1C PUSH1 0x24 DUP3 ADD MSTORE PUSH32 0x506C656173652070726F766964652061206465736372697074696F6E00000000 PUSH1 0x44 DUP3 ADD MSTORE PUSH1 0x64 ADD PUSH2 0xD8F JUMP JUMPDEST PUSH1 0x0 DUP3 MLOAD GT PUSH2 0x2E24 JUMPI PUSH1 0x40 MLOAD PUSH3 0x461BCD PUSH1 0xE5 SHL DUP2 MSTORE PUSH1 0x20 PUSH1 0x4 DUP3 ADD MSTORE PUSH1 0x13 PUSH1 0x24 DUP3 ADD MSTORE PUSH19 0x506C656173652070726F766964652074616773 PUSH1 0x68 SHL PUSH1 0x44 DUP3 ADD MSTORE PUSH1 0x64 ADD PUSH2 0xD8F JUMP JUMPDEST PUSH1 0x0 CALLVALUE GT PUSH2 0x2E69 JUMPI PUSH1 0x40 MLOAD PUSH3 0x461BCD PUSH1 0xE5 SHL DUP2 MSTORE PUSH1 0x20 PUSH1 0x4 DUP3 ADD MSTORE PUSH1 0x12 PUSH1 0x24 DUP3 ADD MSTORE PUSH18 0x496E73756666696369656E742066756E6473 PUSH1 0x70 SHL PUSH1 0x44 DUP3 ADD MSTORE PUSH1 0x64 ADD PUSH2 0xD8F JUMP JUMPDEST PUSH2 0x2E77 PUSH1 0x2 DUP1 SLOAD PUSH1 0x1 ADD SWAP1 SSTORE JUMP JUMPDEST PUSH1 0x0 PUSH2 0x2E82 PUSH1 0x2 SLOAD SWAP1 JUMP JUMPDEST SWAP1 POP PUSH2 0x2E8C PUSH2 0x3263 JUMP JUMPDEST DUP2 DUP2 MSTORE CALLER PUSH1 0x20 DUP3 ADD MSTORE PUSH1 0x60 DUP2 ADD DUP7 SWAP1 MSTORE PUSH1 0x80 DUP2 ADD DUP6 SWAP1 MSTORE PUSH1 0xA0 DUP2 ADD DUP5 SWAP1 MSTORE CALLVALUE PUSH1 0xC0 DUP3 ADD MSTORE PUSH1 0x1 PUSH2 0x120 DUP3 ADD MSTORE PUSH2 0x2EC0 PUSH2 0x3244 JUMP JUMPDEST PUSH2 0x100 DUP3 ADD MSTORE PUSH2 0x180 DUP2 ADD DUP4 SWAP1 MSTORE PUSH2 0x2ED6 PUSH2 0x3244 JUMP JUMPDEST PUSH2 0x2EE3 SWAP1 PUSH3 0x278D00 PUSH2 0x3B5A JUMP JUMPDEST PUSH2 0x1A0 DUP3 ADD MSTORE PUSH2 0x2EF1 PUSH2 0x3244 JUMP JUMPDEST PUSH2 0x2EFE SWAP1 PUSH3 0x93A80 PUSH2 0x3B5A JUMP JUMPDEST PUSH2 0x1C0 DUP3 ADD MSTORE PUSH1 0x0 DUP3 DUP2 MSTORE PUSH1 0x4 PUSH1 0x20 SWAP1 DUP2 MSTORE PUSH1 0x40 SWAP2 DUP3 SWAP1 KECCAK256 DUP4 MLOAD DUP2 SSTORE DUP2 DUP5 ADD MLOAD PUSH1 0x1 DUP3 ADD DUP1 SLOAD PUSH1 0x1 PUSH1 0x1 PUSH1 0xA0 SHL SUB NOT SWAP1 DUP2 AND PUSH1 0x1 PUSH1 0x1 PUSH1 0xA0 SHL SUB SWAP4 DUP5 AND OR SWAP1 SWAP2 SSTORE SWAP4 DUP6 ADD MLOAD PUSH1 0x2 DUP4 ADD DUP1 SLOAD SWAP1 SWAP6 AND SWAP2 AND OR SWAP1 SWAP3 SSTORE PUSH1 0x60 DUP4 ADD MLOAD DUP1 MLOAD DUP5 SWAP4 SWAP3 PUSH2 0x2F6D SWAP3 PUSH1 0x3 DUP6 ADD SWAP3 SWAP2 ADD SWAP1 PUSH2 0x3322 JUMP JUMPDEST POP PUSH1 0x80 DUP3 ADD MLOAD DUP1 MLOAD PUSH2 0x2F89 SWAP2 PUSH1 0x4 DUP5 ADD SWAP2 PUSH1 0x20 SWAP1 SWAP2 ADD SWAP1 PUSH2 0x3322 JUMP JUMPDEST POP PUSH1 0xA0 DUP3 ADD MLOAD DUP1 MLOAD PUSH2 0x2FA5 SWAP2 PUSH1 0x5 DUP5 ADD SWAP2 PUSH1 0x20 SWAP1 SWAP2 ADD SWAP1 PUSH2 0x3322 JUMP JUMPDEST POP PUSH1 0xC0 DUP3 ADD MLOAD PUSH1 0x6 DUP3 ADD SSTORE PUSH1 0xE0 DUP3 ADD MLOAD PUSH1 0x7 DUP3 ADD DUP1 SLOAD SWAP2 ISZERO ISZERO PUSH1 0xFF NOT SWAP3 DUP4 AND OR SWAP1 SSTORE PUSH2 0x100 DUP4 ADD MLOAD PUSH1 0x8 DUP4 ADD SSTORE PUSH2 0x120 DUP4 ADD MLOAD PUSH1 0x9 DUP4 ADD DUP1 SLOAD SWAP2 ISZERO ISZERO SWAP2 SWAP1 SWAP3 AND OR SWAP1 SSTORE PUSH2 0x140 DUP3 ADD MLOAD PUSH1 0xA DUP3 ADD SSTORE PUSH2 0x160 DUP3 ADD MLOAD DUP1 MLOAD PUSH2 0x300F SWAP2 PUSH1 0xB DUP5 ADD SWAP2 PUSH1 0x20 SWAP1 SWAP2 ADD SWAP1 PUSH2 0x33A6 JUMP JUMPDEST POP PUSH2 0x180 DUP3 ADD MLOAD DUP1 MLOAD PUSH2 0x302C SWAP2 PUSH1 0xC DUP5 ADD SWAP2 PUSH1 0x20 SWAP1 SWAP2 ADD SWAP1 PUSH2 0x3322 JUMP JUMPDEST POP PUSH2 0x1A0 DUP3 ADD MLOAD PUSH1 0xD DUP3 ADD SSTORE PUSH2 0x1C0 SWAP1 SWAP2 ADD MLOAD PUSH1 0xE SWAP1 SWAP2 ADD SSTORE POP PUSH1 0x0 SWAP1 DUP2 MSTORE PUSH1 0x7 PUSH1 0x20 MSTORE PUSH1 0x40 SWAP1 KECCAK256 DUP1 SLOAD PUSH1 0xFF NOT AND PUSH1 0x1 OR SWAP1 SSTORE POP POP POP POP JUMP JUMPDEST PUSH2 0x306D PUSH2 0x3140 JUMP JUMPDEST PUSH1 0x1 PUSH1 0x1 PUSH1 0xA0 SHL SUB DUP2 AND PUSH2 0x30D2 JUMPI PUSH1 0x40 MLOAD PUSH3 0x461BCD PUSH1 0xE5 SHL DUP2 MSTORE PUSH1 0x20 PUSH1 0x4 DUP3 ADD MSTORE PUSH1 0x26 PUSH1 0x24 DUP3 ADD MSTORE PUSH32 0x4F776E61626C653A206E6577206F776E657220697320746865207A65726F2061 PUSH1 0x44 DUP3 ADD MSTORE PUSH6 0x646472657373 PUSH1 0xD0 SHL PUSH1 0x64 DUP3 ADD MSTORE PUSH1 0x84 ADD PUSH2 0xD8F JUMP JUMPDEST PUSH2 0xFBD DUP2 PUSH2 0x319A JUMP JUMPDEST PUSH1 0x0 DUP3 PUSH1 0x1 PUSH1 0x1 PUSH1 0xA0 SHL SUB AND DUP3 PUSH1 0x40 MLOAD PUSH1 0x0 PUSH1 0x40 MLOAD DUP1 DUP4 SUB DUP2 DUP6 DUP8 GAS CALL SWAP3 POP POP POP RETURNDATASIZE DUP1 PUSH1 0x0 DUP2 EQ PUSH2 0x3128 JUMPI PUSH1 0x40 MLOAD SWAP2 POP PUSH1 0x1F NOT PUSH1 0x3F RETURNDATASIZE ADD AND DUP3 ADD PUSH1 0x40 MSTORE RETURNDATASIZE DUP3 MSTORE RETURNDATASIZE PUSH1 0x0 PUSH1 0x20 DUP5 ADD RETURNDATACOPY PUSH2 0x312D JUMP JUMPDEST PUSH1 0x60 SWAP2 POP JUMPDEST POP POP SWAP1 POP DUP1 PUSH2 0x313B JUMPI PUSH1 0x0 DUP1 REVERT JUMPDEST POP POP POP JUMP JUMPDEST PUSH1 0x0 SLOAD PUSH1 0x1 PUSH1 0x1 PUSH1 0xA0 SHL SUB AND CALLER EQ PUSH2 0x1495 JUMPI PUSH1 0x40 MLOAD PUSH3 0x461BCD PUSH1 0xE5 SHL DUP2 MSTORE PUSH1 0x20 PUSH1 0x4 DUP3 ADD DUP2 SWAP1 MSTORE PUSH1 0x24 DUP3 ADD MSTORE PUSH32 0x4F776E61626C653A2063616C6C6572206973206E6F7420746865206F776E6572 PUSH1 0x44 DUP3 ADD MSTORE PUSH1 0x64 ADD PUSH2 0xD8F JUMP JUMPDEST PUSH1 0x0 DUP1 SLOAD PUSH1 0x1 PUSH1 0x1 PUSH1 0xA0 SHL SUB DUP4 DUP2 AND PUSH1 0x1 PUSH1 0x1 PUSH1 0xA0 SHL SUB NOT DUP4 AND DUP2 OR DUP5 SSTORE PUSH1 0x40 MLOAD SWAP2 SWAP1 SWAP3 AND SWAP3 DUP4 SWAP2 PUSH32 0x8BE0079C531659141344CD1FD0A4F28419497F9722A3DAAFE3B4186F6B6457E0 SWAP2 SWAP1 LOG3 POP POP JUMP JUMPDEST PUSH1 0x2 PUSH1 0x1 SLOAD EQ ISZERO PUSH2 0x323D JUMPI PUSH1 0x40 MLOAD PUSH3 0x461BCD PUSH1 0xE5 SHL DUP2 MSTORE PUSH1 0x20 PUSH1 0x4 DUP3 ADD MSTORE PUSH1 0x1F PUSH1 0x24 DUP3 ADD MSTORE PUSH32 0x5265656E7472616E637947756172643A207265656E7472616E742063616C6C00 PUSH1 0x44 DUP3 ADD MSTORE PUSH1 0x64 ADD PUSH2 0xD8F JUMP JUMPDEST PUSH1 0x2 PUSH1 0x1 SSTORE JUMP JUMPDEST PUSH1 0x0 PUSH2 0x3252 TIMESTAMP PUSH2 0x3E8 PUSH2 0x3C0E JUMP JUMPDEST PUSH2 0x325E SWAP1 PUSH2 0x3E8 PUSH2 0x3B5A JUMP JUMPDEST SWAP1 POP SWAP1 JUMP JUMPDEST PUSH1 0x40 MLOAD DUP1 PUSH2 0x1E0 ADD PUSH1 0x40 MSTORE DUP1 PUSH1 0x0 DUP2 MSTORE PUSH1 0x20 ADD PUSH1 0x0 PUSH1 0x1 PUSH1 0x1 PUSH1 0xA0 SHL SUB AND DUP2 MSTORE PUSH1 0x20 ADD PUSH1 0x0 PUSH1 0x1 PUSH1 0x1 PUSH1 0xA0 SHL SUB AND DUP2 MSTORE PUSH1 0x20 ADD PUSH1 0x60 DUP2 MSTORE PUSH1 0x20 ADD PUSH1 0x60 DUP2 MSTORE PUSH1 0x20 ADD PUSH1 0x60 DUP2 MSTORE PUSH1 0x20 ADD PUSH1 0x0 DUP2 MSTORE PUSH1 0x20 ADD PUSH1 0x0 ISZERO ISZERO DUP2 MSTORE PUSH1 0x20 ADD PUSH1 0x0 DUP2 MSTORE PUSH1 0x20 ADD PUSH1 0x0 ISZERO ISZERO DUP2 MSTORE PUSH1 0x20 ADD PUSH1 0x0 DUP2 MSTORE PUSH1 0x20 ADD PUSH1 0x60 DUP2 MSTORE PUSH1 0x20 ADD PUSH1 0x60 DUP2 MSTORE PUSH1 0x20 ADD PUSH1 0x0 DUP2 MSTORE PUSH1 0x20 ADD PUSH1 0x0 DUP2 MSTORE POP SWAP1 JUMP JUMPDEST PUSH1 0x40 MLOAD DUP1 PUSH1 0x80 ADD PUSH1 0x40 MSTORE DUP1 PUSH1 0x0 DUP2 MSTORE PUSH1 0x20 ADD PUSH1 0x0 DUP2 MSTORE PUSH1 0x20 ADD PUSH1 0x0 PUSH1 0x1 PUSH1 0x1 PUSH1 0xA0 SHL SUB AND DUP2 MSTORE PUSH1 0x20 ADD PUSH1 0x0 ISZERO ISZERO DUP2 MSTORE POP SWAP1 JUMP JUMPDEST DUP3 DUP1 SLOAD PUSH2 0x332E SWAP1 PUSH2 0x3A9B JUMP JUMPDEST SWAP1 PUSH1 0x0 MSTORE PUSH1 0x20 PUSH1 0x0 KECCAK256 SWAP1 PUSH1 0x1F ADD PUSH1 0x20 SWAP1 DIV DUP2 ADD SWAP3 DUP3 PUSH2 0x3350 JUMPI PUSH1 0x0 DUP6 SSTORE PUSH2 0x3396 JUMP JUMPDEST DUP3 PUSH1 0x1F LT PUSH2 0x3369 JUMPI DUP1 MLOAD PUSH1 0xFF NOT AND DUP4 DUP1 ADD OR DUP6 SSTORE PUSH2 0x3396 JUMP JUMPDEST DUP3 DUP1 ADD PUSH1 0x1 ADD DUP6 SSTORE DUP3 ISZERO PUSH2 0x3396 JUMPI SWAP2 DUP3 ADD JUMPDEST DUP3 DUP2 GT ISZERO PUSH2 0x3396 JUMPI DUP3 MLOAD DUP3 SSTORE SWAP2 PUSH1 0x20 ADD SWAP2 SWAP1 PUSH1 0x1 ADD SWAP1 PUSH2 0x337B JUMP JUMPDEST POP PUSH2 0x33A2 SWAP3 SWAP2 POP PUSH2 0x33FB JUMP JUMPDEST POP SWAP1 JUMP JUMPDEST DUP3 DUP1 SLOAD DUP3 DUP3 SSTORE SWAP1 PUSH1 0x0 MSTORE PUSH1 0x20 PUSH1 0x0 KECCAK256 SWAP1 DUP2 ADD SWAP3 DUP3 ISZERO PUSH2 0x3396 JUMPI SWAP2 PUSH1 0x20 MUL DUP3 ADD JUMPDEST DUP3 DUP2 GT ISZERO PUSH2 0x3396 JUMPI DUP3 MLOAD DUP3 SLOAD PUSH1 0x1 PUSH1 0x1 PUSH1 0xA0 SHL SUB NOT AND PUSH1 0x1 PUSH1 0x1 PUSH1 0xA0 SHL SUB SWAP1 SWAP2 AND OR DUP3 SSTORE PUSH1 0x20 SWAP1 SWAP3 ADD SWAP2 PUSH1 0x1 SWAP1 SWAP2 ADD SWAP1 PUSH2 0x33C6 JUMP JUMPDEST JUMPDEST DUP1 DUP3 GT ISZERO PUSH2 0x33A2 JUMPI PUSH1 0x0 DUP2 SSTORE PUSH1 0x1 ADD PUSH2 0x33FC JUMP JUMPDEST DUP1 CALLDATALOAD PUSH1 0x1 PUSH1 0x1 PUSH1 0xA0 SHL SUB DUP2 AND DUP2 EQ PUSH2 0xD5C JUMPI PUSH1 0x0 DUP1 REVERT JUMPDEST PUSH1 0x0 DUP1 PUSH1 0x40 DUP4 DUP6 SUB SLT ISZERO PUSH2 0x343A JUMPI PUSH1 0x0 DUP1 REVERT JUMPDEST DUP3 CALLDATALOAD SWAP2 POP PUSH2 0x344A PUSH1 0x20 DUP5 ADD PUSH2 0x3410 JUMP JUMPDEST SWAP1 POP SWAP3 POP SWAP3 SWAP1 POP JUMP JUMPDEST PUSH1 0x0 DUP2 MLOAD DUP1 DUP5 MSTORE PUSH1 0x0 JUMPDEST DUP2 DUP2 LT ISZERO PUSH2 0x3479 JUMPI PUSH1 0x20 DUP2 DUP6 ADD DUP2 ADD MLOAD DUP7 DUP4 ADD DUP3 ADD MSTORE ADD PUSH2 0x345D JUMP JUMPDEST DUP2 DUP2 GT ISZERO PUSH2 0x348B JUMPI PUSH1 0x0 PUSH1 0x20 DUP4 DUP8 ADD ADD MSTORE JUMPDEST POP PUSH1 0x1F ADD PUSH1 0x1F NOT AND SWAP3 SWAP1 SWAP3 ADD PUSH1 0x20 ADD SWAP3 SWAP2 POP POP JUMP JUMPDEST PUSH1 0x0 DUP2 MLOAD DUP1 DUP5 MSTORE PUSH1 0x20 DUP1 DUP6 ADD SWAP5 POP DUP1 DUP5 ADD PUSH1 0x0 JUMPDEST DUP4 DUP2 LT ISZERO PUSH2 0x34D9 JUMPI DUP2 MLOAD PUSH1 0x1 PUSH1 0x1 PUSH1 0xA0 SHL SUB AND DUP8 MSTORE SWAP6 DUP3 ADD SWAP6 SWAP1 DUP3 ADD SWAP1 PUSH1 0x1 ADD PUSH2 0x34B4 JUMP JUMPDEST POP SWAP5 SWAP6 SWAP5 POP POP POP POP POP JUMP JUMPDEST PUSH1 0x0 PUSH2 0x1E0 DUP3 MLOAD DUP5 MSTORE PUSH1 0x20 DUP4 ADD MLOAD PUSH2 0x3507 PUSH1 0x20 DUP7 ADD DUP3 PUSH1 0x1 PUSH1 0x1 PUSH1 0xA0 SHL SUB AND SWAP1 MSTORE JUMP JUMPDEST POP PUSH1 0x40 DUP4 ADD MLOAD PUSH2 0x3522 PUSH1 0x40 DUP7 ADD DUP3 PUSH1 0x1 PUSH1 0x1 PUSH1 0xA0 SHL SUB AND SWAP1 MSTORE JUMP JUMPDEST POP PUSH1 0x60 DUP4 ADD MLOAD DUP2 PUSH1 0x60 DUP7 ADD MSTORE PUSH2 0x353A DUP3 DUP7 ADD DUP3 PUSH2 0x3453 JUMP JUMPDEST SWAP2 POP POP PUSH1 0x80 DUP4 ADD MLOAD DUP5 DUP3 SUB PUSH1 0x80 DUP7 ADD MSTORE PUSH2 0x3554 DUP3 DUP3 PUSH2 0x3453 JUMP JUMPDEST SWAP2 POP POP PUSH1 0xA0 DUP4 ADD MLOAD DUP5 DUP3 SUB PUSH1 0xA0 DUP7 ADD MSTORE PUSH2 0x356E DUP3 DUP3 PUSH2 0x3453 JUMP JUMPDEST SWAP2 POP POP PUSH1 0xC0 DUP4 ADD MLOAD PUSH1 0xC0 DUP6 ADD MSTORE PUSH1 0xE0 DUP4 ADD MLOAD PUSH2 0x358E PUSH1 0xE0 DUP7 ADD DUP3 ISZERO ISZERO SWAP1 MSTORE JUMP JUMPDEST POP PUSH2 0x100 DUP4 DUP2 ADD MLOAD SWAP1 DUP6 ADD MSTORE PUSH2 0x120 DUP1 DUP5 ADD MLOAD ISZERO ISZERO SWAP1 DUP6 ADD MSTORE PUSH2 0x140 DUP1 DUP5 ADD MLOAD SWAP1 DUP6 ADD MSTORE PUSH2 0x160 DUP1 DUP5 ADD MLOAD DUP6 DUP4 SUB DUP3 DUP8 ADD MSTORE PUSH2 0x35CA DUP4 DUP3 PUSH2 0x34A0 JUMP JUMPDEST SWAP3 POP POP POP PUSH2 0x180 DUP1 DUP5 ADD MLOAD DUP6 DUP4 SUB DUP3 DUP8 ADD MSTORE PUSH2 0x35E6 DUP4 DUP3 PUSH2 0x3453 JUMP JUMPDEST PUSH2 0x1A0 DUP7 DUP2 ADD MLOAD SWAP1 DUP9 ADD MSTORE PUSH2 0x1C0 SWAP6 DUP7 ADD MLOAD SWAP6 SWAP1 SWAP7 ADD SWAP5 SWAP1 SWAP5 MSTORE POP SWAP3 SWAP4 SWAP3 POP POP POP JUMP JUMPDEST PUSH1 0x0 PUSH1 0x20 DUP1 DUP4 ADD DUP2 DUP5 MSTORE DUP1 DUP6 MLOAD DUP1 DUP4 MSTORE PUSH1 0x40 DUP7 ADD SWAP2 POP PUSH1 0x40 DUP2 PUSH1 0x5 SHL DUP8 ADD ADD SWAP3 POP DUP4 DUP8 ADD PUSH1 0x0 JUMPDEST DUP3 DUP2 LT ISZERO PUSH2 0x365E JUMPI PUSH1 0x3F NOT DUP9 DUP7 SUB ADD DUP5 MSTORE PUSH2 0x364C DUP6 DUP4 MLOAD PUSH2 0x34E4 JUMP JUMPDEST SWAP5 POP SWAP3 DUP6 ADD SWAP3 SWAP1 DUP6 ADD SWAP1 PUSH1 0x1 ADD PUSH2 0x3630 JUMP JUMPDEST POP SWAP3 SWAP8 SWAP7 POP POP POP POP POP POP POP JUMP JUMPDEST PUSH1 0x0 PUSH1 0x20 DUP3 DUP5 SUB SLT ISZERO PUSH2 0x367D JUMPI PUSH1 0x0 DUP1 REVERT JUMPDEST POP CALLDATALOAD SWAP2 SWAP1 POP JUMP JUMPDEST PUSH1 0x20 DUP1 DUP3 MSTORE DUP3 MLOAD DUP3 DUP3 ADD DUP2 SWAP1 MSTORE PUSH1 0x0 SWAP2 SWAP1 PUSH1 0x40 SWAP1 DUP2 DUP6 ADD SWAP1 DUP7 DUP5 ADD DUP6 JUMPDEST DUP3 DUP2 LT ISZERO PUSH2 0x36D7 JUMPI PUSH2 0x36C7 DUP5 DUP4 MLOAD DUP1 MLOAD DUP3 MSTORE PUSH1 0x20 SWAP1 DUP2 ADD MLOAD PUSH1 0x1 PUSH1 0x1 PUSH1 0xA0 SHL SUB AND SWAP2 ADD MSTORE JUMP JUMPDEST SWAP3 DUP5 ADD SWAP3 SWAP1 DUP6 ADD SWAP1 PUSH1 0x1 ADD PUSH2 0x36A1 JUMP JUMPDEST POP SWAP2 SWAP8 SWAP7 POP POP POP POP POP POP POP JUMP JUMPDEST PUSH1 0x20 DUP1 DUP3 MSTORE DUP3 MLOAD DUP3 DUP3 ADD DUP2 SWAP1 MSTORE PUSH1 0x0 SWAP2 SWAP1 PUSH1 0x40 SWAP1 DUP2 DUP6 ADD SWAP1 DUP7 DUP5 ADD DUP6 JUMPDEST DUP3 DUP2 LT ISZERO PUSH2 0x36D7 JUMPI DUP2 MLOAD DUP1 MLOAD DUP6 MSTORE DUP7 DUP2 ADD MLOAD DUP8 DUP7 ADD MSTORE DUP6 DUP2 ADD MLOAD PUSH1 0x1 PUSH1 0x1 PUSH1 0xA0 SHL SUB AND DUP7 DUP7 ADD MSTORE PUSH1 0x60 SWAP1 DUP2 ADD MLOAD ISZERO ISZERO SWAP1 DUP6 ADD MSTORE PUSH1 0x80 SWAP1 SWAP4 ADD SWAP3 SWAP1 DUP6 ADD SWAP1 PUSH1 0x1 ADD PUSH2 0x3701 JUMP JUMPDEST PUSH4 0x4E487B71 PUSH1 0xE0 SHL PUSH1 0x0 MSTORE PUSH1 0x41 PUSH1 0x4 MSTORE PUSH1 0x24 PUSH1 0x0 REVERT JUMPDEST PUSH1 0x0 DUP3 PUSH1 0x1F DUP4 ADD SLT PUSH2 0x376D JUMPI PUSH1 0x0 DUP1 REVERT JUMPDEST DUP2 CALLDATALOAD PUSH8 0xFFFFFFFFFFFFFFFF DUP1 DUP3 GT ISZERO PUSH2 0x3788 JUMPI PUSH2 0x3788 PUSH2 0x3746 JUMP JUMPDEST PUSH1 0x40 MLOAD PUSH1 0x1F DUP4 ADD PUSH1 0x1F NOT SWAP1 DUP2 AND PUSH1 0x3F ADD AND DUP2 ADD SWAP1 DUP3 DUP3 GT DUP2 DUP4 LT OR ISZERO PUSH2 0x37B0 JUMPI PUSH2 0x37B0 PUSH2 0x3746 JUMP JUMPDEST DUP2 PUSH1 0x40 MSTORE DUP4 DUP2 MSTORE DUP7 PUSH1 0x20 DUP6 DUP9 ADD ADD GT ISZERO PUSH2 0x37C9 JUMPI PUSH1 0x0 DUP1 REVERT JUMPDEST DUP4 PUSH1 0x20 DUP8 ADD PUSH1 0x20 DUP4 ADD CALLDATACOPY PUSH1 0x0 PUSH1 0x20 DUP6 DUP4 ADD ADD MSTORE DUP1 SWAP5 POP POP POP POP POP SWAP3 SWAP2 POP POP JUMP JUMPDEST PUSH1 0x0 DUP1 PUSH1 0x0 DUP1 PUSH1 0x0 PUSH1 0xA0 DUP7 DUP9 SUB SLT ISZERO PUSH2 0x3801 JUMPI PUSH1 0x0 DUP1 REVERT JUMPDEST DUP6 CALLDATALOAD SWAP5 POP PUSH1 0x20 DUP7 ADD CALLDATALOAD PUSH8 0xFFFFFFFFFFFFFFFF DUP1 DUP3 GT ISZERO PUSH2 0x3820 JUMPI PUSH1 0x0 DUP1 REVERT JUMPDEST PUSH2 0x382C DUP10 DUP4 DUP11 ADD PUSH2 0x375C JUMP JUMPDEST SWAP6 POP PUSH1 0x40 DUP9 ADD CALLDATALOAD SWAP2 POP DUP1 DUP3 GT ISZERO PUSH2 0x3842 JUMPI PUSH1 0x0 DUP1 REVERT JUMPDEST PUSH2 0x384E DUP10 DUP4 DUP11 ADD PUSH2 0x375C JUMP JUMPDEST SWAP5 POP PUSH1 0x60 DUP9 ADD CALLDATALOAD SWAP2 POP DUP1 DUP3 GT ISZERO PUSH2 0x3864 JUMPI PUSH1 0x0 DUP1 REVERT JUMPDEST PUSH2 0x3870 DUP10 DUP4 DUP11 ADD PUSH2 0x375C JUMP JUMPDEST SWAP4 POP PUSH1 0x80 DUP9 ADD CALLDATALOAD SWAP2 POP DUP1 DUP3 GT ISZERO PUSH2 0x3886 JUMPI PUSH1 0x0 DUP1 REVERT JUMPDEST POP PUSH2 0x3893 DUP9 DUP3 DUP10 ADD PUSH2 0x375C JUMP JUMPDEST SWAP2 POP POP SWAP3 SWAP6 POP SWAP3 SWAP6 SWAP1 SWAP4 POP JUMP JUMPDEST PUSH1 0x0 DUP1 PUSH1 0x40 DUP4 DUP6 SUB SLT ISZERO PUSH2 0x38B3 JUMPI PUSH1 0x0 DUP1 REVERT JUMPDEST POP POP DUP1 CALLDATALOAD SWAP3 PUSH1 0x20 SWAP1 SWAP2 ADD CALLDATALOAD SWAP2 POP JUMP JUMPDEST PUSH1 0x0 DUP1 PUSH1 0x40 DUP4 DUP6 SUB SLT ISZERO PUSH2 0x38D5 JUMPI PUSH1 0x0 DUP1 REVERT JUMPDEST PUSH2 0x38DE DUP4 PUSH2 0x3410 JUMP JUMPDEST SWAP5 PUSH1 0x20 SWAP4 SWAP1 SWAP4 ADD CALLDATALOAD SWAP4 POP POP POP JUMP JUMPDEST PUSH1 0x0 PUSH1 0x20 DUP3 DUP5 SUB SLT ISZERO PUSH2 0x38FE JUMPI PUSH1 0x0 DUP1 REVERT JUMPDEST PUSH2 0x3907 DUP3 PUSH2 0x3410 JUMP JUMPDEST SWAP4 SWAP3 POP POP POP JUMP JUMPDEST PUSH1 0x20 DUP2 MSTORE PUSH1 0x0 PUSH2 0x3907 PUSH1 0x20 DUP4 ADD DUP5 PUSH2 0x34E4 JUMP JUMPDEST PUSH1 0x0 DUP1 PUSH1 0x40 DUP4 DUP6 SUB SLT ISZERO PUSH2 0x3934 JUMPI PUSH1 0x0 DUP1 REVERT JUMPDEST DUP3 CALLDATALOAD SWAP2 POP PUSH1 0x20 DUP4 ADD CALLDATALOAD PUSH8 0xFFFFFFFFFFFFFFFF DUP2 GT ISZERO PUSH2 0x3952 JUMPI PUSH1 0x0 DUP1 REVERT JUMPDEST PUSH2 0x395E DUP6 DUP3 DUP7 ADD PUSH2 0x375C JUMP JUMPDEST SWAP2 POP POP SWAP3 POP SWAP3 SWAP1 POP JUMP JUMPDEST PUSH1 0x0 DUP1 PUSH1 0x0 PUSH1 0x60 DUP5 DUP7 SUB SLT ISZERO PUSH2 0x397D JUMPI PUSH1 0x0 DUP1 REVERT JUMPDEST DUP4 CALLDATALOAD SWAP3 POP PUSH1 0x20 DUP5 ADD CALLDATALOAD SWAP2 POP PUSH2 0x3994 PUSH1 0x40 DUP6 ADD PUSH2 0x3410 JUMP JUMPDEST SWAP1 POP SWAP3 POP SWAP3 POP SWAP3 JUMP JUMPDEST DUP2 MLOAD DUP2 MSTORE PUSH1 0x20 DUP1 DUP4 ADD MLOAD PUSH1 0x1 PUSH1 0x1 PUSH1 0xA0 SHL SUB AND SWAP1 DUP3 ADD MSTORE PUSH1 0x40 DUP2 ADD PUSH2 0x294D JUMP JUMPDEST PUSH1 0x0 DUP1 PUSH1 0x0 DUP1 PUSH1 0x80 DUP6 DUP8 SUB SLT ISZERO PUSH2 0x39D3 JUMPI PUSH1 0x0 DUP1 REVERT JUMPDEST DUP5 CALLDATALOAD PUSH8 0xFFFFFFFFFFFFFFFF DUP1 DUP3 GT ISZERO PUSH2 0x39EB JUMPI PUSH1 0x0 DUP1 REVERT JUMPDEST PUSH2 0x39F7 DUP9 DUP4 DUP10 ADD PUSH2 0x375C JUMP JUMPDEST SWAP6 POP PUSH1 0x20 DUP8 ADD CALLDATALOAD SWAP2 POP DUP1 DUP3 GT ISZERO PUSH2 0x3A0D JUMPI PUSH1 0x0 DUP1 REVERT JUMPDEST PUSH2 0x3A19 DUP9 DUP4 DUP10 ADD PUSH2 0x375C JUMP JUMPDEST SWAP5 POP PUSH1 0x40 DUP8 ADD CALLDATALOAD SWAP2 POP DUP1 DUP3 GT ISZERO PUSH2 0x3A2F JUMPI PUSH1 0x0 DUP1 REVERT JUMPDEST PUSH2 0x3A3B DUP9 DUP4 DUP10 ADD PUSH2 0x375C JUMP JUMPDEST SWAP4 POP PUSH1 0x60 DUP8 ADD CALLDATALOAD SWAP2 POP DUP1 DUP3 GT ISZERO PUSH2 0x3A51 JUMPI PUSH1 0x0 DUP1 REVERT JUMPDEST POP PUSH2 0x3A5E DUP8 DUP3 DUP9 ADD PUSH2 0x375C JUMP JUMPDEST SWAP2 POP POP SWAP3 SWAP6 SWAP2 SWAP5 POP SWAP3 POP JUMP JUMPDEST PUSH4 0x4E487B71 PUSH1 0xE0 SHL PUSH1 0x0 MSTORE PUSH1 0x11 PUSH1 0x4 MSTORE PUSH1 0x24 PUSH1 0x0 REVERT JUMPDEST PUSH1 0x0 PUSH1 0x0 NOT DUP3 EQ ISZERO PUSH2 0x3A94 JUMPI PUSH2 0x3A94 PUSH2 0x3A6A JUMP JUMPDEST POP PUSH1 0x1 ADD SWAP1 JUMP JUMPDEST PUSH1 0x1 DUP2 DUP2 SHR SWAP1 DUP3 AND DUP1 PUSH2 0x3AAF JUMPI PUSH1 0x7F DUP3 AND SWAP2 POP JUMPDEST PUSH1 0x20 DUP3 LT DUP2 EQ ISZERO PUSH2 0x3AD0 JUMPI PUSH4 0x4E487B71 PUSH1 0xE0 SHL PUSH1 0x0 MSTORE PUSH1 0x22 PUSH1 0x4 MSTORE PUSH1 0x24 PUSH1 0x0 REVERT JUMPDEST POP SWAP2 SWAP1 POP JUMP JUMPDEST PUSH4 0x4E487B71 PUSH1 0xE0 SHL PUSH1 0x0 MSTORE PUSH1 0x32 PUSH1 0x4 MSTORE PUSH1 0x24 PUSH1 0x0 REVERT JUMPDEST PUSH1 0x20 DUP1 DUP3 MSTORE PUSH1 0x1E SWAP1 DUP3 ADD MSTORE PUSH32 0x54686973206A6F62206C697374696E6720646F65736E27742065786973740000 PUSH1 0x40 DUP3 ADD MSTORE PUSH1 0x60 ADD SWAP1 JUMP JUMPDEST PUSH1 0x20 DUP1 DUP3 MSTORE PUSH1 0x1A SWAP1 DUP3 ADD MSTORE PUSH32 0x54686973206A6F6220686173206265656E2070616964206F7574000000000000 PUSH1 0x40 DUP3 ADD MSTORE PUSH1 0x60 ADD SWAP1 JUMP JUMPDEST PUSH1 0x0 DUP3 NOT DUP3 GT ISZERO PUSH2 0x3B6D JUMPI PUSH2 0x3B6D PUSH2 0x3A6A JUMP JUMPDEST POP ADD SWAP1 JUMP JUMPDEST PUSH1 0x0 DUP1 DUP4 SLOAD DUP2 PUSH1 0x1 DUP3 DUP2 SHR SWAP2 POP DUP1 DUP4 AND DUP1 PUSH2 0x3B8E JUMPI PUSH1 0x7F DUP4 AND SWAP3 POP JUMPDEST PUSH1 0x20 DUP1 DUP5 LT DUP3 EQ ISZERO PUSH2 0x3BAE JUMPI PUSH4 0x4E487B71 PUSH1 0xE0 SHL DUP7 MSTORE PUSH1 0x22 PUSH1 0x4 MSTORE PUSH1 0x24 DUP7 REVERT JUMPDEST DUP2 DUP1 ISZERO PUSH2 0x3BC2 JUMPI PUSH1 0x1 DUP2 EQ PUSH2 0x3BD3 JUMPI PUSH2 0x3C00 JUMP JUMPDEST PUSH1 0xFF NOT DUP7 AND DUP10 MSTORE DUP5 DUP10 ADD SWAP7 POP PUSH2 0x3C00 JUMP JUMPDEST PUSH1 0x0 DUP11 DUP2 MSTORE PUSH1 0x20 SWAP1 KECCAK256 PUSH1 0x0 JUMPDEST DUP7 DUP2 LT ISZERO PUSH2 0x3BF8 JUMPI DUP2 SLOAD DUP12 DUP3 ADD MSTORE SWAP1 DUP6 ADD SWAP1 DUP4 ADD PUSH2 0x3BDF JUMP JUMPDEST POP POP DUP5 DUP10 ADD SWAP7 POP JUMPDEST POP SWAP5 SWAP9 SWAP8 POP POP POP POP POP POP POP POP JUMP JUMPDEST PUSH1 0x0 DUP2 PUSH1 0x0 NOT DIV DUP4 GT DUP3 ISZERO ISZERO AND ISZERO PUSH2 0x3C28 JUMPI PUSH2 0x3C28 PUSH2 0x3A6A JUMP JUMPDEST POP MUL SWAP1 JUMP JUMPDEST PUSH1 0x0 DUP3 PUSH2 0x3C4A JUMPI PUSH4 0x4E487B71 PUSH1 0xE0 SHL PUSH1 0x0 MSTORE PUSH1 0x12 PUSH1 0x4 MSTORE PUSH1 0x24 PUSH1 0x0 REVERT JUMPDEST POP DIV SWAP1 JUMP JUMPDEST PUSH1 0x0 DUP3 DUP3 LT ISZERO PUSH2 0x3C61 JUMPI PUSH2 0x3C61 PUSH2 0x3A6A JUMP JUMPDEST POP SUB SWAP1 JUMP INVALID LOG2 PUSH5 0x6970667358 0x22 SLT KECCAK256 0xDA DUP15 0x2D 0xD7 0x2C CODECOPY PUSH27 0x6EFA7A05C6EDDD50781FF205E517110E9DF3B649A72C1DE3C26473 PUSH16 0x6C634300080B00330000000000000000 "},"methodIdentifiers":{"acceptBid(uint256,uint256,address)":"def5e737","addJobListing(string,string,string,string)":"ebad1b89","bidForJob(uint256,string)":"cd97c9de","bidPassStatus(uint256,address)":"e6f813aa","bidStatus(uint256)":"a7e2a330","countTotalBids(uint256)":"aa4ccafa","deleteJob(uint256)":"6358bb8c","dispute(uint256)":"86d6282c","getAcceptedFreelancer(uint256)":"eb361f81","getAssignedJobs()":"00ebd5fa","getBidders(uint256)":"4fa7b507","getBidsForBidder()":"9180f2a0","getFreelancers(uint256)":"4b3f53e0","getJob(uint256)":"bf22c457","getJobs()":"68581ebd","getJobsForBidder()":"c4ff0b45","getMyJobs()":"9b00214c","hasPlacedBid(uint256,address)":"000a106b","isRegistered(address)":"c3c5a547","jobsBidByUser(address,uint256)":"8d95e37d","nextUserId()":"a1e6a255","owner()":"8da5cb5b","payout(uint256)":"e1152343","platformCharge()":"8b142225","registerOrLogin()":"1d8c91a1","renounceOwnership()":"715018a6","resolved(uint256,uint256)":"71928fe1","revoke(uint256,uint256)":"be1b6fc6","transferOwnership(address)":"f2fde38b","updateJob(uint256,string,string,string,string)":"5af7e835","users(address)":"a87430ba"}}}}}