{
  "_format": "hh-sol-artifact-1",
  "contractName": "PUZchain",
  "sourceName": "src/contracts/Puzz.sol",
  "abi": [
    {
      "anonymous": false,
      "inputs": [
        {
          "indexed": true,
          "internalType": "address",
          "name": "previousOwner",
          "type": "address"
        },
        {
          "indexed": true,
          "internalType": "address",
          "name": "newOwner",
          "type": "address"
        }
      ],
      "name": "OwnershipTransferred",
      "type": "event"
    },
    {
      "anonymous": false,
      "inputs": [
        {
          "indexed": true,
          "internalType": "uint256",
          "name": "id",
          "type": "uint256"
        },
        {
          "indexed": true,
          "internalType": "address",
          "name": "creator",
          "type": "address"
        }
      ],
      "name": "PuzzleCreated",
      "type": "event"
    },
    {
      "anonymous": false,
      "inputs": [
        {
          "indexed": true,
          "internalType": "uint256",
          "name": "id",
          "type": "uint256"
        },
        {
          "indexed": false,
          "internalType": "uint256",
          "name": "puzzleId",
          "type": "uint256"
        },
        {
          "indexed": true,
          "internalType": "address",
          "name": "solver",
          "type": "address"
        }
      ],
      "name": "SolutionApproved",
      "type": "event"
    },
    {
      "anonymous": false,
      "inputs": [
        {
          "indexed": true,
          "internalType": "uint256",
          "name": "id",
          "type": "uint256"
        },
        {
          "indexed": false,
          "internalType": "uint256",
          "name": "puzzleId",
          "type": "uint256"
        },
        {
          "indexed": true,
          "internalType": "address",
          "name": "solver",
          "type": "address"
        }
      ],
      "name": "SolutionSubmitted",
      "type": "event"
    },
    {
      "inputs": [
        {
          "internalType": "uint256",
          "name": "puzzleId",
          "type": "uint256"
        },
        {
          "internalType": "uint256",
          "name": "solutionIndex",
          "type": "uint256"
        }
      ],
      "name": "approveSolution",
      "outputs": [],
      "stateMutability": "nonpayable",
      "type": "function"
    },
    {
      "inputs": [
        {
          "internalType": "string",
          "name": "title",
          "type": "string"
        },
        {
          "internalType": "string",
          "name": "description",
          "type": "string"
        }
      ],
      "name": "createPuzzle",
      "outputs": [],
      "stateMutability": "payable",
      "type": "function"
    },
    {
      "inputs": [],
      "name": "getAllPuzzles",
      "outputs": [
        {
          "components": [
            {
              "internalType": "uint256",
              "name": "id",
              "type": "uint256"
            },
            {
              "internalType": "address",
              "name": "creator",
              "type": "address"
            },
            {
              "internalType": "string",
              "name": "title",
              "type": "string"
            },
            {
              "internalType": "string",
              "name": "description",
              "type": "string"
            },
            {
              "internalType": "uint256",
              "name": "reward",
              "type": "uint256"
            },
            {
              "internalType": "bool",
              "name": "solved",
              "type": "bool"
            },
            {
              "internalType": "uint256",
              "name": "timestamp",
              "type": "uint256"
            }
          ],
          "internalType": "struct PUZchain.PuzzleStruct[]",
          "name": "",
          "type": "tuple[]"
        }
      ],
      "stateMutability": "view",
      "type": "function"
    },
    {
      "inputs": [],
      "name": "getMyPuzzles",
      "outputs": [
        {
          "components": [
            {
              "internalType": "uint256",
              "name": "id",
              "type": "uint256"
            },
            {
              "internalType": "address",
              "name": "creator",
              "type": "address"
            },
            {
              "internalType": "string",
              "name": "title",
              "type": "string"
            },
            {
              "internalType": "string",
              "name": "description",
              "type": "string"
            },
            {
              "internalType": "uint256",
              "name": "reward",
              "type": "uint256"
            },
            {
              "internalType": "bool",
              "name": "solved",
              "type": "bool"
            },
            {
              "internalType": "uint256",
              "name": "timestamp",
              "type": "uint256"
            }
          ],
          "internalType": "struct PUZchain.PuzzleStruct[]",
          "name": "",
          "type": "tuple[]"
        }
      ],
      "stateMutability": "view",
      "type": "function"
    },
    {
      "inputs": [],
      "name": "getMySolutions",
      "outputs": [
        {
          "components": [
            {
              "internalType": "uint256",
              "name": "id",
              "type": "uint256"
            },
            {
              "internalType": "uint256",
              "name": "puzzleId",
              "type": "uint256"
            },
            {
              "internalType": "address",
              "name": "solver",
              "type": "address"
            },
            {
              "internalType": "string",
              "name": "answer",
              "type": "string"
            },
            {
              "internalType": "bool",
              "name": "approved",
              "type": "bool"
            },
            {
              "internalType": "bool",
              "name": "reviewed",
              "type": "bool"
            },
            {
              "internalType": "uint256",
              "name": "timestamp",
              "type": "uint256"
            }
          ],
          "internalType": "struct PUZchain.SolutionStruct[]",
          "name": "",
          "type": "tuple[]"
        }
      ],
      "stateMutability": "view",
      "type": "function"
    },
    {
      "inputs": [
        {
          "internalType": "uint256",
          "name": "puzzleId",
          "type": "uint256"
        }
      ],
      "name": "getSolutions",
      "outputs": [
        {
          "components": [
            {
              "internalType": "uint256",
              "name": "id",
              "type": "uint256"
            },
            {
              "internalType": "uint256",
              "name": "puzzleId",
              "type": "uint256"
            },
            {
              "internalType": "address",
              "name": "solver",
              "type": "address"
            },
            {
              "internalType": "string",
              "name": "answer",
              "type": "string"
            },
            {
              "internalType": "bool",
              "name": "approved",
              "type": "bool"
            },
            {
              "internalType": "bool",
              "name": "reviewed",
              "type": "bool"
            },
            {
              "internalType": "uint256",
              "name": "timestamp",
              "type": "uint256"
            }
          ],
          "internalType": "struct PUZchain.SolutionStruct[]",
          "name": "",
          "type": "tuple[]"
        }
      ],
      "stateMutability": "view",
      "type": "function"
    },
    {
      "inputs": [],
      "name": "owner",
      "outputs": [
        {
          "internalType": "address",
          "name": "",
          "type": "address"
        }
      ],
      "stateMutability": "view",
      "type": "function"
    },
    {
      "inputs": [
        {
          "internalType": "uint256",
          "name": "",
          "type": "uint256"
        },
        {
          "internalType": "uint256",
          "name": "",
          "type": "uint256"
        }
      ],
      "name": "puzzleSolutions",
      "outputs": [
        {
          "internalType": "uint256",
          "name": "id",
          "type": "uint256"
        },
        {
          "internalType": "uint256",
          "name": "puzzleId",
          "type": "uint256"
        },
        {
          "internalType": "address",
          "name": "solver",
          "type": "address"
        },
        {
          "internalType": "string",
          "name": "answer",
          "type": "string"
        },
        {
          "internalType": "bool",
          "name": "approved",
          "type": "bool"
        },
        {
          "internalType": "bool",
          "name": "reviewed",
          "type": "bool"
        },
        {
          "internalType": "uint256",
          "name": "timestamp",
          "type": "uint256"
        }
      ],
      "stateMutability": "view",
      "type": "function"
    },
    {
      "inputs": [
        {
          "internalType": "uint256",
          "name": "",
          "type": "uint256"
        }
      ],
      "name": "puzzles",
      "outputs": [
        {
          "internalType": "uint256",
          "name": "id",
          "type": "uint256"
        },
        {
          "internalType": "address",
          "name": "creator",
          "type": "address"
        },
        {
          "internalType": "string",
          "name": "title",
          "type": "string"
        },
        {
          "internalType": "string",
          "name": "description",
          "type": "string"
        },
        {
          "internalType": "uint256",
          "name": "reward",
          "type": "uint256"
        },
        {
          "internalType": "bool",
          "name": "solved",
          "type": "bool"
        },
        {
          "internalType": "uint256",
          "name": "timestamp",
          "type": "uint256"
        }
      ],
      "stateMutability": "view",
      "type": "function"
    },
    {
      "inputs": [
        {
          "internalType": "uint256",
          "name": "puzzleId",
          "type": "uint256"
        },
        {
          "internalType": "uint256",
          "name": "solutionIndex",
          "type": "uint256"
        }
      ],
      "name": "rejectSolution",
      "outputs": [],
      "stateMutability": "nonpayable",
      "type": "function"
    },
    {
      "inputs": [],
      "name": "renounceOwnership",
      "outputs": [],
      "stateMutability": "nonpayable",
      "type": "function"
    },
    {
      "inputs": [
        {
          "internalType": "uint256",
          "name": "puzzleId",
          "type": "uint256"
        },
        {
          "internalType": "string",
          "name": "answer",
          "type": "string"
        }
      ],
      "name": "submitSolution",
      "outputs": [],
      "stateMutability": "nonpayable",
      "type": "function"
    },
    {
      "inputs": [
        {
          "internalType": "address",
          "name": "newOwner",
          "type": "address"
        }
      ],
      "name": "transferOwnership",
      "outputs": [],
      "stateMutability": "nonpayable",
      "type": "function"
    },
    {
      "inputs": [
        {
          "internalType": "address",
          "name": "",
          "type": "address"
        },
        {
          "internalType": "uint256",
          "name": "",
          "type": "uint256"
        }
      ],
      "name": "userSolutions",
      "outputs": [
        {
          "internalType": "uint256",
          "name": "",
          "type": "uint256"
        }
      ],
      "stateMutability": "view",
      "type": "function"
    }
  ],
  "bytecode": "0x608060405234801561001057600080fd5b50600160005561001f33610024565b610076565b600180546001600160a01b038381166001600160a01b0319831681179093556040519116919082907f8be0079c531659141344cd1fd0a4f28419497f9722a3daafe3b4186f6b6457e090600090a35050565b611db7806100856000396000f3fe6080604052600436106100dd5760003560e01c80638da5cb5b1161007f578063b136546111610059578063b136546114610249578063d3b5c0161461025c578063f2fde38b1461027c578063fd9d1a951461029c57600080fd5b80638da5cb5b146101bb57806390ba2652146101e35780639367f0d71461021657600080fd5b8063688df86b116100bb578063688df86b1461014f578063715018a61461017157806388e36593146101865780638cb44762146101a657600080fd5b80634951c426146100e25780634ed7a1771461010d5780635096e62814610122575b600080fd5b3480156100ee57600080fd5b506100f76102ca565b60405161010491906118ec565b60405180910390f35b34801561011957600080fd5b506100f76104f9565b34801561012e57600080fd5b5061014261013d3660046119b3565b610799565b60405161010491906119cc565b34801561015b57600080fd5b5061016f61016a366004611a78565b6108f7565b005b34801561017d57600080fd5b5061016f610a43565b34801561019257600080fd5b5061016f6101a1366004611a78565b610a57565b3480156101b257600080fd5b50610142610cfc565b3480156101c757600080fd5b506001546040516001600160a01b039091168152602001610104565b3480156101ef57600080fd5b506102036101fe3660046119b3565b611016565b6040516101049796959493929190611a9a565b34801561022257600080fd5b50610236610231366004611a78565b611171565b6040516101049796959493929190611af6565b61016f610257366004611be5565b611265565b34801561026857600080fd5b5061016f610277366004611c49565b611408565b34801561028857600080fd5b5061016f610297366004611ca2565b61160e565b3480156102a857600080fd5b506102bc6102b7366004611cc4565b611687565b604051908152602001610104565b606060006102d760025490565b67ffffffffffffffff8111156102ef576102ef611b42565b60405190808252806020026020018201604052801561032857816020015b6103156117be565b81526020019060019003908161030d5790505b50905060015b60025481116104f357600081815260046020908152604091829020825160e0810184528154815260018201546001600160a01b031692810192909252600281018054929391929184019161038190611cee565b80601f01602080910402602001604051908101604052809291908181526020018280546103ad90611cee565b80156103fa5780601f106103cf576101008083540402835291602001916103fa565b820191906000526020600020905b8154815290600101906020018083116103dd57829003601f168201915b5050505050815260200160038201805461041390611cee565b80601f016020809104026020016040519081016040528092919081815260200182805461043f90611cee565b801561048c5780601f106104615761010080835404028352916020019161048c565b820191906000526020600020905b81548152906001019060200180831161046f57829003601f168201915b505050918352505060048201546020820152600582015460ff1615156040820152600690910154606090910152826104c5600184611d39565b815181106104d5576104d5611d50565b602002602001018190525080806104eb90611d66565b91505061032e565b50919050565b6060600060015b600254811161054b576000818152600460205260409020600101546001600160a01b0316331415610539578161053581611d66565b9250505b8061054381611d66565b915050610500565b5060008167ffffffffffffffff81111561056757610567611b42565b6040519080825280602002602001820160405280156105a057816020015b61058d6117be565b8152602001906001900390816105855790505b509050600060015b6002548111610790576000818152600460205260409020600101546001600160a01b031633141561077e57600081815260046020908152604091829020825160e0810184528154815260018201546001600160a01b031692810192909252600281018054929391929184019161061d90611cee565b80601f016020809104026020016040519081016040528092919081815260200182805461064990611cee565b80156106965780601f1061066b57610100808354040283529160200191610696565b820191906000526020600020905b81548152906001019060200180831161067957829003601f168201915b505050505081526020016003820180546106af90611cee565b80601f01602080910402602001604051908101604052809291908181526020018280546106db90611cee565b80156107285780601f106106fd57610100808354040283529160200191610728565b820191906000526020600020905b81548152906001019060200180831161070b57829003601f168201915b505050918352505060048201546020820152600582015460ff1615156040820152600690910154606090910152838361076081611d66565b94508151811061077257610772611d50565b60200260200101819052505b8061078881611d66565b9150506105a8565b50909392505050565b606060056000838152602001908152602001600020805480602002602001604051908101604052809291908181526020016000905b828210156108ec5760008481526020908190206040805160e081018252600686029092018054835260018101549383019390935260028301546001600160a01b03169082015260038201805491929160608401919061082c90611cee565b80601f016020809104026020016040519081016040528092919081815260200182805461085890611cee565b80156108a55780601f1061087a576101008083540402835291602001916108a5565b820191906000526020600020905b81548152906001019060200180831161088857829003601f168201915b5050509183525050600482015460ff8082161515602080850191909152610100909204161515604083015260059092015460609091015290825260019290920191016107ce565b505050509050919050565b600082815260046020526040902060018101546001600160a01b0316331461095c5760405162461bcd60e51b815260206004820152601360248201527227b7363c90383abd3d36329031b932b0ba37b960691b60448201526064015b60405180910390fd5b60008381526005602052604090205482106109ac5760405162461bcd60e51b815260206004820152601060248201526f24b73b30b634b21039b7b63aba34b7b760811b6044820152606401610953565b60008381526005602052604081208054849081106109cc576109cc611d50565b906000526020600020906006020190508060040160019054906101000a900460ff1615610a2e5760405162461bcd60e51b815260206004820152601060248201526f105b1c9958591e481c995d9a595dd95960821b6044820152606401610953565b600401805461ff001916610100179055505050565b610a4b6116b8565b610a556000611712565b565b610a5f611764565b600082815260046020526040902060018101546001600160a01b03163314610abf5760405162461bcd60e51b815260206004820152601360248201527227b7363c90383abd3d36329031b932b0ba37b960691b6044820152606401610953565b600581015460ff1615610b0c5760405162461bcd60e51b8152602060048201526015602482015274141d5e9e9b1948185b1c9958591e481cdbdb1d9959605a1b6044820152606401610953565b6000838152600560205260409020548210610b5c5760405162461bcd60e51b815260206004820152601060248201526f24b73b30b634b21039b7b63aba34b7b760811b6044820152606401610953565b6000838152600560205260408120805484908110610b7c57610b7c611d50565b906000526020600020906006020190508060040160019054906101000a900460ff1615610beb5760405162461bcd60e51b815260206004820152601960248201527f536f6c7574696f6e20616c7265616479207265766965776564000000000000006044820152606401610953565b6004818101805461ffff191661010117905560058301805460ff191660011790556002820154908301546040516000926001600160a01b031691908381818185875af1925050503d8060008114610c5e576040519150601f19603f3d011682016040523d82523d6000602084013e610c63565b606091505b5050905080610ca55760405162461bcd60e51b815260206004820152600e60248201526d14185e5b595b9d0819985a5b195960921b6044820152606401610953565b600282015482546040518781526001600160a01b03909216917f95e40478497bc518af657b9ad8c8709ceaf03a595840d27a0ad7243c0c9885eb9060200160405180910390a3505050610cf86001600055565b5050565b6060600060015b6002548111610d9e5760005b600082815260056020526040902054811015610d8b576000828152600560205260409020805433919083908110610d4857610d48611d50565b60009182526020909120600260069092020101546001600160a01b03161415610d795782610d7581611d66565b9350505b80610d8381611d66565b915050610d0f565b5080610d9681611d66565b915050610d03565b5060008167ffffffffffffffff811115610dba57610dba611b42565b604051908082528060200260200182016040528015610e2057816020015b6040805160e081018252600080825260208083018290529282018190526060808301526080820181905260a0820181905260c08201528252600019909201910181610dd85790505b509050600060015b60025481116107905760005b600082815260056020526040902054811015611003576000828152600560205260409020805433919083908110610e6d57610e6d611d50565b60009182526020909120600260069092020101546001600160a01b03161415610ff1576000828152600560205260409020805482908110610eb057610eb0611d50565b90600052602060002090600602016040518060e001604052908160008201548152602001600182015481526020016002820160009054906101000a90046001600160a01b03166001600160a01b03166001600160a01b03168152602001600382018054610f1c90611cee565b80601f0160208091040260200160405190810160405280929190818152602001828054610f4890611cee565b8015610f955780601f10610f6a57610100808354040283529160200191610f95565b820191906000526020600020905b815481529060010190602001808311610f7857829003601f168201915b5050509183525050600482015460ff8082161515602084015261010090910416151560408201526005909101546060909101528484610fd381611d66565b955081518110610fe557610fe5611d50565b60200260200101819052505b80610ffb81611d66565b915050610e34565b508061100e81611d66565b915050610e28565b60046020526000908152604090208054600182015460028301805492936001600160a01b039092169261104890611cee565b80601f016020809104026020016040519081016040528092919081815260200182805461107490611cee565b80156110c15780601f10611096576101008083540402835291602001916110c1565b820191906000526020600020905b8154815290600101906020018083116110a457829003601f168201915b5050505050908060030180546110d690611cee565b80601f016020809104026020016040519081016040528092919081815260200182805461110290611cee565b801561114f5780601f106111245761010080835404028352916020019161114f565b820191906000526020600020905b81548152906001019060200180831161113257829003601f168201915b50505050600483015460058401546006909401549293909260ff909116915087565b6005602052816000526040600020818154811061118d57600080fd5b600091825260209091206006909102018054600182015460028301546003840180549396509194506001600160a01b031692916111c990611cee565b80601f01602080910402602001604051908101604052809291908181526020018280546111f590611cee565b80156112425780601f1061121757610100808354040283529160200191611242565b820191906000526020600020905b81548152906001019060200180831161122557829003601f168201915b505050506004830154600590930154919260ff8082169361010090920416915087565b60008251116112a75760405162461bcd60e51b815260206004820152600e60248201526d151a5d1b19481c995c5d5a5c995960921b6044820152606401610953565b600034116112ec5760405162461bcd60e51b81526020600482015260126024820152710526577617264206d757374206265203e20360741b6044820152606401610953565b6112fa600280546001019055565b600061130560025490565b6040805160e08101825282815233602080830191825282840188815260608401889052346080850152600060a085018190524260c086015286815260048352949094208351815591516001830180546001600160a01b0319166001600160a01b03909216919091179055925180519495509193909261138b926002850192910190611806565b50606082015180516113a7916003840191602090910190611806565b506080820151600482015560a082015160058201805460ff191691151591909117905560c090910151600690910155604051339082907fe9b251f950b6dfcd1f47231a123018df54705fb13623a4c570832629fce6f59e90600090a3505050565b6000828152600460208190526040909120015461145f5760405162461bcd60e51b8152602060048201526015602482015274141d5e9e9b1948191bd95cc81b9bdd08195e1a5cdd605a1b6044820152606401610953565b60008281526004602052604090206005015460ff16156114b25760405162461bcd60e51b815260206004820152600e60248201526d105b1c9958591e481cdbdb1d995960921b6044820152606401610953565b6114c0600380546001019055565b60006114cb60035490565b6000848152600560209081526040808320815160e08101835285815280840189815233938201938452606082018981526080830187905260a083018790524260c084015283546001808201865594885296869020835160069098020196875590519286019290925591516002850180546001600160a01b0319166001600160a01b03909216919091179055518051949550909361156e9260038501920190611806565b50608082015160048201805460a085015115156101000261ff00199315159390931661ffff199091161791909117905560c090910151600590910155336000818152600660209081526040808320805460018101825590845291909220018390555182907fb90ce338b8573e81c34ada6d957ebd0e04df044ff9d4deb7a5decca62857261b906116019087815260200190565b60405180910390a3505050565b6116166116b8565b6001600160a01b03811661167b5760405162461bcd60e51b815260206004820152602660248201527f4f776e61626c653a206e6577206f776e657220697320746865207a65726f206160448201526564647265737360d01b6064820152608401610953565b61168481611712565b50565b600660205281600052604060002081815481106116a357600080fd5b90600052602060002001600091509150505481565b6001546001600160a01b03163314610a555760405162461bcd60e51b815260206004820181905260248201527f4f776e61626c653a2063616c6c6572206973206e6f7420746865206f776e65726044820152606401610953565b600180546001600160a01b038381166001600160a01b0319831681179093556040519116919082907f8be0079c531659141344cd1fd0a4f28419497f9722a3daafe3b4186f6b6457e090600090a35050565b600260005414156117b75760405162461bcd60e51b815260206004820152601f60248201527f5265656e7472616e637947756172643a207265656e7472616e742063616c6c006044820152606401610953565b6002600055565b6040518060e001604052806000815260200160006001600160a01b03168152602001606081526020016060815260200160008152602001600015158152602001600081525090565b82805461181290611cee565b90600052602060002090601f016020900481019282611834576000855561187a565b82601f1061184d57805160ff191683800117855561187a565b8280016001018555821561187a579182015b8281111561187a57825182559160200191906001019061185f565b5061188692915061188a565b5090565b5b80821115611886576000815560010161188b565b6000815180845260005b818110156118c5576020818501810151868301820152016118a9565b818111156118d7576000602083870101525b50601f01601f19169290920160200192915050565b60006020808301818452808551808352604092508286019150828160051b87010184880160005b838110156119a557888303603f19018552815180518452878101516001600160a01b0316888501528681015160e0888601819052906119548287018261189f565b9150506060808301518683038288015261196e838261189f565b6080858101519089015260a08086015115159089015260c09485015194909701939093525050509386019390860190600101611913565b509098975050505050505050565b6000602082840312156119c557600080fd5b5035919050565b60006020808301818452808551808352604092508286019150828160051b87010184880160005b838110156119a557888303603f190185528151805184528781015188850152868101516001600160a01b03168785015260608082015160e08287018190529190611a3f8388018261189f565b60808581015115159089015260a08086015115159089015260c094850151949097019390935250505093860193908601906001016119f3565b60008060408385031215611a8b57600080fd5b50508035926020909101359150565b8781526001600160a01b038716602082015260e060408201819052600090611ac49083018861189f565b8281036060840152611ad6818861189f565b6080840196909652505091151560a083015260c090910152949350505050565b87815286602082015260018060a01b038616604082015260e060608201526000611b2360e083018761189f565b94151560808301525091151560a083015260c090910152949350505050565b634e487b7160e01b600052604160045260246000fd5b600082601f830112611b6957600080fd5b813567ffffffffffffffff80821115611b8457611b84611b42565b604051601f8301601f19908116603f01168101908282118183101715611bac57611bac611b42565b81604052838152866020858801011115611bc557600080fd5b836020870160208301376000602085830101528094505050505092915050565b60008060408385031215611bf857600080fd5b823567ffffffffffffffff80821115611c1057600080fd5b611c1c86838701611b58565b93506020850135915080821115611c3257600080fd5b50611c3f85828601611b58565b9150509250929050565b60008060408385031215611c5c57600080fd5b82359150602083013567ffffffffffffffff811115611c7a57600080fd5b611c3f85828601611b58565b80356001600160a01b0381168114611c9d57600080fd5b919050565b600060208284031215611cb457600080fd5b611cbd82611c86565b9392505050565b60008060408385031215611cd757600080fd5b611ce083611c86565b946020939093013593505050565b600181811c90821680611d0257607f821691505b602082108114156104f357634e487b7160e01b600052602260045260246000fd5b634e487b7160e01b600052601160045260246000fd5b600082821015611d4b57611d4b611d23565b500390565b634e487b7160e01b600052603260045260246000fd5b6000600019821415611d7a57611d7a611d23565b506001019056fea2646970667358221220c13ff351cd0fee3eaeb993e8d154e192a1c9e4d51517fe8bcb65fcef732c314964736f6c634300080b0033",
  "linkReferences": {},
  "deployedLinkReferences": {}
}