{
	"data": {
		"bytecode": {
			"linkReferences": {},
			"object": "6080604052600a600555674563918244f400006006556706f05b59d3b200006007556001600d55348015610031575f5ffd5b50604051611aaa380380611aaa83398101604081905261005091610128565b806001600160a01b03811661007e57604051631e4fbdf760e01b81525f600482015260240160405180910390fd5b610087816100be565b505060018055600280546001600160a01b039384166001600160a01b03199182161790915560038054929093169116179055610168565b5f80546001600160a01b038381166001600160a01b0319831681178455604051919092169283917f8be0079c531659141344cd1fd0a4f28419497f9722a3daafe3b4186f6b6457e09190a35050565b80516001600160a01b0381168114610123575f5ffd5b919050565b5f5f5f6060848603121561013a575f5ffd5b6101438461010d565b92506101516020850161010d565b915061015f6040850161010d565b90509250925092565b611935806101755f395ff3fe608060405234801561000f575f5ffd5b506004361061013d575f3560e01c80638e46a093116100b4578063bed9985011610079578063bed99850146102fe578063c3c5a54714610307578063c45a015514610339578063e9f1b5461461034c578063f2fde38b1461036e578063fc0c546a14610381575f5ffd5b80638e46a09314610270578063984d3c9614610283578063a1e6a25514610296578063a87430ba1461029f578063ab930d35146102eb575f5ffd5b80635bb47808116101055780635bb47808146101e85780636e2c9d1c146101fb578063715018a61461022857806377c74d49146102305780637f66427b146102435780638da5cb5b1461024c575f5ffd5b80630a10002e146101415780631d8c91a11461015d57806341757bc3146101675780634c55157b1461017a5780634da04ab1146101be575b5f5ffd5b61014a60065481565b6040519081526020015b60405180910390f35b610165610394565b005b61014a610175366004611327565b61041b565b61018d610188366004611351565b610446565b604051610154949392919093845260208401929092526001600160a01b031660408301521515606082015260800190565b61014a6101cc366004611371565b600b60209081525f928352604080842090915290825290205481565b6101656101f636600461139f565b610499565b61020e6102093660046113c1565b6104c3565b6040516101549e9d9c9b9a99989796959493929190611406565b610165610760565b61014a61023e366004611573565b610771565b61014a60075481565b5f546001600160a01b03165b6040516001600160a01b039091168152602001610154565b61016561027e366004611633565b610b16565b61014a6102913660046113c1565b610ed6565b61014a600d5481565b6102ce6102ad36600461139f565b600e6020525f9081526040902080546001909101546001600160a01b031682565b604080519283526001600160a01b03909116602083015201610154565b6101656102f93660046113c1565b610f05565b61014a60055481565b61032961031536600461139f565b600f6020525f908152604090205460ff1681565b6040519015158152602001610154565b600354610258906001600160a01b031681565b61032961035a3660046113c1565b600a6020525f908152604090205460ff1681565b61016561037c36600461139f565b611188565b600254610258906001600160a01b031681565b335f908152600f602052604090205460ff1661041957604080518082018252600d805482523360208084018281525f928352600e82528583209451855551600194850180546001600160a01b0319166001600160a01b03909216919091179055600f9052928320805460ff19169092179091558054916104138361168b565b91905055505b565b600c602052815f5260405f208181548110610434575f80fd5b905f5260205f20015f91509150505481565b6009602052815f5260405f20818154811061045f575f80fd5b5f9182526020909120600390910201805460018201546002909201549093509091506001600160a01b03811690600160a01b900460ff1684565b6104a16111c2565b600380546001600160a01b0319166001600160a01b0392909216919091179055565b60086020525f908152604090208054600182015460028301805492936001600160a01b03909216926104f4906116a3565b80601f0160208091040260200160405190810160405280929190818152602001828054610520906116a3565b801561056b5780601f106105425761010080835404028352916020019161056b565b820191905f5260205f20905b81548152906001019060200180831161054e57829003601f168201915b505050505090806003018054610580906116a3565b80601f01602080910402602001604051908101604052809291908181526020018280546105ac906116a3565b80156105f75780601f106105ce576101008083540402835291602001916105f7565b820191905f5260205f20905b8154815290600101906020018083116105da57829003601f168201915b50505050509080600401805461060c906116a3565b80601f0160208091040260200160405190810160405280929190818152602001828054610638906116a3565b80156106835780601f1061065a57610100808354040283529160200191610683565b820191905f5260205f20905b81548152906001019060200180831161066657829003601f168201915b50505060058401546006850154600786015460088701546009880154600b890180549899959860ff95861698509396509190931693916106c2906116a3565b80601f01602080910402602001604051908101604052809291908181526020018280546106ee906116a3565b80156107395780601f1061071057610100808354040283529160200191610739565b820191905f5260205f20905b81548152906001019060200180831161071c57829003601f168201915b50505050600c830154600d840154600e90940154929390929091506001600160a01b03168e565b6107686111c2565b6104195f6111ee565b5f5f82116107b35760405162461bcd60e51b815260206004820152600a6024820152694e656564207072697a6560b01b60448201526064015b60405180910390fd5b6107c1600480546001019055565b5f6107cb60045490565b6003546040516357a981d160e11b8152600481018390529192505f916001600160a01b039091169063af5303a2906024016020604051808303815f875af1158015610818573d5f5f3e3d5ffd5b505050506040513d601f19601f8201168201806040525081019061083c91906116db565b90506001600160a01b0381166108945760405162461bcd60e51b815260206004820152601760248201527f4d616e61676572206372656174696f6e206661696c656400000000000000000060448201526064016107aa565b6002546040516323b872dd60e01b81523360048201526001600160a01b03838116602483015260448201879052909116906323b872dd906064016020604051808303815f875af11580156108ea573d5f5f3e3d5ffd5b505050506040513d601f19601f8201168201806040525081019061090e91906116f6565b50604080516101e081018252838152336020820152908101899052606081018890526080810187905260a081018590525f60c082018190524260e08301526001610100830152610120820181905261014082019060405190808252806020026020018201604052801561098b578160200160208202803683370190505b508152602081018790526040016109a54262278d00611715565b81526020016109b74262093a80611715565b81526001600160a01b038381166020928301525f8581526008835260409081902084518155928401516001840180546001600160a01b03191691909316179091558201516002820190610a0a9082611774565b5060608201516003820190610a1f9082611774565b5060808201516004820190610a349082611774565b5060a0820151600582015560c082015160068201805491151560ff1992831617905560e083015160078301556101008301516008830180549115159190921617905561012082015160098201556101408201518051610a9d91600a84019160209091019061129c565b50610160820151600b820190610ab39082611774565b50610180820151600c8201556101a0820151600d8201556101c090910151600e90910180546001600160a01b0319166001600160a01b03909216919091179055505f818152600a60205260409020805460ff191660011790559695505050505050565b610b1e61123d565b5f828152600a602052604090205460ff16610b6f5760405162461bcd60e51b815260206004820152601160248201527050757a7a6c65206e6f742061637469766560781b60448201526064016107aa565b5f8281526009602052604081205490610b8784610ed6565b6002545f8681526008602052604090819020600e015490516323b872dd60e01b81523360048201526001600160a01b0391821660248201526044810184905292935016906323b872dd906064016020604051808303815f875af1158015610bf0573d5f5f3e3d5ffd5b505050506040513d601f19601f82011682018060405250810190610c1491906116f6565b505f8481526008602052604081206005018054839290610c35908490611715565b90915550505f8481526008602090815260408083209051610c5c92600b909201910161182f565b6040516020818303038152906040528051906020012084604051602001610c8391906118a0565b60408051601f1981840301815291815281516020928301205f898152600b84528281203382529093529082208054939091149350600192909190610cc8908490611715565b9091555050335f818152600c60209081526040808320805460018181018355918552838520018a905581516080810183528881528084018b815281840196875287158015606084019081528d88526009875294872080548086018255908852959096208251600390960201948555519184019190915593516002909201805491511515600160a01b026001600160a81b03199092166001600160a01b039390931692909217179055610ec5575f8681526008602052604081206005908101549054909190606490610d9990826118b6565b610da390846118c9565b610dad91906118e0565b90505f610dba82846118b6565b5f8a81526008602052604090819020600e0154905163393840f760e21b8152336004820152602481018590529192506001600160a01b03169063e4e103dc906044015f604051808303815f87803b158015610e13575f5ffd5b505af1158015610e25573d5f5f3e3d5ffd5b5050505f8a81526008602052604090819020600e01549051633da3f60d60e11b8152600481018490526001600160a01b039091169150637b47ec1a906024015f604051808303815f87803b158015610e7b575f5ffd5b505af1158015610e8d573d5f5f3e3d5ffd5b5050505f8a8152600860209081526040808320600601805460ff19908116600117909155600a90925290912080549091169055505050505b50505050610ed260018055565b5050565b6007545f828152600960205260408120549091610ef2916118c9565b600654610eff9190611715565b92915050565b610f0d61123d565b5f8181526008602052604090206001015481906001600160a01b03163314610f6c5760405162461bcd60e51b81526020600482015260126024820152712737ba10383abd3d36329031b932b0ba37b960711b60448201526064016107aa565b5f828152600860205260409020600681015460ff1615610fc15760405162461bcd60e51b815260206004820152601060248201526f105b1c9958591e481c185a59081bdd5d60821b60448201526064016107aa565b80600c0154421161100d5760405162461bcd60e51b8152602060048201526016602482015275141d5e9e9b19481b9bdd08195e1c1a5c9959081e595d60521b60448201526064016107aa565b5f8160050154116110545760405162461bcd60e51b81526020600482015260116024820152704e6f207072697a6520746f20636c61696d60781b60448201526064016107aa565b60058082015490545f9060649061106b90826118b6565b61107590846118c9565b61107f91906118e0565b90505f61108c82846118b6565b600e850154600186015460405163393840f760e21b81526001600160a01b03918216600482015260248101869052929350169063e4e103dc906044015f604051808303815f87803b1580156110df575f5ffd5b505af11580156110f1573d5f5f3e3d5ffd5b50505050600e840154604051633da3f60d60e11b8152600481018390526001600160a01b0390911690637b47ec1a906024015f604051808303815f87803b15801561113a575f5ffd5b505af115801561114c573d5f5f3e3d5ffd5b5050506006909401805460ff199081166001179091555f878152600a602052604090208054909116905550611185935061129692505050565b50565b6111906111c2565b6001600160a01b0381166111b957604051631e4fbdf760e01b81525f60048201526024016107aa565b611185816111ee565b5f546001600160a01b031633146104195760405163118cdaa760e01b81523360048201526024016107aa565b5f80546001600160a01b038381166001600160a01b0319831681178455604051919092169283917f8be0079c531659141344cd1fd0a4f28419497f9722a3daafe3b4186f6b6457e09190a35050565b60026001540361128f5760405162461bcd60e51b815260206004820152601f60248201527f5265656e7472616e637947756172643a207265656e7472616e742063616c6c0060448201526064016107aa565b6002600155565b60018055565b828054828255905f5260205f209081019282156112ef579160200282015b828111156112ef57825182546001600160a01b0319166001600160a01b039091161782556020909201916001909101906112ba565b506112fb9291506112ff565b5090565b5b808211156112fb575f8155600101611300565b6001600160a01b0381168114611185575f5ffd5b5f5f60408385031215611338575f5ffd5b823561134381611313565b946020939093013593505050565b5f5f60408385031215611362575f5ffd5b50508035926020909101359150565b5f5f60408385031215611382575f5ffd5b82359150602083013561139481611313565b809150509250929050565b5f602082840312156113af575f5ffd5b81356113ba81611313565b9392505050565b5f602082840312156113d1575f5ffd5b5035919050565b5f81518084528060208401602086015e5f602082860101526020601f19601f83011685010191505092915050565b8e81526001600160a01b038e1660208201526101c060408201525f61142f6101c083018f6113d8565b8281036060840152611441818f6113d8565b90508281036080840152611455818e6113d8565b90508b60a084015261146b60c084018c15159052565b8960e084015261148061010084018a15159052565b8761012084015282810361014084015261149a81886113d8565b91505084610160830152836101808301526114c16101a08301846001600160a01b03169052565b9f9e505050505050505050505050505050565b634e487b7160e01b5f52604160045260245ffd5b5f82601f8301126114f7575f5ffd5b813567ffffffffffffffff811115611511576115116114d4565b604051601f8201601f19908116603f0116810167ffffffffffffffff81118282101715611540576115406114d4565b604052818152838201602001851015611557575f5ffd5b816020850160208301375f918101602001919091529392505050565b5f5f5f5f5f60a08688031215611587575f5ffd5b853567ffffffffffffffff81111561159d575f5ffd5b6115a9888289016114e8565b955050602086013567ffffffffffffffff8111156115c5575f5ffd5b6115d1888289016114e8565b945050604086013567ffffffffffffffff8111156115ed575f5ffd5b6115f9888289016114e8565b935050606086013567ffffffffffffffff811115611615575f5ffd5b611621888289016114e8565b95989497509295608001359392505050565b5f5f60408385031215611644575f5ffd5b82359150602083013567ffffffffffffffff811115611661575f5ffd5b61166d858286016114e8565b9150509250929050565b634e487b7160e01b5f52601160045260245ffd5b5f6001820161169c5761169c611677565b5060010190565b600181811c908216806116b757607f821691505b6020821081036116d557634e487b7160e01b5f52602260045260245ffd5b50919050565b5f602082840312156116eb575f5ffd5b81516113ba81611313565b5f60208284031215611706575f5ffd5b815180151581146113ba575f5ffd5b80820180821115610eff57610eff611677565b601f82111561176f57805f5260205f20601f840160051c8101602085101561174d5750805b601f840160051c820191505b8181101561176c575f8155600101611759565b50505b505050565b815167ffffffffffffffff81111561178e5761178e6114d4565b6117a28161179c84546116a3565b84611728565b6020601f8211600181146117d4575f83156117bd5750848201515b5f19600385901b1c1916600184901b17845561176c565b5f84815260208120601f198516915b8281101561180357878501518255602094850194600190920191016117e3565b508482101561182057868401515f19600387901b60f8161c191681555b50505050600190811b01905550565b5f5f835461183c816116a3565b600182168015611853576001811461186857611895565b60ff1983168652811515820286019350611895565b865f5260205f205f5b8381101561188d57815488820152600190910190602001611871565b505081860193505b509195945050505050565b5f82518060208501845e5f920191825250919050565b81810381811115610eff57610eff611677565b8082028115828204841417610eff57610eff611677565b5f826118fa57634e487b7160e01b5f52601260045260245ffd5b50049056fea2646970667358221220942c6ae4e9e9e392c27633bed68f417f314702ff71eb3c930a38ecd1158cdad264736f6c634300081e0033",
			"opcodes": "PUSH1 0x80 PUSH1 0x40 MSTORE PUSH1 0xA PUSH1 0x5 SSTORE PUSH8 0x4563918244F40000 PUSH1 0x6 SSTORE PUSH8 0x6F05B59D3B20000 PUSH1 0x7 SSTORE PUSH1 0x1 PUSH1 0xD SSTORE CALLVALUE DUP1 ISZERO PUSH2 0x31 JUMPI PUSH0 PUSH0 REVERT JUMPDEST POP PUSH1 0x40 MLOAD PUSH2 0x1AAA CODESIZE SUB DUP1 PUSH2 0x1AAA DUP4 CODECOPY DUP2 ADD PUSH1 0x40 DUP2 SWAP1 MSTORE PUSH2 0x50 SWAP2 PUSH2 0x128 JUMP JUMPDEST DUP1 PUSH1 0x1 PUSH1 0x1 PUSH1 0xA0 SHL SUB DUP2 AND PUSH2 0x7E JUMPI PUSH1 0x40 MLOAD PUSH4 0x1E4FBDF7 PUSH1 0xE0 SHL DUP2 MSTORE PUSH0 PUSH1 0x4 DUP3 ADD MSTORE PUSH1 0x24 ADD PUSH1 0x40 MLOAD DUP1 SWAP2 SUB SWAP1 REVERT JUMPDEST PUSH2 0x87 DUP2 PUSH2 0xBE JUMP JUMPDEST POP POP PUSH1 0x1 DUP1 SSTORE PUSH1 0x2 DUP1 SLOAD PUSH1 0x1 PUSH1 0x1 PUSH1 0xA0 SHL SUB SWAP4 DUP5 AND PUSH1 0x1 PUSH1 0x1 PUSH1 0xA0 SHL SUB NOT SWAP2 DUP3 AND OR SWAP1 SWAP2 SSTORE PUSH1 0x3 DUP1 SLOAD SWAP3 SWAP1 SWAP4 AND SWAP2 AND OR SWAP1 SSTORE PUSH2 0x168 JUMP JUMPDEST PUSH0 DUP1 SLOAD PUSH1 0x1 PUSH1 0x1 PUSH1 0xA0 SHL SUB DUP4 DUP2 AND PUSH1 0x1 PUSH1 0x1 PUSH1 0xA0 SHL SUB NOT DUP4 AND DUP2 OR DUP5 SSTORE PUSH1 0x40 MLOAD SWAP2 SWAP1 SWAP3 AND SWAP3 DUP4 SWAP2 PUSH32 0x8BE0079C531659141344CD1FD0A4F28419497F9722A3DAAFE3B4186F6B6457E0 SWAP2 SWAP1 LOG3 POP POP JUMP JUMPDEST DUP1 MLOAD PUSH1 0x1 PUSH1 0x1 PUSH1 0xA0 SHL SUB DUP2 AND DUP2 EQ PUSH2 0x123 JUMPI PUSH0 PUSH0 REVERT JUMPDEST SWAP2 SWAP1 POP JUMP JUMPDEST PUSH0 PUSH0 PUSH0 PUSH1 0x60 DUP5 DUP7 SUB SLT ISZERO PUSH2 0x13A JUMPI PUSH0 PUSH0 REVERT JUMPDEST PUSH2 0x143 DUP5 PUSH2 0x10D JUMP JUMPDEST SWAP3 POP PUSH2 0x151 PUSH1 0x20 DUP6 ADD PUSH2 0x10D JUMP JUMPDEST SWAP2 POP PUSH2 0x15F PUSH1 0x40 DUP6 ADD PUSH2 0x10D JUMP JUMPDEST SWAP1 POP SWAP3 POP SWAP3 POP SWAP3 JUMP JUMPDEST PUSH2 0x1935 DUP1 PUSH2 0x175 PUSH0 CODECOPY PUSH0 RETURN INVALID PUSH1 0x80 PUSH1 0x40 MSTORE CALLVALUE DUP1 ISZERO PUSH2 0xF JUMPI PUSH0 PUSH0 REVERT JUMPDEST POP PUSH1 0x4 CALLDATASIZE LT PUSH2 0x13D JUMPI PUSH0 CALLDATALOAD PUSH1 0xE0 SHR DUP1 PUSH4 0x8E46A093 GT PUSH2 0xB4 JUMPI DUP1 PUSH4 0xBED99850 GT PUSH2 0x79 JUMPI DUP1 PUSH4 0xBED99850 EQ PUSH2 0x2FE JUMPI DUP1 PUSH4 0xC3C5A547 EQ PUSH2 0x307 JUMPI DUP1 PUSH4 0xC45A0155 EQ PUSH2 0x339 JUMPI DUP1 PUSH4 0xE9F1B546 EQ PUSH2 0x34C JUMPI DUP1 PUSH4 0xF2FDE38B EQ PUSH2 0x36E JUMPI DUP1 PUSH4 0xFC0C546A EQ PUSH2 0x381 JUMPI PUSH0 PUSH0 REVERT JUMPDEST DUP1 PUSH4 0x8E46A093 EQ PUSH2 0x270 JUMPI DUP1 PUSH4 0x984D3C96 EQ PUSH2 0x283 JUMPI DUP1 PUSH4 0xA1E6A255 EQ PUSH2 0x296 JUMPI DUP1 PUSH4 0xA87430BA EQ PUSH2 0x29F JUMPI DUP1 PUSH4 0xAB930D35 EQ PUSH2 0x2EB JUMPI PUSH0 PUSH0 REVERT JUMPDEST DUP1 PUSH4 0x5BB47808 GT PUSH2 0x105 JUMPI DUP1 PUSH4 0x5BB47808 EQ PUSH2 0x1E8 JUMPI DUP1 PUSH4 0x6E2C9D1C EQ PUSH2 0x1FB JUMPI DUP1 PUSH4 0x715018A6 EQ PUSH2 0x228 JUMPI DUP1 PUSH4 0x77C74D49 EQ PUSH2 0x230 JUMPI DUP1 PUSH4 0x7F66427B EQ PUSH2 0x243 JUMPI DUP1 PUSH4 0x8DA5CB5B EQ PUSH2 0x24C JUMPI PUSH0 PUSH0 REVERT JUMPDEST DUP1 PUSH4 0xA10002E EQ PUSH2 0x141 JUMPI DUP1 PUSH4 0x1D8C91A1 EQ PUSH2 0x15D JUMPI DUP1 PUSH4 0x41757BC3 EQ PUSH2 0x167 JUMPI DUP1 PUSH4 0x4C55157B EQ PUSH2 0x17A JUMPI DUP1 PUSH4 0x4DA04AB1 EQ PUSH2 0x1BE JUMPI JUMPDEST PUSH0 PUSH0 REVERT JUMPDEST PUSH2 0x14A PUSH1 0x6 SLOAD DUP2 JUMP JUMPDEST PUSH1 0x40 MLOAD SWAP1 DUP2 MSTORE PUSH1 0x20 ADD JUMPDEST PUSH1 0x40 MLOAD DUP1 SWAP2 SUB SWAP1 RETURN JUMPDEST PUSH2 0x165 PUSH2 0x394 JUMP JUMPDEST STOP JUMPDEST PUSH2 0x14A PUSH2 0x175 CALLDATASIZE PUSH1 0x4 PUSH2 0x1327 JUMP JUMPDEST PUSH2 0x41B JUMP JUMPDEST PUSH2 0x18D PUSH2 0x188 CALLDATASIZE PUSH1 0x4 PUSH2 0x1351 JUMP JUMPDEST PUSH2 0x446 JUMP JUMPDEST PUSH1 0x40 MLOAD PUSH2 0x154 SWAP5 SWAP4 SWAP3 SWAP2 SWAP1 SWAP4 DUP5 MSTORE PUSH1 0x20 DUP5 ADD SWAP3 SWAP1 SWAP3 MSTORE PUSH1 0x1 PUSH1 0x1 PUSH1 0xA0 SHL SUB AND PUSH1 0x40 DUP4 ADD MSTORE ISZERO ISZERO PUSH1 0x60 DUP3 ADD MSTORE PUSH1 0x80 ADD SWAP1 JUMP JUMPDEST PUSH2 0x14A PUSH2 0x1CC CALLDATASIZE PUSH1 0x4 PUSH2 0x1371 JUMP JUMPDEST PUSH1 0xB PUSH1 0x20 SWAP1 DUP2 MSTORE PUSH0 SWAP3 DUP4 MSTORE PUSH1 0x40 DUP1 DUP5 KECCAK256 SWAP1 SWAP2 MSTORE SWAP1 DUP3 MSTORE SWAP1 KECCAK256 SLOAD DUP2 JUMP JUMPDEST PUSH2 0x165 PUSH2 0x1F6 CALLDATASIZE PUSH1 0x4 PUSH2 0x139F JUMP JUMPDEST PUSH2 0x499 JUMP JUMPDEST PUSH2 0x20E PUSH2 0x209 CALLDATASIZE PUSH1 0x4 PUSH2 0x13C1 JUMP JUMPDEST PUSH2 0x4C3 JUMP JUMPDEST PUSH1 0x40 MLOAD PUSH2 0x154 SWAP15 SWAP14 SWAP13 SWAP12 SWAP11 SWAP10 SWAP9 SWAP8 SWAP7 SWAP6 SWAP5 SWAP4 SWAP3 SWAP2 SWAP1 PUSH2 0x1406 JUMP JUMPDEST PUSH2 0x165 PUSH2 0x760 JUMP JUMPDEST PUSH2 0x14A PUSH2 0x23E CALLDATASIZE PUSH1 0x4 PUSH2 0x1573 JUMP JUMPDEST PUSH2 0x771 JUMP JUMPDEST PUSH2 0x14A PUSH1 0x7 SLOAD DUP2 JUMP JUMPDEST PUSH0 SLOAD PUSH1 0x1 PUSH1 0x1 PUSH1 0xA0 SHL SUB AND JUMPDEST PUSH1 0x40 MLOAD PUSH1 0x1 PUSH1 0x1 PUSH1 0xA0 SHL SUB SWAP1 SWAP2 AND DUP2 MSTORE PUSH1 0x20 ADD PUSH2 0x154 JUMP JUMPDEST PUSH2 0x165 PUSH2 0x27E CALLDATASIZE PUSH1 0x4 PUSH2 0x1633 JUMP JUMPDEST PUSH2 0xB16 JUMP JUMPDEST PUSH2 0x14A PUSH2 0x291 CALLDATASIZE PUSH1 0x4 PUSH2 0x13C1 JUMP JUMPDEST PUSH2 0xED6 JUMP JUMPDEST PUSH2 0x14A PUSH1 0xD SLOAD DUP2 JUMP JUMPDEST PUSH2 0x2CE PUSH2 0x2AD CALLDATASIZE PUSH1 0x4 PUSH2 0x139F JUMP JUMPDEST PUSH1 0xE PUSH1 0x20 MSTORE PUSH0 SWAP1 DUP2 MSTORE PUSH1 0x40 SWAP1 KECCAK256 DUP1 SLOAD PUSH1 0x1 SWAP1 SWAP2 ADD SLOAD PUSH1 0x1 PUSH1 0x1 PUSH1 0xA0 SHL SUB AND DUP3 JUMP JUMPDEST PUSH1 0x40 DUP1 MLOAD SWAP3 DUP4 MSTORE PUSH1 0x1 PUSH1 0x1 PUSH1 0xA0 SHL SUB SWAP1 SWAP2 AND PUSH1 0x20 DUP4 ADD MSTORE ADD PUSH2 0x154 JUMP JUMPDEST PUSH2 0x165 PUSH2 0x2F9 CALLDATASIZE PUSH1 0x4 PUSH2 0x13C1 JUMP JUMPDEST PUSH2 0xF05 JUMP JUMPDEST PUSH2 0x14A PUSH1 0x5 SLOAD DUP2 JUMP JUMPDEST PUSH2 0x329 PUSH2 0x315 CALLDATASIZE PUSH1 0x4 PUSH2 0x139F JUMP JUMPDEST PUSH1 0xF PUSH1 0x20 MSTORE PUSH0 SWAP1 DUP2 MSTORE PUSH1 0x40 SWAP1 KECCAK256 SLOAD PUSH1 0xFF AND DUP2 JUMP JUMPDEST PUSH1 0x40 MLOAD SWAP1 ISZERO ISZERO DUP2 MSTORE PUSH1 0x20 ADD PUSH2 0x154 JUMP JUMPDEST PUSH1 0x3 SLOAD PUSH2 0x258 SWAP1 PUSH1 0x1 PUSH1 0x1 PUSH1 0xA0 SHL SUB AND DUP2 JUMP JUMPDEST PUSH2 0x329 PUSH2 0x35A CALLDATASIZE PUSH1 0x4 PUSH2 0x13C1 JUMP JUMPDEST PUSH1 0xA PUSH1 0x20 MSTORE PUSH0 SWAP1 DUP2 MSTORE PUSH1 0x40 SWAP1 KECCAK256 SLOAD PUSH1 0xFF AND DUP2 JUMP JUMPDEST PUSH2 0x165 PUSH2 0x37C CALLDATASIZE PUSH1 0x4 PUSH2 0x139F JUMP JUMPDEST PUSH2 0x1188 JUMP JUMPDEST PUSH1 0x2 SLOAD PUSH2 0x258 SWAP1 PUSH1 0x1 PUSH1 0x1 PUSH1 0xA0 SHL SUB AND DUP2 JUMP JUMPDEST CALLER PUSH0 SWAP1 DUP2 MSTORE PUSH1 0xF PUSH1 0x20 MSTORE PUSH1 0x40 SWAP1 KECCAK256 SLOAD PUSH1 0xFF AND PUSH2 0x419 JUMPI PUSH1 0x40 DUP1 MLOAD DUP1 DUP3 ADD DUP3 MSTORE PUSH1 0xD DUP1 SLOAD DUP3 MSTORE CALLER PUSH1 0x20 DUP1 DUP5 ADD DUP3 DUP2 MSTORE PUSH0 SWAP3 DUP4 MSTORE PUSH1 0xE DUP3 MSTORE DUP6 DUP4 KECCAK256 SWAP5 MLOAD DUP6 SSTORE MLOAD PUSH1 0x1 SWAP5 DUP6 ADD DUP1 SLOAD PUSH1 0x1 PUSH1 0x1 PUSH1 0xA0 SHL SUB NOT AND PUSH1 0x1 PUSH1 0x1 PUSH1 0xA0 SHL SUB SWAP1 SWAP3 AND SWAP2 SWAP1 SWAP2 OR SWAP1 SSTORE PUSH1 0xF SWAP1 MSTORE SWAP3 DUP4 KECCAK256 DUP1 SLOAD PUSH1 0xFF NOT AND SWAP1 SWAP3 OR SWAP1 SWAP2 SSTORE DUP1 SLOAD SWAP2 PUSH2 0x413 DUP4 PUSH2 0x168B JUMP JUMPDEST SWAP2 SWAP1 POP SSTORE POP JUMPDEST JUMP JUMPDEST PUSH1 0xC PUSH1 0x20 MSTORE DUP2 PUSH0 MSTORE PUSH1 0x40 PUSH0 KECCAK256 DUP2 DUP2 SLOAD DUP2 LT PUSH2 0x434 JUMPI PUSH0 DUP1 REVERT JUMPDEST SWAP1 PUSH0 MSTORE PUSH1 0x20 PUSH0 KECCAK256 ADD PUSH0 SWAP2 POP SWAP2 POP POP SLOAD DUP2 JUMP JUMPDEST PUSH1 0x9 PUSH1 0x20 MSTORE DUP2 PUSH0 MSTORE PUSH1 0x40 PUSH0 KECCAK256 DUP2 DUP2 SLOAD DUP2 LT PUSH2 0x45F JUMPI PUSH0 DUP1 REVERT JUMPDEST PUSH0 SWAP2 DUP3 MSTORE PUSH1 0x20 SWAP1 SWAP2 KECCAK256 PUSH1 0x3 SWAP1 SWAP2 MUL ADD DUP1 SLOAD PUSH1 0x1 DUP3 ADD SLOAD PUSH1 0x2 SWAP1 SWAP3 ADD SLOAD SWAP1 SWAP4 POP SWAP1 SWAP2 POP PUSH1 0x1 PUSH1 0x1 PUSH1 0xA0 SHL SUB DUP2 AND SWAP1 PUSH1 0x1 PUSH1 0xA0 SHL SWAP1 DIV PUSH1 0xFF AND DUP5 JUMP JUMPDEST PUSH2 0x4A1 PUSH2 0x11C2 JUMP JUMPDEST PUSH1 0x3 DUP1 SLOAD PUSH1 0x1 PUSH1 0x1 PUSH1 0xA0 SHL SUB NOT AND PUSH1 0x1 PUSH1 0x1 PUSH1 0xA0 SHL SUB SWAP3 SWAP1 SWAP3 AND SWAP2 SWAP1 SWAP2 OR SWAP1 SSTORE JUMP JUMPDEST PUSH1 0x8 PUSH1 0x20 MSTORE PUSH0 SWAP1 DUP2 MSTORE PUSH1 0x40 SWAP1 KECCAK256 DUP1 SLOAD PUSH1 0x1 DUP3 ADD SLOAD PUSH1 0x2 DUP4 ADD DUP1 SLOAD SWAP3 SWAP4 PUSH1 0x1 PUSH1 0x1 PUSH1 0xA0 SHL SUB SWAP1 SWAP3 AND SWAP3 PUSH2 0x4F4 SWAP1 PUSH2 0x16A3 JUMP JUMPDEST DUP1 PUSH1 0x1F ADD PUSH1 0x20 DUP1 SWAP2 DIV MUL PUSH1 0x20 ADD PUSH1 0x40 MLOAD SWAP1 DUP2 ADD PUSH1 0x40 MSTORE DUP1 SWAP3 SWAP2 SWAP1 DUP2 DUP2 MSTORE PUSH1 0x20 ADD DUP3 DUP1 SLOAD PUSH2 0x520 SWAP1 PUSH2 0x16A3 JUMP JUMPDEST DUP1 ISZERO PUSH2 0x56B JUMPI DUP1 PUSH1 0x1F LT PUSH2 0x542 JUMPI PUSH2 0x100 DUP1 DUP4 SLOAD DIV MUL DUP4 MSTORE SWAP2 PUSH1 0x20 ADD SWAP2 PUSH2 0x56B JUMP JUMPDEST DUP3 ADD SWAP2 SWAP1 PUSH0 MSTORE PUSH1 0x20 PUSH0 KECCAK256 SWAP1 JUMPDEST DUP2 SLOAD DUP2 MSTORE SWAP1 PUSH1 0x1 ADD SWAP1 PUSH1 0x20 ADD DUP1 DUP4 GT PUSH2 0x54E JUMPI DUP3 SWAP1 SUB PUSH1 0x1F AND DUP3 ADD SWAP2 JUMPDEST POP POP POP POP POP SWAP1 DUP1 PUSH1 0x3 ADD DUP1 SLOAD PUSH2 0x580 SWAP1 PUSH2 0x16A3 JUMP JUMPDEST DUP1 PUSH1 0x1F ADD PUSH1 0x20 DUP1 SWAP2 DIV MUL PUSH1 0x20 ADD PUSH1 0x40 MLOAD SWAP1 DUP2 ADD PUSH1 0x40 MSTORE DUP1 SWAP3 SWAP2 SWAP1 DUP2 DUP2 MSTORE PUSH1 0x20 ADD DUP3 DUP1 SLOAD PUSH2 0x5AC SWAP1 PUSH2 0x16A3 JUMP JUMPDEST DUP1 ISZERO PUSH2 0x5F7 JUMPI DUP1 PUSH1 0x1F LT PUSH2 0x5CE JUMPI PUSH2 0x100 DUP1 DUP4 SLOAD DIV MUL DUP4 MSTORE SWAP2 PUSH1 0x20 ADD SWAP2 PUSH2 0x5F7 JUMP JUMPDEST DUP3 ADD SWAP2 SWAP1 PUSH0 MSTORE PUSH1 0x20 PUSH0 KECCAK256 SWAP1 JUMPDEST DUP2 SLOAD DUP2 MSTORE SWAP1 PUSH1 0x1 ADD SWAP1 PUSH1 0x20 ADD DUP1 DUP4 GT PUSH2 0x5DA JUMPI DUP3 SWAP1 SUB PUSH1 0x1F AND DUP3 ADD SWAP2 JUMPDEST POP POP POP POP POP SWAP1 DUP1 PUSH1 0x4 ADD DUP1 SLOAD PUSH2 0x60C SWAP1 PUSH2 0x16A3 JUMP JUMPDEST DUP1 PUSH1 0x1F ADD PUSH1 0x20 DUP1 SWAP2 DIV MUL PUSH1 0x20 ADD PUSH1 0x40 MLOAD SWAP1 DUP2 ADD PUSH1 0x40 MSTORE DUP1 SWAP3 SWAP2 SWAP1 DUP2 DUP2 MSTORE PUSH1 0x20 ADD DUP3 DUP1 SLOAD PUSH2 0x638 SWAP1 PUSH2 0x16A3 JUMP JUMPDEST DUP1 ISZERO PUSH2 0x683 JUMPI DUP1 PUSH1 0x1F LT PUSH2 0x65A JUMPI PUSH2 0x100 DUP1 DUP4 SLOAD DIV MUL DUP4 MSTORE SWAP2 PUSH1 0x20 ADD SWAP2 PUSH2 0x683 JUMP JUMPDEST DUP3 ADD SWAP2 SWAP1 PUSH0 MSTORE PUSH1 0x20 PUSH0 KECCAK256 SWAP1 JUMPDEST DUP2 SLOAD DUP2 MSTORE SWAP1 PUSH1 0x1 ADD SWAP1 PUSH1 0x20 ADD DUP1 DUP4 GT PUSH2 0x666 JUMPI DUP3 SWAP1 SUB PUSH1 0x1F AND DUP3 ADD SWAP2 JUMPDEST POP POP POP PUSH1 0x5 DUP5 ADD SLOAD PUSH1 0x6 DUP6 ADD SLOAD PUSH1 0x7 DUP7 ADD SLOAD PUSH1 0x8 DUP8 ADD SLOAD PUSH1 0x9 DUP9 ADD SLOAD PUSH1 0xB DUP10 ADD DUP1 SLOAD SWAP9 SWAP10 SWAP6 SWAP9 PUSH1 0xFF SWAP6 DUP7 AND SWAP9 POP SWAP4 SWAP7 POP SWAP2 SWAP1 SWAP4 AND SWAP4 SWAP2 PUSH2 0x6C2 SWAP1 PUSH2 0x16A3 JUMP JUMPDEST DUP1 PUSH1 0x1F ADD PUSH1 0x20 DUP1 SWAP2 DIV MUL PUSH1 0x20 ADD PUSH1 0x40 MLOAD SWAP1 DUP2 ADD PUSH1 0x40 MSTORE DUP1 SWAP3 SWAP2 SWAP1 DUP2 DUP2 MSTORE PUSH1 0x20 ADD DUP3 DUP1 SLOAD PUSH2 0x6EE SWAP1 PUSH2 0x16A3 JUMP JUMPDEST DUP1 ISZERO PUSH2 0x739 JUMPI DUP1 PUSH1 0x1F LT PUSH2 0x710 JUMPI PUSH2 0x100 DUP1 DUP4 SLOAD DIV MUL DUP4 MSTORE SWAP2 PUSH1 0x20 ADD SWAP2 PUSH2 0x739 JUMP JUMPDEST DUP3 ADD SWAP2 SWAP1 PUSH0 MSTORE PUSH1 0x20 PUSH0 KECCAK256 SWAP1 JUMPDEST DUP2 SLOAD DUP2 MSTORE SWAP1 PUSH1 0x1 ADD SWAP1 PUSH1 0x20 ADD DUP1 DUP4 GT PUSH2 0x71C JUMPI DUP3 SWAP1 SUB PUSH1 0x1F AND DUP3 ADD SWAP2 JUMPDEST POP POP POP POP PUSH1 0xC DUP4 ADD SLOAD PUSH1 0xD DUP5 ADD SLOAD PUSH1 0xE SWAP1 SWAP5 ADD SLOAD SWAP3 SWAP4 SWAP1 SWAP3 SWAP1 SWAP2 POP PUSH1 0x1 PUSH1 0x1 PUSH1 0xA0 SHL SUB AND DUP15 JUMP JUMPDEST PUSH2 0x768 PUSH2 0x11C2 JUMP JUMPDEST PUSH2 0x419 PUSH0 PUSH2 0x11EE JUMP JUMPDEST PUSH0 PUSH0 DUP3 GT PUSH2 0x7B3 JUMPI PUSH1 0x40 MLOAD PUSH3 0x461BCD PUSH1 0xE5 SHL DUP2 MSTORE PUSH1 0x20 PUSH1 0x4 DUP3 ADD MSTORE PUSH1 0xA PUSH1 0x24 DUP3 ADD MSTORE PUSH10 0x4E656564207072697A65 PUSH1 0xB0 SHL PUSH1 0x44 DUP3 ADD MSTORE PUSH1 0x64 ADD JUMPDEST PUSH1 0x40 MLOAD DUP1 SWAP2 SUB SWAP1 REVERT JUMPDEST PUSH2 0x7C1 PUSH1 0x4 DUP1 SLOAD PUSH1 0x1 ADD SWAP1 SSTORE JUMP JUMPDEST PUSH0 PUSH2 0x7CB PUSH1 0x4 SLOAD SWAP1 JUMP JUMPDEST PUSH1 0x3 SLOAD PUSH1 0x40 MLOAD PUSH4 0x57A981D1 PUSH1 0xE1 SHL DUP2 MSTORE PUSH1 0x4 DUP2 ADD DUP4 SWAP1 MSTORE SWAP2 SWAP3 POP PUSH0 SWAP2 PUSH1 0x1 PUSH1 0x1 PUSH1 0xA0 SHL SUB SWAP1 SWAP2 AND SWAP1 PUSH4 0xAF5303A2 SWAP1 PUSH1 0x24 ADD PUSH1 0x20 PUSH1 0x40 MLOAD DUP1 DUP4 SUB DUP2 PUSH0 DUP8 GAS CALL ISZERO DUP1 ISZERO PUSH2 0x818 JUMPI RETURNDATASIZE PUSH0 PUSH0 RETURNDATACOPY RETURNDATASIZE PUSH0 REVERT JUMPDEST POP POP POP POP PUSH1 0x40 MLOAD RETURNDATASIZE PUSH1 0x1F NOT PUSH1 0x1F DUP3 ADD AND DUP3 ADD DUP1 PUSH1 0x40 MSTORE POP DUP2 ADD SWAP1 PUSH2 0x83C SWAP2 SWAP1 PUSH2 0x16DB JUMP JUMPDEST SWAP1 POP PUSH1 0x1 PUSH1 0x1 PUSH1 0xA0 SHL SUB DUP2 AND PUSH2 0x894 JUMPI PUSH1 0x40 MLOAD PUSH3 0x461BCD PUSH1 0xE5 SHL DUP2 MSTORE PUSH1 0x20 PUSH1 0x4 DUP3 ADD MSTORE PUSH1 0x17 PUSH1 0x24 DUP3 ADD MSTORE PUSH32 0x4D616E61676572206372656174696F6E206661696C6564000000000000000000 PUSH1 0x44 DUP3 ADD MSTORE PUSH1 0x64 ADD PUSH2 0x7AA JUMP JUMPDEST PUSH1 0x2 SLOAD PUSH1 0x40 MLOAD PUSH4 0x23B872DD PUSH1 0xE0 SHL DUP2 MSTORE CALLER PUSH1 0x4 DUP3 ADD MSTORE PUSH1 0x1 PUSH1 0x1 PUSH1 0xA0 SHL SUB DUP4 DUP2 AND PUSH1 0x24 DUP4 ADD MSTORE PUSH1 0x44 DUP3 ADD DUP8 SWAP1 MSTORE SWAP1 SWAP2 AND SWAP1 PUSH4 0x23B872DD SWAP1 PUSH1 0x64 ADD PUSH1 0x20 PUSH1 0x40 MLOAD DUP1 DUP4 SUB DUP2 PUSH0 DUP8 GAS CALL ISZERO DUP1 ISZERO PUSH2 0x8EA JUMPI RETURNDATASIZE PUSH0 PUSH0 RETURNDATACOPY RETURNDATASIZE PUSH0 REVERT JUMPDEST POP POP POP POP PUSH1 0x40 MLOAD RETURNDATASIZE PUSH1 0x1F NOT PUSH1 0x1F DUP3 ADD AND DUP3 ADD DUP1 PUSH1 0x40 MSTORE POP DUP2 ADD SWAP1 PUSH2 0x90E SWAP2 SWAP1 PUSH2 0x16F6 JUMP JUMPDEST POP PUSH1 0x40 DUP1 MLOAD PUSH2 0x1E0 DUP2 ADD DUP3 MSTORE DUP4 DUP2 MSTORE CALLER PUSH1 0x20 DUP3 ADD MSTORE SWAP1 DUP2 ADD DUP10 SWAP1 MSTORE PUSH1 0x60 DUP2 ADD DUP9 SWAP1 MSTORE PUSH1 0x80 DUP2 ADD DUP8 SWAP1 MSTORE PUSH1 0xA0 DUP2 ADD DUP6 SWAP1 MSTORE PUSH0 PUSH1 0xC0 DUP3 ADD DUP2 SWAP1 MSTORE TIMESTAMP PUSH1 0xE0 DUP4 ADD MSTORE PUSH1 0x1 PUSH2 0x100 DUP4 ADD MSTORE PUSH2 0x120 DUP3 ADD DUP2 SWAP1 MSTORE PUSH2 0x140 DUP3 ADD SWAP1 PUSH1 0x40 MLOAD SWAP1 DUP1 DUP3 MSTORE DUP1 PUSH1 0x20 MUL PUSH1 0x20 ADD DUP3 ADD PUSH1 0x40 MSTORE DUP1 ISZERO PUSH2 0x98B JUMPI DUP2 PUSH1 0x20 ADD PUSH1 0x20 DUP3 MUL DUP1 CALLDATASIZE DUP4 CALLDATACOPY ADD SWAP1 POP JUMPDEST POP DUP2 MSTORE PUSH1 0x20 DUP2 ADD DUP8 SWAP1 MSTORE PUSH1 0x40 ADD PUSH2 0x9A5 TIMESTAMP PUSH3 0x278D00 PUSH2 0x1715 JUMP JUMPDEST DUP2 MSTORE PUSH1 0x20 ADD PUSH2 0x9B7 TIMESTAMP PUSH3 0x93A80 PUSH2 0x1715 JUMP JUMPDEST DUP2 MSTORE PUSH1 0x1 PUSH1 0x1 PUSH1 0xA0 SHL SUB DUP4 DUP2 AND PUSH1 0x20 SWAP3 DUP4 ADD MSTORE PUSH0 DUP6 DUP2 MSTORE PUSH1 0x8 DUP4 MSTORE PUSH1 0x40 SWAP1 DUP2 SWAP1 KECCAK256 DUP5 MLOAD DUP2 SSTORE SWAP3 DUP5 ADD MLOAD PUSH1 0x1 DUP5 ADD DUP1 SLOAD PUSH1 0x1 PUSH1 0x1 PUSH1 0xA0 SHL SUB NOT AND SWAP2 SWAP1 SWAP4 AND OR SWAP1 SWAP2 SSTORE DUP3 ADD MLOAD PUSH1 0x2 DUP3 ADD SWAP1 PUSH2 0xA0A SWAP1 DUP3 PUSH2 0x1774 JUMP JUMPDEST POP PUSH1 0x60 DUP3 ADD MLOAD PUSH1 0x3 DUP3 ADD SWAP1 PUSH2 0xA1F SWAP1 DUP3 PUSH2 0x1774 JUMP JUMPDEST POP PUSH1 0x80 DUP3 ADD MLOAD PUSH1 0x4 DUP3 ADD SWAP1 PUSH2 0xA34 SWAP1 DUP3 PUSH2 0x1774 JUMP JUMPDEST POP PUSH1 0xA0 DUP3 ADD MLOAD PUSH1 0x5 DUP3 ADD SSTORE PUSH1 0xC0 DUP3 ADD MLOAD PUSH1 0x6 DUP3 ADD DUP1 SLOAD SWAP2 ISZERO ISZERO PUSH1 0xFF NOT SWAP3 DUP4 AND OR SWAP1 SSTORE PUSH1 0xE0 DUP4 ADD MLOAD PUSH1 0x7 DUP4 ADD SSTORE PUSH2 0x100 DUP4 ADD MLOAD PUSH1 0x8 DUP4 ADD DUP1 SLOAD SWAP2 ISZERO ISZERO SWAP2 SWAP1 SWAP3 AND OR SWAP1 SSTORE PUSH2 0x120 DUP3 ADD MLOAD PUSH1 0x9 DUP3 ADD SSTORE PUSH2 0x140 DUP3 ADD MLOAD DUP1 MLOAD PUSH2 0xA9D SWAP2 PUSH1 0xA DUP5 ADD SWAP2 PUSH1 0x20 SWAP1 SWAP2 ADD SWAP1 PUSH2 0x129C JUMP JUMPDEST POP PUSH2 0x160 DUP3 ADD MLOAD PUSH1 0xB DUP3 ADD SWAP1 PUSH2 0xAB3 SWAP1 DUP3 PUSH2 0x1774 JUMP JUMPDEST POP PUSH2 0x180 DUP3 ADD MLOAD PUSH1 0xC DUP3 ADD SSTORE PUSH2 0x1A0 DUP3 ADD MLOAD PUSH1 0xD DUP3 ADD SSTORE PUSH2 0x1C0 SWAP1 SWAP2 ADD MLOAD PUSH1 0xE SWAP1 SWAP2 ADD DUP1 SLOAD PUSH1 0x1 PUSH1 0x1 PUSH1 0xA0 SHL SUB NOT AND PUSH1 0x1 PUSH1 0x1 PUSH1 0xA0 SHL SUB SWAP1 SWAP3 AND SWAP2 SWAP1 SWAP2 OR SWAP1 SSTORE POP PUSH0 DUP2 DUP2 MSTORE PUSH1 0xA PUSH1 0x20 MSTORE PUSH1 0x40 SWAP1 KECCAK256 DUP1 SLOAD PUSH1 0xFF NOT AND PUSH1 0x1 OR SWAP1 SSTORE SWAP7 SWAP6 POP POP POP POP POP POP JUMP JUMPDEST PUSH2 0xB1E PUSH2 0x123D JUMP JUMPDEST PUSH0 DUP3 DUP2 MSTORE PUSH1 0xA PUSH1 0x20 MSTORE PUSH1 0x40 SWAP1 KECCAK256 SLOAD PUSH1 0xFF AND PUSH2 0xB6F JUMPI PUSH1 0x40 MLOAD PUSH3 0x461BCD PUSH1 0xE5 SHL DUP2 MSTORE PUSH1 0x20 PUSH1 0x4 DUP3 ADD MSTORE PUSH1 0x11 PUSH1 0x24 DUP3 ADD MSTORE PUSH17 0x50757A7A6C65206E6F7420616374697665 PUSH1 0x78 SHL PUSH1 0x44 DUP3 ADD MSTORE PUSH1 0x64 ADD PUSH2 0x7AA JUMP JUMPDEST PUSH0 DUP3 DUP2 MSTORE PUSH1 0x9 PUSH1 0x20 MSTORE PUSH1 0x40 DUP2 KECCAK256 SLOAD SWAP1 PUSH2 0xB87 DUP5 PUSH2 0xED6 JUMP JUMPDEST PUSH1 0x2 SLOAD PUSH0 DUP7 DUP2 MSTORE PUSH1 0x8 PUSH1 0x20 MSTORE PUSH1 0x40 SWAP1 DUP2 SWAP1 KECCAK256 PUSH1 0xE ADD SLOAD SWAP1 MLOAD PUSH4 0x23B872DD PUSH1 0xE0 SHL DUP2 MSTORE CALLER PUSH1 0x4 DUP3 ADD MSTORE PUSH1 0x1 PUSH1 0x1 PUSH1 0xA0 SHL SUB SWAP2 DUP3 AND PUSH1 0x24 DUP3 ADD MSTORE PUSH1 0x44 DUP2 ADD DUP5 SWAP1 MSTORE SWAP3 SWAP4 POP AND SWAP1 PUSH4 0x23B872DD SWAP1 PUSH1 0x64 ADD PUSH1 0x20 PUSH1 0x40 MLOAD DUP1 DUP4 SUB DUP2 PUSH0 DUP8 GAS CALL ISZERO DUP1 ISZERO PUSH2 0xBF0 JUMPI RETURNDATASIZE PUSH0 PUSH0 RETURNDATACOPY RETURNDATASIZE PUSH0 REVERT JUMPDEST POP POP POP POP PUSH1 0x40 MLOAD RETURNDATASIZE PUSH1 0x1F NOT PUSH1 0x1F DUP3 ADD AND DUP3 ADD DUP1 PUSH1 0x40 MSTORE POP DUP2 ADD SWAP1 PUSH2 0xC14 SWAP2 SWAP1 PUSH2 0x16F6 JUMP JUMPDEST POP PUSH0 DUP5 DUP2 MSTORE PUSH1 0x8 PUSH1 0x20 MSTORE PUSH1 0x40 DUP2 KECCAK256 PUSH1 0x5 ADD DUP1 SLOAD DUP4 SWAP3 SWAP1 PUSH2 0xC35 SWAP1 DUP5 SWAP1 PUSH2 0x1715 JUMP JUMPDEST SWAP1 SWAP2 SSTORE POP POP PUSH0 DUP5 DUP2 MSTORE PUSH1 0x8 PUSH1 0x20 SWAP1 DUP2 MSTORE PUSH1 0x40 DUP1 DUP4 KECCAK256 SWAP1 MLOAD PUSH2 0xC5C SWAP3 PUSH1 0xB SWAP1 SWAP3 ADD SWAP2 ADD PUSH2 0x182F JUMP JUMPDEST PUSH1 0x40 MLOAD PUSH1 0x20 DUP2 DUP4 SUB SUB DUP2 MSTORE SWAP1 PUSH1 0x40 MSTORE DUP1 MLOAD SWAP1 PUSH1 0x20 ADD KECCAK256 DUP5 PUSH1 0x40 MLOAD PUSH1 0x20 ADD PUSH2 0xC83 SWAP2 SWAP1 PUSH2 0x18A0 JUMP JUMPDEST PUSH1 0x40 DUP1 MLOAD PUSH1 0x1F NOT DUP2 DUP5 SUB ADD DUP2 MSTORE SWAP2 DUP2 MSTORE DUP2 MLOAD PUSH1 0x20 SWAP3 DUP4 ADD KECCAK256 PUSH0 DUP10 DUP2 MSTORE PUSH1 0xB DUP5 MSTORE DUP3 DUP2 KECCAK256 CALLER DUP3 MSTORE SWAP1 SWAP4 MSTORE SWAP1 DUP3 KECCAK256 DUP1 SLOAD SWAP4 SWAP1 SWAP2 EQ SWAP4 POP PUSH1 0x1 SWAP3 SWAP1 SWAP2 SWAP1 PUSH2 0xCC8 SWAP1 DUP5 SWAP1 PUSH2 0x1715 JUMP JUMPDEST SWAP1 SWAP2 SSTORE POP POP CALLER PUSH0 DUP2 DUP2 MSTORE PUSH1 0xC PUSH1 0x20 SWAP1 DUP2 MSTORE PUSH1 0x40 DUP1 DUP4 KECCAK256 DUP1 SLOAD PUSH1 0x1 DUP2 DUP2 ADD DUP4 SSTORE SWAP2 DUP6 MSTORE DUP4 DUP6 KECCAK256 ADD DUP11 SWAP1 SSTORE DUP2 MLOAD PUSH1 0x80 DUP2 ADD DUP4 MSTORE DUP9 DUP2 MSTORE DUP1 DUP5 ADD DUP12 DUP2 MSTORE DUP2 DUP5 ADD SWAP7 DUP8 MSTORE DUP8 ISZERO DUP1 ISZERO PUSH1 0x60 DUP5 ADD SWAP1 DUP2 MSTORE DUP14 DUP9 MSTORE PUSH1 0x9 DUP8 MSTORE SWAP5 DUP8 KECCAK256 DUP1 SLOAD DUP1 DUP7 ADD DUP3 SSTORE SWAP1 DUP9 MSTORE SWAP6 SWAP1 SWAP7 KECCAK256 DUP3 MLOAD PUSH1 0x3 SWAP1 SWAP7 MUL ADD SWAP5 DUP6 SSTORE MLOAD SWAP2 DUP5 ADD SWAP2 SWAP1 SWAP2 SSTORE SWAP4 MLOAD PUSH1 0x2 SWAP1 SWAP3 ADD DUP1 SLOAD SWAP2 MLOAD ISZERO ISZERO PUSH1 0x1 PUSH1 0xA0 SHL MUL PUSH1 0x1 PUSH1 0x1 PUSH1 0xA8 SHL SUB NOT SWAP1 SWAP3 AND PUSH1 0x1 PUSH1 0x1 PUSH1 0xA0 SHL SUB SWAP4 SWAP1 SWAP4 AND SWAP3 SWAP1 SWAP3 OR OR SWAP1 SSTORE PUSH2 0xEC5 JUMPI PUSH0 DUP7 DUP2 MSTORE PUSH1 0x8 PUSH1 0x20 MSTORE PUSH1 0x40 DUP2 KECCAK256 PUSH1 0x5 SWAP1 DUP2 ADD SLOAD SWAP1 SLOAD SWAP1 SWAP2 SWAP1 PUSH1 0x64 SWAP1 PUSH2 0xD99 SWAP1 DUP3 PUSH2 0x18B6 JUMP JUMPDEST PUSH2 0xDA3 SWAP1 DUP5 PUSH2 0x18C9 JUMP JUMPDEST PUSH2 0xDAD SWAP2 SWAP1 PUSH2 0x18E0 JUMP JUMPDEST SWAP1 POP PUSH0 PUSH2 0xDBA DUP3 DUP5 PUSH2 0x18B6 JUMP JUMPDEST PUSH0 DUP11 DUP2 MSTORE PUSH1 0x8 PUSH1 0x20 MSTORE PUSH1 0x40 SWAP1 DUP2 SWAP1 KECCAK256 PUSH1 0xE ADD SLOAD SWAP1 MLOAD PUSH4 0x393840F7 PUSH1 0xE2 SHL DUP2 MSTORE CALLER PUSH1 0x4 DUP3 ADD MSTORE PUSH1 0x24 DUP2 ADD DUP6 SWAP1 MSTORE SWAP2 SWAP3 POP PUSH1 0x1 PUSH1 0x1 PUSH1 0xA0 SHL SUB AND SWAP1 PUSH4 0xE4E103DC SWAP1 PUSH1 0x44 ADD PUSH0 PUSH1 0x40 MLOAD DUP1 DUP4 SUB DUP2 PUSH0 DUP8 DUP1 EXTCODESIZE ISZERO DUP1 ISZERO PUSH2 0xE13 JUMPI PUSH0 PUSH0 REVERT JUMPDEST POP GAS CALL ISZERO DUP1 ISZERO PUSH2 0xE25 JUMPI RETURNDATASIZE PUSH0 PUSH0 RETURNDATACOPY RETURNDATASIZE PUSH0 REVERT JUMPDEST POP POP POP PUSH0 DUP11 DUP2 MSTORE PUSH1 0x8 PUSH1 0x20 MSTORE PUSH1 0x40 SWAP1 DUP2 SWAP1 KECCAK256 PUSH1 0xE ADD SLOAD SWAP1 MLOAD PUSH4 0x3DA3F60D PUSH1 0xE1 SHL DUP2 MSTORE PUSH1 0x4 DUP2 ADD DUP5 SWAP1 MSTORE PUSH1 0x1 PUSH1 0x1 PUSH1 0xA0 SHL SUB SWAP1 SWAP2 AND SWAP2 POP PUSH4 0x7B47EC1A SWAP1 PUSH1 0x24 ADD PUSH0 PUSH1 0x40 MLOAD DUP1 DUP4 SUB DUP2 PUSH0 DUP8 DUP1 EXTCODESIZE ISZERO DUP1 ISZERO PUSH2 0xE7B JUMPI PUSH0 PUSH0 REVERT JUMPDEST POP GAS CALL ISZERO DUP1 ISZERO PUSH2 0xE8D JUMPI RETURNDATASIZE PUSH0 PUSH0 RETURNDATACOPY RETURNDATASIZE PUSH0 REVERT JUMPDEST POP POP POP PUSH0 DUP11 DUP2 MSTORE PUSH1 0x8 PUSH1 0x20 SWAP1 DUP2 MSTORE PUSH1 0x40 DUP1 DUP4 KECCAK256 PUSH1 0x6 ADD DUP1 SLOAD PUSH1 0xFF NOT SWAP1 DUP2 AND PUSH1 0x1 OR SWAP1 SWAP2 SSTORE PUSH1 0xA SWAP1 SWAP3 MSTORE SWAP1 SWAP2 KECCAK256 DUP1 SLOAD SWAP1 SWAP2 AND SWAP1 SSTORE POP POP POP POP JUMPDEST POP POP POP POP PUSH2 0xED2 PUSH1 0x1 DUP1 SSTORE JUMP JUMPDEST POP POP JUMP JUMPDEST PUSH1 0x7 SLOAD PUSH0 DUP3 DUP2 MSTORE PUSH1 0x9 PUSH1 0x20 MSTORE PUSH1 0x40 DUP2 KECCAK256 SLOAD SWAP1 SWAP2 PUSH2 0xEF2 SWAP2 PUSH2 0x18C9 JUMP JUMPDEST PUSH1 0x6 SLOAD PUSH2 0xEFF SWAP2 SWAP1 PUSH2 0x1715 JUMP JUMPDEST SWAP3 SWAP2 POP POP JUMP JUMPDEST PUSH2 0xF0D PUSH2 0x123D JUMP JUMPDEST PUSH0 DUP2 DUP2 MSTORE PUSH1 0x8 PUSH1 0x20 MSTORE PUSH1 0x40 SWAP1 KECCAK256 PUSH1 0x1 ADD SLOAD DUP2 SWAP1 PUSH1 0x1 PUSH1 0x1 PUSH1 0xA0 SHL SUB AND CALLER EQ PUSH2 0xF6C JUMPI PUSH1 0x40 MLOAD PUSH3 0x461BCD PUSH1 0xE5 SHL DUP2 MSTORE PUSH1 0x20 PUSH1 0x4 DUP3 ADD MSTORE PUSH1 0x12 PUSH1 0x24 DUP3 ADD MSTORE PUSH18 0x2737BA10383ABD3D36329031B932B0BA37B9 PUSH1 0x71 SHL PUSH1 0x44 DUP3 ADD MSTORE PUSH1 0x64 ADD PUSH2 0x7AA JUMP JUMPDEST PUSH0 DUP3 DUP2 MSTORE PUSH1 0x8 PUSH1 0x20 MSTORE PUSH1 0x40 SWAP1 KECCAK256 PUSH1 0x6 DUP2 ADD SLOAD PUSH1 0xFF AND ISZERO PUSH2 0xFC1 JUMPI PUSH1 0x40 MLOAD PUSH3 0x461BCD PUSH1 0xE5 SHL DUP2 MSTORE PUSH1 0x20 PUSH1 0x4 DUP3 ADD MSTORE PUSH1 0x10 PUSH1 0x24 DUP3 ADD MSTORE PUSH16 0x105B1C9958591E481C185A59081BDD5D PUSH1 0x82 SHL PUSH1 0x44 DUP3 ADD MSTORE PUSH1 0x64 ADD PUSH2 0x7AA JUMP JUMPDEST DUP1 PUSH1 0xC ADD SLOAD TIMESTAMP GT PUSH2 0x100D JUMPI PUSH1 0x40 MLOAD PUSH3 0x461BCD PUSH1 0xE5 SHL DUP2 MSTORE PUSH1 0x20 PUSH1 0x4 DUP3 ADD MSTORE PUSH1 0x16 PUSH1 0x24 DUP3 ADD MSTORE PUSH22 0x141D5E9E9B19481B9BDD08195E1C1A5C9959081E595D PUSH1 0x52 SHL PUSH1 0x44 DUP3 ADD MSTORE PUSH1 0x64 ADD PUSH2 0x7AA JUMP JUMPDEST PUSH0 DUP2 PUSH1 0x5 ADD SLOAD GT PUSH2 0x1054 JUMPI PUSH1 0x40 MLOAD PUSH3 0x461BCD PUSH1 0xE5 SHL DUP2 MSTORE PUSH1 0x20 PUSH1 0x4 DUP3 ADD MSTORE PUSH1 0x11 PUSH1 0x24 DUP3 ADD MSTORE PUSH17 0x4E6F207072697A6520746F20636C61696D PUSH1 0x78 SHL PUSH1 0x44 DUP3 ADD MSTORE PUSH1 0x64 ADD PUSH2 0x7AA JUMP JUMPDEST PUSH1 0x5 DUP1 DUP3 ADD SLOAD SWAP1 SLOAD PUSH0 SWAP1 PUSH1 0x64 SWAP1 PUSH2 0x106B SWAP1 DUP3 PUSH2 0x18B6 JUMP JUMPDEST PUSH2 0x1075 SWAP1 DUP5 PUSH2 0x18C9 JUMP JUMPDEST PUSH2 0x107F SWAP2 SWAP1 PUSH2 0x18E0 JUMP JUMPDEST SWAP1 POP PUSH0 PUSH2 0x108C DUP3 DUP5 PUSH2 0x18B6 JUMP JUMPDEST PUSH1 0xE DUP6 ADD SLOAD PUSH1 0x1 DUP7 ADD SLOAD PUSH1 0x40 MLOAD PUSH4 0x393840F7 PUSH1 0xE2 SHL DUP2 MSTORE PUSH1 0x1 PUSH1 0x1 PUSH1 0xA0 SHL SUB SWAP2 DUP3 AND PUSH1 0x4 DUP3 ADD MSTORE PUSH1 0x24 DUP2 ADD DUP7 SWAP1 MSTORE SWAP3 SWAP4 POP AND SWAP1 PUSH4 0xE4E103DC SWAP1 PUSH1 0x44 ADD PUSH0 PUSH1 0x40 MLOAD DUP1 DUP4 SUB DUP2 PUSH0 DUP8 DUP1 EXTCODESIZE ISZERO DUP1 ISZERO PUSH2 0x10DF JUMPI PUSH0 PUSH0 REVERT JUMPDEST POP GAS CALL ISZERO DUP1 ISZERO PUSH2 0x10F1 JUMPI RETURNDATASIZE PUSH0 PUSH0 RETURNDATACOPY RETURNDATASIZE PUSH0 REVERT JUMPDEST POP POP POP POP PUSH1 0xE DUP5 ADD SLOAD PUSH1 0x40 MLOAD PUSH4 0x3DA3F60D PUSH1 0xE1 SHL DUP2 MSTORE PUSH1 0x4 DUP2 ADD DUP4 SWAP1 MSTORE PUSH1 0x1 PUSH1 0x1 PUSH1 0xA0 SHL SUB SWAP1 SWAP2 AND SWAP1 PUSH4 0x7B47EC1A SWAP1 PUSH1 0x24 ADD PUSH0 PUSH1 0x40 MLOAD DUP1 DUP4 SUB DUP2 PUSH0 DUP8 DUP1 EXTCODESIZE ISZERO DUP1 ISZERO PUSH2 0x113A JUMPI PUSH0 PUSH0 REVERT JUMPDEST POP GAS CALL ISZERO DUP1 ISZERO PUSH2 0x114C JUMPI RETURNDATASIZE PUSH0 PUSH0 RETURNDATACOPY RETURNDATASIZE PUSH0 REVERT JUMPDEST POP POP POP PUSH1 0x6 SWAP1 SWAP5 ADD DUP1 SLOAD PUSH1 0xFF NOT SWAP1 DUP2 AND PUSH1 0x1 OR SWAP1 SWAP2 SSTORE PUSH0 DUP8 DUP2 MSTORE PUSH1 0xA PUSH1 0x20 MSTORE PUSH1 0x40 SWAP1 KECCAK256 DUP1 SLOAD SWAP1 SWAP2 AND SWAP1 SSTORE POP PUSH2 0x1185 SWAP4 POP PUSH2 0x1296 SWAP3 POP POP POP JUMP JUMPDEST POP JUMP JUMPDEST PUSH2 0x1190 PUSH2 0x11C2 JUMP JUMPDEST PUSH1 0x1 PUSH1 0x1 PUSH1 0xA0 SHL SUB DUP2 AND PUSH2 0x11B9 JUMPI PUSH1 0x40 MLOAD PUSH4 0x1E4FBDF7 PUSH1 0xE0 SHL DUP2 MSTORE PUSH0 PUSH1 0x4 DUP3 ADD MSTORE PUSH1 0x24 ADD PUSH2 0x7AA JUMP JUMPDEST PUSH2 0x1185 DUP2 PUSH2 0x11EE JUMP JUMPDEST PUSH0 SLOAD PUSH1 0x1 PUSH1 0x1 PUSH1 0xA0 SHL SUB AND CALLER EQ PUSH2 0x419 JUMPI PUSH1 0x40 MLOAD PUSH4 0x118CDAA7 PUSH1 0xE0 SHL DUP2 MSTORE CALLER PUSH1 0x4 DUP3 ADD MSTORE PUSH1 0x24 ADD PUSH2 0x7AA JUMP JUMPDEST PUSH0 DUP1 SLOAD PUSH1 0x1 PUSH1 0x1 PUSH1 0xA0 SHL SUB DUP4 DUP2 AND PUSH1 0x1 PUSH1 0x1 PUSH1 0xA0 SHL SUB NOT DUP4 AND DUP2 OR DUP5 SSTORE PUSH1 0x40 MLOAD SWAP2 SWAP1 SWAP3 AND SWAP3 DUP4 SWAP2 PUSH32 0x8BE0079C531659141344CD1FD0A4F28419497F9722A3DAAFE3B4186F6B6457E0 SWAP2 SWAP1 LOG3 POP POP JUMP JUMPDEST PUSH1 0x2 PUSH1 0x1 SLOAD SUB PUSH2 0x128F JUMPI PUSH1 0x40 MLOAD PUSH3 0x461BCD PUSH1 0xE5 SHL DUP2 MSTORE PUSH1 0x20 PUSH1 0x4 DUP3 ADD MSTORE PUSH1 0x1F PUSH1 0x24 DUP3 ADD MSTORE PUSH32 0x5265656E7472616E637947756172643A207265656E7472616E742063616C6C00 PUSH1 0x44 DUP3 ADD MSTORE PUSH1 0x64 ADD PUSH2 0x7AA JUMP JUMPDEST PUSH1 0x2 PUSH1 0x1 SSTORE JUMP JUMPDEST PUSH1 0x1 DUP1 SSTORE JUMP JUMPDEST DUP3 DUP1 SLOAD DUP3 DUP3 SSTORE SWAP1 PUSH0 MSTORE PUSH1 0x20 PUSH0 KECCAK256 SWAP1 DUP2 ADD SWAP3 DUP3 ISZERO PUSH2 0x12EF JUMPI SWAP2 PUSH1 0x20 MUL DUP3 ADD JUMPDEST DUP3 DUP2 GT ISZERO PUSH2 0x12EF JUMPI DUP3 MLOAD DUP3 SLOAD PUSH1 0x1 PUSH1 0x1 PUSH1 0xA0 SHL SUB NOT AND PUSH1 0x1 PUSH1 0x1 PUSH1 0xA0 SHL SUB SWAP1 SWAP2 AND OR DUP3 SSTORE PUSH1 0x20 SWAP1 SWAP3 ADD SWAP2 PUSH1 0x1 SWAP1 SWAP2 ADD SWAP1 PUSH2 0x12BA JUMP JUMPDEST POP PUSH2 0x12FB SWAP3 SWAP2 POP PUSH2 0x12FF JUMP JUMPDEST POP SWAP1 JUMP JUMPDEST JUMPDEST DUP1 DUP3 GT ISZERO PUSH2 0x12FB JUMPI PUSH0 DUP2 SSTORE PUSH1 0x1 ADD PUSH2 0x1300 JUMP JUMPDEST PUSH1 0x1 PUSH1 0x1 PUSH1 0xA0 SHL SUB DUP2 AND DUP2 EQ PUSH2 0x1185 JUMPI PUSH0 PUSH0 REVERT JUMPDEST PUSH0 PUSH0 PUSH1 0x40 DUP4 DUP6 SUB SLT ISZERO PUSH2 0x1338 JUMPI PUSH0 PUSH0 REVERT JUMPDEST DUP3 CALLDATALOAD PUSH2 0x1343 DUP2 PUSH2 0x1313 JUMP JUMPDEST SWAP5 PUSH1 0x20 SWAP4 SWAP1 SWAP4 ADD CALLDATALOAD SWAP4 POP POP POP JUMP JUMPDEST PUSH0 PUSH0 PUSH1 0x40 DUP4 DUP6 SUB SLT ISZERO PUSH2 0x1362 JUMPI PUSH0 PUSH0 REVERT JUMPDEST POP POP DUP1 CALLDATALOAD SWAP3 PUSH1 0x20 SWAP1 SWAP2 ADD CALLDATALOAD SWAP2 POP JUMP JUMPDEST PUSH0 PUSH0 PUSH1 0x40 DUP4 DUP6 SUB SLT ISZERO PUSH2 0x1382 JUMPI PUSH0 PUSH0 REVERT JUMPDEST DUP3 CALLDATALOAD SWAP2 POP PUSH1 0x20 DUP4 ADD CALLDATALOAD PUSH2 0x1394 DUP2 PUSH2 0x1313 JUMP JUMPDEST DUP1 SWAP2 POP POP SWAP3 POP SWAP3 SWAP1 POP JUMP JUMPDEST PUSH0 PUSH1 0x20 DUP3 DUP5 SUB SLT ISZERO PUSH2 0x13AF JUMPI PUSH0 PUSH0 REVERT JUMPDEST DUP2 CALLDATALOAD PUSH2 0x13BA DUP2 PUSH2 0x1313 JUMP JUMPDEST SWAP4 SWAP3 POP POP POP JUMP JUMPDEST PUSH0 PUSH1 0x20 DUP3 DUP5 SUB SLT ISZERO PUSH2 0x13D1 JUMPI PUSH0 PUSH0 REVERT JUMPDEST POP CALLDATALOAD SWAP2 SWAP1 POP JUMP JUMPDEST PUSH0 DUP2 MLOAD DUP1 DUP5 MSTORE DUP1 PUSH1 0x20 DUP5 ADD PUSH1 0x20 DUP7 ADD MCOPY PUSH0 PUSH1 0x20 DUP3 DUP7 ADD ADD MSTORE PUSH1 0x20 PUSH1 0x1F NOT PUSH1 0x1F DUP4 ADD AND DUP6 ADD ADD SWAP2 POP POP SWAP3 SWAP2 POP POP JUMP JUMPDEST DUP15 DUP2 MSTORE PUSH1 0x1 PUSH1 0x1 PUSH1 0xA0 SHL SUB DUP15 AND PUSH1 0x20 DUP3 ADD MSTORE PUSH2 0x1C0 PUSH1 0x40 DUP3 ADD MSTORE PUSH0 PUSH2 0x142F PUSH2 0x1C0 DUP4 ADD DUP16 PUSH2 0x13D8 JUMP JUMPDEST DUP3 DUP2 SUB PUSH1 0x60 DUP5 ADD MSTORE PUSH2 0x1441 DUP2 DUP16 PUSH2 0x13D8 JUMP JUMPDEST SWAP1 POP DUP3 DUP2 SUB PUSH1 0x80 DUP5 ADD MSTORE PUSH2 0x1455 DUP2 DUP15 PUSH2 0x13D8 JUMP JUMPDEST SWAP1 POP DUP12 PUSH1 0xA0 DUP5 ADD MSTORE PUSH2 0x146B PUSH1 0xC0 DUP5 ADD DUP13 ISZERO ISZERO SWAP1 MSTORE JUMP JUMPDEST DUP10 PUSH1 0xE0 DUP5 ADD MSTORE PUSH2 0x1480 PUSH2 0x100 DUP5 ADD DUP11 ISZERO ISZERO SWAP1 MSTORE JUMP JUMPDEST DUP8 PUSH2 0x120 DUP5 ADD MSTORE DUP3 DUP2 SUB PUSH2 0x140 DUP5 ADD MSTORE PUSH2 0x149A DUP2 DUP9 PUSH2 0x13D8 JUMP JUMPDEST SWAP2 POP POP DUP5 PUSH2 0x160 DUP4 ADD MSTORE DUP4 PUSH2 0x180 DUP4 ADD MSTORE PUSH2 0x14C1 PUSH2 0x1A0 DUP4 ADD DUP5 PUSH1 0x1 PUSH1 0x1 PUSH1 0xA0 SHL SUB AND SWAP1 MSTORE JUMP JUMPDEST SWAP16 SWAP15 POP POP POP POP POP POP POP POP POP POP POP POP POP POP POP JUMP JUMPDEST PUSH4 0x4E487B71 PUSH1 0xE0 SHL PUSH0 MSTORE PUSH1 0x41 PUSH1 0x4 MSTORE PUSH1 0x24 PUSH0 REVERT JUMPDEST PUSH0 DUP3 PUSH1 0x1F DUP4 ADD SLT PUSH2 0x14F7 JUMPI PUSH0 PUSH0 REVERT JUMPDEST DUP2 CALLDATALOAD PUSH8 0xFFFFFFFFFFFFFFFF DUP2 GT ISZERO PUSH2 0x1511 JUMPI PUSH2 0x1511 PUSH2 0x14D4 JUMP JUMPDEST PUSH1 0x40 MLOAD PUSH1 0x1F DUP3 ADD PUSH1 0x1F NOT SWAP1 DUP2 AND PUSH1 0x3F ADD AND DUP2 ADD PUSH8 0xFFFFFFFFFFFFFFFF DUP2 GT DUP3 DUP3 LT OR ISZERO PUSH2 0x1540 JUMPI PUSH2 0x1540 PUSH2 0x14D4 JUMP JUMPDEST PUSH1 0x40 MSTORE DUP2 DUP2 MSTORE DUP4 DUP3 ADD PUSH1 0x20 ADD DUP6 LT ISZERO PUSH2 0x1557 JUMPI PUSH0 PUSH0 REVERT JUMPDEST DUP2 PUSH1 0x20 DUP6 ADD PUSH1 0x20 DUP4 ADD CALLDATACOPY PUSH0 SWAP2 DUP2 ADD PUSH1 0x20 ADD SWAP2 SWAP1 SWAP2 MSTORE SWAP4 SWAP3 POP POP POP JUMP JUMPDEST PUSH0 PUSH0 PUSH0 PUSH0 PUSH0 PUSH1 0xA0 DUP7 DUP9 SUB SLT ISZERO PUSH2 0x1587 JUMPI PUSH0 PUSH0 REVERT JUMPDEST DUP6 CALLDATALOAD PUSH8 0xFFFFFFFFFFFFFFFF DUP2 GT ISZERO PUSH2 0x159D JUMPI PUSH0 PUSH0 REVERT JUMPDEST PUSH2 0x15A9 DUP9 DUP3 DUP10 ADD PUSH2 0x14E8 JUMP JUMPDEST SWAP6 POP POP PUSH1 0x20 DUP7 ADD CALLDATALOAD PUSH8 0xFFFFFFFFFFFFFFFF DUP2 GT ISZERO PUSH2 0x15C5 JUMPI PUSH0 PUSH0 REVERT JUMPDEST PUSH2 0x15D1 DUP9 DUP3 DUP10 ADD PUSH2 0x14E8 JUMP JUMPDEST SWAP5 POP POP PUSH1 0x40 DUP7 ADD CALLDATALOAD PUSH8 0xFFFFFFFFFFFFFFFF DUP2 GT ISZERO PUSH2 0x15ED JUMPI PUSH0 PUSH0 REVERT JUMPDEST PUSH2 0x15F9 DUP9 DUP3 DUP10 ADD PUSH2 0x14E8 JUMP JUMPDEST SWAP4 POP POP PUSH1 0x60 DUP7 ADD CALLDATALOAD PUSH8 0xFFFFFFFFFFFFFFFF DUP2 GT ISZERO PUSH2 0x1615 JUMPI PUSH0 PUSH0 REVERT JUMPDEST PUSH2 0x1621 DUP9 DUP3 DUP10 ADD PUSH2 0x14E8 JUMP JUMPDEST SWAP6 SWAP9 SWAP5 SWAP8 POP SWAP3 SWAP6 PUSH1 0x80 ADD CALLDATALOAD SWAP4 SWAP3 POP POP POP JUMP JUMPDEST PUSH0 PUSH0 PUSH1 0x40 DUP4 DUP6 SUB SLT ISZERO PUSH2 0x1644 JUMPI PUSH0 PUSH0 REVERT JUMPDEST DUP3 CALLDATALOAD SWAP2 POP PUSH1 0x20 DUP4 ADD CALLDATALOAD PUSH8 0xFFFFFFFFFFFFFFFF DUP2 GT ISZERO PUSH2 0x1661 JUMPI PUSH0 PUSH0 REVERT JUMPDEST PUSH2 0x166D DUP6 DUP3 DUP7 ADD PUSH2 0x14E8 JUMP JUMPDEST SWAP2 POP POP SWAP3 POP SWAP3 SWAP1 POP JUMP JUMPDEST PUSH4 0x4E487B71 PUSH1 0xE0 SHL PUSH0 MSTORE PUSH1 0x11 PUSH1 0x4 MSTORE PUSH1 0x24 PUSH0 REVERT JUMPDEST PUSH0 PUSH1 0x1 DUP3 ADD PUSH2 0x169C JUMPI PUSH2 0x169C PUSH2 0x1677 JUMP JUMPDEST POP PUSH1 0x1 ADD SWAP1 JUMP JUMPDEST PUSH1 0x1 DUP2 DUP2 SHR SWAP1 DUP3 AND DUP1 PUSH2 0x16B7 JUMPI PUSH1 0x7F DUP3 AND SWAP2 POP JUMPDEST PUSH1 0x20 DUP3 LT DUP2 SUB PUSH2 0x16D5 JUMPI PUSH4 0x4E487B71 PUSH1 0xE0 SHL PUSH0 MSTORE PUSH1 0x22 PUSH1 0x4 MSTORE PUSH1 0x24 PUSH0 REVERT JUMPDEST POP SWAP2 SWAP1 POP JUMP JUMPDEST PUSH0 PUSH1 0x20 DUP3 DUP5 SUB SLT ISZERO PUSH2 0x16EB JUMPI PUSH0 PUSH0 REVERT JUMPDEST DUP2 MLOAD PUSH2 0x13BA DUP2 PUSH2 0x1313 JUMP JUMPDEST PUSH0 PUSH1 0x20 DUP3 DUP5 SUB SLT ISZERO PUSH2 0x1706 JUMPI PUSH0 PUSH0 REVERT JUMPDEST DUP2 MLOAD DUP1 ISZERO ISZERO DUP2 EQ PUSH2 0x13BA JUMPI PUSH0 PUSH0 REVERT JUMPDEST DUP1 DUP3 ADD DUP1 DUP3 GT ISZERO PUSH2 0xEFF JUMPI PUSH2 0xEFF PUSH2 0x1677 JUMP JUMPDEST PUSH1 0x1F DUP3 GT ISZERO PUSH2 0x176F JUMPI DUP1 PUSH0 MSTORE PUSH1 0x20 PUSH0 KECCAK256 PUSH1 0x1F DUP5 ADD PUSH1 0x5 SHR DUP2 ADD PUSH1 0x20 DUP6 LT ISZERO PUSH2 0x174D JUMPI POP DUP1 JUMPDEST PUSH1 0x1F DUP5 ADD PUSH1 0x5 SHR DUP3 ADD SWAP2 POP JUMPDEST DUP2 DUP2 LT ISZERO PUSH2 0x176C JUMPI PUSH0 DUP2 SSTORE PUSH1 0x1 ADD PUSH2 0x1759 JUMP JUMPDEST POP POP JUMPDEST POP POP POP JUMP JUMPDEST DUP2 MLOAD PUSH8 0xFFFFFFFFFFFFFFFF DUP2 GT ISZERO PUSH2 0x178E JUMPI PUSH2 0x178E PUSH2 0x14D4 JUMP JUMPDEST PUSH2 0x17A2 DUP2 PUSH2 0x179C DUP5 SLOAD PUSH2 0x16A3 JUMP JUMPDEST DUP5 PUSH2 0x1728 JUMP JUMPDEST PUSH1 0x20 PUSH1 0x1F DUP3 GT PUSH1 0x1 DUP2 EQ PUSH2 0x17D4 JUMPI PUSH0 DUP4 ISZERO PUSH2 0x17BD JUMPI POP DUP5 DUP3 ADD MLOAD JUMPDEST PUSH0 NOT PUSH1 0x3 DUP6 SWAP1 SHL SHR NOT AND PUSH1 0x1 DUP5 SWAP1 SHL OR DUP5 SSTORE PUSH2 0x176C JUMP JUMPDEST PUSH0 DUP5 DUP2 MSTORE PUSH1 0x20 DUP2 KECCAK256 PUSH1 0x1F NOT DUP6 AND SWAP2 JUMPDEST DUP3 DUP2 LT ISZERO PUSH2 0x1803 JUMPI DUP8 DUP6 ADD MLOAD DUP3 SSTORE PUSH1 0x20 SWAP5 DUP6 ADD SWAP5 PUSH1 0x1 SWAP1 SWAP3 ADD SWAP2 ADD PUSH2 0x17E3 JUMP JUMPDEST POP DUP5 DUP3 LT ISZERO PUSH2 0x1820 JUMPI DUP7 DUP5 ADD MLOAD PUSH0 NOT PUSH1 0x3 DUP8 SWAP1 SHL PUSH1 0xF8 AND SHR NOT AND DUP2 SSTORE JUMPDEST POP POP POP POP PUSH1 0x1 SWAP1 DUP2 SHL ADD SWAP1 SSTORE POP JUMP JUMPDEST PUSH0 PUSH0 DUP4 SLOAD PUSH2 0x183C DUP2 PUSH2 0x16A3 JUMP JUMPDEST PUSH1 0x1 DUP3 AND DUP1 ISZERO PUSH2 0x1853 JUMPI PUSH1 0x1 DUP2 EQ PUSH2 0x1868 JUMPI PUSH2 0x1895 JUMP JUMPDEST PUSH1 0xFF NOT DUP4 AND DUP7 MSTORE DUP2 ISZERO ISZERO DUP3 MUL DUP7 ADD SWAP4 POP PUSH2 0x1895 JUMP JUMPDEST DUP7 PUSH0 MSTORE PUSH1 0x20 PUSH0 KECCAK256 PUSH0 JUMPDEST DUP4 DUP2 LT ISZERO PUSH2 0x188D JUMPI DUP2 SLOAD DUP9 DUP3 ADD MSTORE PUSH1 0x1 SWAP1 SWAP2 ADD SWAP1 PUSH1 0x20 ADD PUSH2 0x1871 JUMP JUMPDEST POP POP DUP2 DUP7 ADD SWAP4 POP JUMPDEST POP SWAP2 SWAP6 SWAP5 POP POP POP POP POP JUMP JUMPDEST PUSH0 DUP3 MLOAD DUP1 PUSH1 0x20 DUP6 ADD DUP5 MCOPY PUSH0 SWAP3 ADD SWAP2 DUP3 MSTORE POP SWAP2 SWAP1 POP JUMP JUMPDEST DUP2 DUP2 SUB DUP2 DUP2 GT ISZERO PUSH2 0xEFF JUMPI PUSH2 0xEFF PUSH2 0x1677 JUMP JUMPDEST DUP1 DUP3 MUL DUP2 ISZERO DUP3 DUP3 DIV DUP5 EQ OR PUSH2 0xEFF JUMPI PUSH2 0xEFF PUSH2 0x1677 JUMP JUMPDEST PUSH0 DUP3 PUSH2 0x18FA JUMPI PUSH4 0x4E487B71 PUSH1 0xE0 SHL PUSH0 MSTORE PUSH1 0x12 PUSH1 0x4 MSTORE PUSH1 0x24 PUSH0 REVERT JUMPDEST POP DIV SWAP1 JUMP INVALID LOG2 PUSH5 0x6970667358 0x22 SLT KECCAK256 SWAP5 0x2C PUSH11 0xE4E9E9E392C27633BED68F COINBASE PUSH32 0x314702FF71EB3C930A38ECD1158CDAD264736F6C634300081E00330000000000 "
		},
		"gasEstimates": {
			"creation": {
				"codeDepositCost": "1290600",
				"executionCost": "infinite",
				"totalCost": "infinite"
			},
			"external": {
				"attemptCount(uint256,address)": "2713",
				"attemptPuzzle(uint256,string)": "infinite",
				"burnRate()": "2305",
				"claimExpiredReward(uint256)": "infinite",
				"createAndAddWithNewManager(string,string,string,string,uint256)": "infinite",
				"entryBaseFee()": "2307",
				"entryStepFee()": "2394",
				"factory()": "2402",
				"getEntryFee(uint256)": "infinite",
				"isRegistered(address)": "2566",
				"nextUserId()": "2350",
				"owner()": "2451",
				"puzzAtmptIdByUser(address,uint256)": "4787",
				"puzzAttempts(uint256,uint256)": "9137",
				"puzzListings(uint256)": "infinite",
				"puzzShowStatus(uint256)": "2535",
				"registerOrLogin()": "99565",
				"renounceOwnership()": "infinite",
				"setFactory(address)": "26749",
				"token()": "2468",
				"transferOwnership(address)": "infinite",
				"users(address)": "4771"
			}
		},
		"methodIdentifiers": {
			"attemptCount(uint256,address)": "4da04ab1",
			"attemptPuzzle(uint256,string)": "8e46a093",
			"burnRate()": "bed99850",
			"claimExpiredReward(uint256)": "ab930d35",
			"createAndAddWithNewManager(string,string,string,string,uint256)": "77c74d49",
			"entryBaseFee()": "0a10002e",
			"entryStepFee()": "7f66427b",
			"factory()": "c45a0155",
			"getEntryFee(uint256)": "984d3c96",
			"isRegistered(address)": "c3c5a547",
			"nextUserId()": "a1e6a255",
			"owner()": "8da5cb5b",
			"puzzAtmptIdByUser(address,uint256)": "41757bc3",
			"puzzAttempts(uint256,uint256)": "4c55157b",
			"puzzListings(uint256)": "6e2c9d1c",
			"puzzShowStatus(uint256)": "e9f1b546",
			"registerOrLogin()": "1d8c91a1",
			"renounceOwnership()": "715018a6",
			"setFactory(address)": "5bb47808",
			"token()": "fc0c546a",
			"transferOwnership(address)": "f2fde38b",
			"users(address)": "a87430ba"
		}
	},
	"abi": [
		{
			"inputs": [
				{
					"internalType": "address",
					"name": "_token",
					"type": "address"
				},
				{
					"internalType": "address",
					"name": "_factory",
					"type": "address"
				},
				{
					"internalType": "address",
					"name": "initialOwner",
					"type": "address"
				}
			],
			"stateMutability": "nonpayable",
			"type": "constructor"
		},
		{
			"inputs": [
				{
					"internalType": "address",
					"name": "owner",
					"type": "address"
				}
			],
			"name": "OwnableInvalidOwner",
			"type": "error"
		},
		{
			"inputs": [
				{
					"internalType": "address",
					"name": "account",
					"type": "address"
				}
			],
			"name": "OwnableUnauthorizedAccount",
			"type": "error"
		},
		{
			"anonymous": false,
			"inputs": [
				{
					"indexed": true,
					"internalType": "address",
					"name": "previousOwner",
					"type": "address"
				},
				{
					"indexed": true,
					"internalType": "address",
					"name": "newOwner",
					"type": "address"
				}
			],
			"name": "OwnershipTransferred",
			"type": "event"
		},
		{
			"inputs": [
				{
					"internalType": "uint256",
					"name": "",
					"type": "uint256"
				},
				{
					"internalType": "address",
					"name": "",
					"type": "address"
				}
			],
			"name": "attemptCount",
			"outputs": [
				{
					"internalType": "uint256",
					"name": "",
					"type": "uint256"
				}
			],
			"stateMutability": "view",
			"type": "function"
		},
		{
			"inputs": [
				{
					"internalType": "uint256",
					"name": "pId",
					"type": "uint256"
				},
				{
					"internalType": "string",
					"name": "guess",
					"type": "string"
				}
			],
			"name": "attemptPuzzle",
			"outputs": [],
			"stateMutability": "nonpayable",
			"type": "function"
		},
		{
			"inputs": [],
			"name": "burnRate",
			"outputs": [
				{
					"internalType": "uint256",
					"name": "",
					"type": "uint256"
				}
			],
			"stateMutability": "view",
			"type": "function"
		},
		{
			"inputs": [
				{
					"internalType": "uint256",
					"name": "pId",
					"type": "uint256"
				}
			],
			"name": "claimExpiredReward",
			"outputs": [],
			"stateMutability": "nonpayable",
			"type": "function"
		},
		{
			"inputs": [
				{
					"internalType": "string",
					"name": "title",
					"type": "string"
				},
				{
					"internalType": "string",
					"name": "description",
					"type": "string"
				},
				{
					"internalType": "string",
					"name": "tags",
					"type": "string"
				},
				{
					"internalType": "string",
					"name": "answer",
					"type": "string"
				},
				{
					"internalType": "uint256",
					"name": "fixedFee",
					"type": "uint256"
				}
			],
			"name": "createAndAddWithNewManager",
			"outputs": [
				{
					"internalType": "uint256",
					"name": "",
					"type": "uint256"
				}
			],
			"stateMutability": "nonpayable",
			"type": "function"
		},
		{
			"inputs": [],
			"name": "entryBaseFee",
			"outputs": [
				{
					"internalType": "uint256",
					"name": "",
					"type": "uint256"
				}
			],
			"stateMutability": "view",
			"type": "function"
		},
		{
			"inputs": [],
			"name": "entryStepFee",
			"outputs": [
				{
					"internalType": "uint256",
					"name": "",
					"type": "uint256"
				}
			],
			"stateMutability": "view",
			"type": "function"
		},
		{
			"inputs": [],
			"name": "factory",
			"outputs": [
				{
					"internalType": "contract TokenManagerFactory",
					"name": "",
					"type": "address"
				}
			],
			"stateMutability": "view",
			"type": "function"
		},
		{
			"inputs": [
				{
					"internalType": "uint256",
					"name": "pId",
					"type": "uint256"
				}
			],
			"name": "getEntryFee",
			"outputs": [
				{
					"internalType": "uint256",
					"name": "",
					"type": "uint256"
				}
			],
			"stateMutability": "view",
			"type": "function"
		},
		{
			"inputs": [
				{
					"internalType": "address",
					"name": "",
					"type": "address"
				}
			],
			"name": "isRegistered",
			"outputs": [
				{
					"internalType": "bool",
					"name": "",
					"type": "bool"
				}
			],
			"stateMutability": "view",
			"type": "function"
		},
		{
			"inputs": [],
			"name": "nextUserId",
			"outputs": [
				{
					"internalType": "uint256",
					"name": "",
					"type": "uint256"
				}
			],
			"stateMutability": "view",
			"type": "function"
		},
		{
			"inputs": [],
			"name": "owner",
			"outputs": [
				{
					"internalType": "address",
					"name": "",
					"type": "address"
				}
			],
			"stateMutability": "view",
			"type": "function"
		},
		{
			"inputs": [
				{
					"internalType": "address",
					"name": "",
					"type": "address"
				},
				{
					"internalType": "uint256",
					"name": "",
					"type": "uint256"
				}
			],
			"name": "puzzAtmptIdByUser",
			"outputs": [
				{
					"internalType": "uint256",
					"name": "",
					"type": "uint256"
				}
			],
			"stateMutability": "view",
			"type": "function"
		},
		{
			"inputs": [
				{
					"internalType": "uint256",
					"name": "",
					"type": "uint256"
				},
				{
					"internalType": "uint256",
					"name": "",
					"type": "uint256"
				}
			],
			"name": "puzzAttempts",
			"outputs": [
				{
					"internalType": "uint256",
					"name": "id",
					"type": "uint256"
				},
				{
					"internalType": "uint256",
					"name": "pId",
					"type": "uint256"
				},
				{
					"internalType": "address",
					"name": "account",
					"type": "address"
				},
				{
					"internalType": "bool",
					"name": "pass",
					"type": "bool"
				}
			],
			"stateMutability": "view",
			"type": "function"
		},
		{
			"inputs": [
				{
					"internalType": "uint256",
					"name": "",
					"type": "uint256"
				}
			],
			"name": "puzzListings",
			"outputs": [
				{
					"internalType": "uint256",
					"name": "id",
					"type": "uint256"
				},
				{
					"internalType": "address",
					"name": "owner",
					"type": "address"
				},
				{
					"internalType": "string",
					"name": "title",
					"type": "string"
				},
				{
					"internalType": "string",
					"name": "description",
					"type": "string"
				},
				{
					"internalType": "string",
					"name": "tags",
					"type": "string"
				},
				{
					"internalType": "uint256",
					"name": "prize",
					"type": "uint256"
				},
				{
					"internalType": "bool",
					"name": "paidOut",
					"type": "bool"
				},
				{
					"internalType": "uint256",
					"name": "timestamp",
					"type": "uint256"
				},
				{
					"internalType": "bool",
					"name": "listed",
					"type": "bool"
				},
				{
					"internalType": "uint256",
					"name": "disputed",
					"type": "uint256"
				},
				{
					"internalType": "string",
					"name": "answer",
					"type": "string"
				},
				{
					"internalType": "uint256",
					"name": "timestamp_end",
					"type": "uint256"
				},
				{
					"internalType": "uint256",
					"name": "timestamp_verified",
					"type": "uint256"
				},
				{
					"internalType": "address",
					"name": "puzPrizeManager",
					"type": "address"
				}
			],
			"stateMutability": "view",
			"type": "function"
		},
		{
			"inputs": [
				{
					"internalType": "uint256",
					"name": "",
					"type": "uint256"
				}
			],
			"name": "puzzShowStatus",
			"outputs": [
				{
					"internalType": "bool",
					"name": "",
					"type": "bool"
				}
			],
			"stateMutability": "view",
			"type": "function"
		},
		{
			"inputs": [],
			"name": "registerOrLogin",
			"outputs": [],
			"stateMutability": "nonpayable",
			"type": "function"
		},
		{
			"inputs": [],
			"name": "renounceOwnership",
			"outputs": [],
			"stateMutability": "nonpayable",
			"type": "function"
		},
		{
			"inputs": [
				{
					"internalType": "address",
					"name": "_factory",
					"type": "address"
				}
			],
			"name": "setFactory",
			"outputs": [],
			"stateMutability": "nonpayable",
			"type": "function"
		},
		{
			"inputs": [],
			"name": "token",
			"outputs": [
				{
					"internalType": "contract PUZToken",
					"name": "",
					"type": "address"
				}
			],
			"stateMutability": "view",
			"type": "function"
		},
		{
			"inputs": [
				{
					"internalType": "address",
					"name": "newOwner",
					"type": "address"
				}
			],
			"name": "transferOwnership",
			"outputs": [],
			"stateMutability": "nonpayable",
			"type": "function"
		},
		{
			"inputs": [
				{
					"internalType": "address",
					"name": "",
					"type": "address"
				}
			],
			"name": "users",
			"outputs": [
				{
					"internalType": "uint256",
					"name": "id",
					"type": "uint256"
				},
				{
					"internalType": "address",
					"name": "account",
					"type": "address"
				}
			],
			"stateMutability": "view",
			"type": "function"
		}
	]
}