{
	"data": {
		"bytecode": {
			"linkReferences": {},
			"object": "60e060405234801561000f575f5ffd5b50604051610b55380380610b5583398101604081905261002e91610060565b6001600160a01b039182166080521660a052610091565b80516001600160a01b038116811461005b575f5ffd5b919050565b5f5f60408385031215610071575f5ffd5b61007a83610045565b915061008860208401610045565b90509250929050565b60805160a05160c051610a876100ce5f395f818160dc01526101c401525f818160a201526101a301525f818161010301526101820152610a875ff3fe608060405234801561000f575f5ffd5b5060043610610055575f3560e01c806317902b15146100595780639faad9991461009d578063af5303a2146100c4578063be7c06ba146100d7578063fc0c546a146100fe575b5f5ffd5b61008161006736600461029c565b5f602081905290815260409020546001600160a01b031681565b6040516001600160a01b03909116815260200160405180910390f35b6100817f000000000000000000000000000000000000000000000000000000000000000081565b6100816100d236600461029c565b610125565b6100817f000000000000000000000000000000000000000000000000000000000000000081565b6100817f000000000000000000000000000000000000000000000000000000000000000081565b5f818152602081905260408120546001600160a01b03161561017f5760405162461bcd60e51b815260206004820152600f60248201526e105b1c9958591e4818dc99585d1959608a1b604482015260640160405180910390fd5b5f7f00000000000000000000000000000000000000000000000000000000000000007f00000000000000000000000000000000000000000000000000000000000000007f00000000000000000000000000000000000000000000000000000000000000006040516101ef9061028f565b6001600160a01b03938416815291831660208301529091166040820152606001604051809103905ff080158015610228573d5f5f3e3d5ffd5b505f848152602081815260409182902080546001600160a01b0319166001600160a01b038516908117909155915191825291925084917f95d7f2f485611d956af8fde7b4745afc3322f31f37790f557a0cd5756e159e9f910160405180910390a292915050565b61079e806102b483390190565b5f602082840312156102ac575f5ffd5b503591905056fe60c060405234801561000f575f5ffd5b5060405161079e38038061079e83398101604081905261002e916100e8565b806001600160a01b03811661005c57604051631e4fbdf760e01b81525f600482015260240160405180910390fd5b6100658161007e565b50506001600160a01b039182166080521660a052610128565b5f80546001600160a01b038381166001600160a01b0319831681178455604051919092169283917f8be0079c531659141344cd1fd0a4f28419497f9722a3daafe3b4186f6b6457e09190a35050565b80516001600160a01b03811681146100e3575f5ffd5b919050565b5f5f5f606084860312156100fa575f5ffd5b610103846100cd565b9250610111602085016100cd565b915061011f604085016100cd565b90509250925092565b60805160a05161062c6101725f395f818160e6015281816101600152818161029c015261035c01525f8181610133015281816101d2015281816102ef01526103bf015261062c5ff3fe608060405234801561000f575f5ffd5b5060043610610085575f3560e01c80639faad999116100585780639faad999146100e1578063e4e103dc14610108578063f2fde38b1461011b578063fc0c546a1461012e575f5ffd5b8063052a711b14610089578063715018a61461009e5780637b47ec1a146100a65780638da5cb5b146100b9575b5f5ffd5b61009c610097366004610541565b610155565b005b61009c61027e565b61009c6100b4366004610569565b610291565b5f546001600160a01b03165b6040516001600160a01b03909116815260200160405180910390f35b6100c57f000000000000000000000000000000000000000000000000000000000000000081565b61009c610116366004610541565b610351565b61009c610129366004610580565b61046e565b6100c57f000000000000000000000000000000000000000000000000000000000000000081565b336001600160a01b037f000000000000000000000000000000000000000000000000000000000000000016146101a65760405162461bcd60e51b815260040161019d906105a0565b60405180910390fd5b6040516323b872dd60e01b81526001600160a01b038381166004830152306024830152604482018390527f000000000000000000000000000000000000000000000000000000000000000016906323b872dd906064016020604051808303815f875af1158015610218573d5f5f3e3d5ffd5b505050506040513d601f19601f8201168201806040525081019061023c91906105d7565b61027a5760405162461bcd60e51b815260206004820152600f60248201526e151c985b9cd9995c8819985a5b1959608a1b604482015260640161019d565b5050565b6102866104ab565b61028f5f6104d7565b565b336001600160a01b037f000000000000000000000000000000000000000000000000000000000000000016146102d95760405162461bcd60e51b815260040161019d906105a0565b604051630852cd8d60e31b8152600481018290527f00000000000000000000000000000000000000000000000000000000000000006001600160a01b0316906342966c68906024015f604051808303815f87803b158015610338575f5ffd5b505af115801561034a573d5f5f3e3d5ffd5b5050505050565b336001600160a01b037f000000000000000000000000000000000000000000000000000000000000000016146103995760405162461bcd60e51b815260040161019d906105a0565b60405163a9059cbb60e01b81526001600160a01b038381166004830152602482018390527f0000000000000000000000000000000000000000000000000000000000000000169063a9059cbb906044016020604051808303815f875af1158015610405573d5f5f3e3d5ffd5b505050506040513d601f19601f8201168201806040525081019061042991906105d7565b61027a5760405162461bcd60e51b815260206004820152601660248201527514995dd85c99081d1c985b9cd9995c8819985a5b195960521b604482015260640161019d565b6104766104ab565b6001600160a01b03811661049f57604051631e4fbdf760e01b81525f600482015260240161019d565b6104a8816104d7565b50565b5f546001600160a01b0316331461028f5760405163118cdaa760e01b815233600482015260240161019d565b5f80546001600160a01b038381166001600160a01b0319831681178455604051919092169283917f8be0079c531659141344cd1fd0a4f28419497f9722a3daafe3b4186f6b6457e09190a35050565b80356001600160a01b038116811461053c575f5ffd5b919050565b5f5f60408385031215610552575f5ffd5b61055b83610526565b946020939093013593505050565b5f60208284031215610579575f5ffd5b5035919050565b5f60208284031215610590575f5ffd5b61059982610526565b9392505050565b60208082526018908201527f4f6e6c792043726561746550757a7a2063616e2063616c6c0000000000000000604082015260600190565b5f602082840312156105e7575f5ffd5b81518015158114610599575f5ffdfea26469706673582212209636e21a891768e52df2ee8fa7f330c89e5658a32efa212a85b26da7e7ec6fdb64736f6c634300081e0033a2646970667358221220fce5bb00bf07b001d18062c89c91bcc7c825d1b374fb494e5e4e56082d048b0364736f6c634300081e0033",
			"opcodes": "PUSH1 0xE0 PUSH1 0x40 MSTORE CALLVALUE DUP1 ISZERO PUSH2 0xF JUMPI PUSH0 PUSH0 REVERT JUMPDEST POP PUSH1 0x40 MLOAD PUSH2 0xB55 CODESIZE SUB DUP1 PUSH2 0xB55 DUP4 CODECOPY DUP2 ADD PUSH1 0x40 DUP2 SWAP1 MSTORE PUSH2 0x2E SWAP2 PUSH2 0x60 JUMP JUMPDEST PUSH1 0x1 PUSH1 0x1 PUSH1 0xA0 SHL SUB SWAP2 DUP3 AND PUSH1 0x80 MSTORE AND PUSH1 0xA0 MSTORE PUSH2 0x91 JUMP JUMPDEST DUP1 MLOAD PUSH1 0x1 PUSH1 0x1 PUSH1 0xA0 SHL SUB DUP2 AND DUP2 EQ PUSH2 0x5B JUMPI PUSH0 PUSH0 REVERT JUMPDEST SWAP2 SWAP1 POP JUMP JUMPDEST PUSH0 PUSH0 PUSH1 0x40 DUP4 DUP6 SUB SLT ISZERO PUSH2 0x71 JUMPI PUSH0 PUSH0 REVERT JUMPDEST PUSH2 0x7A DUP4 PUSH2 0x45 JUMP JUMPDEST SWAP2 POP PUSH2 0x88 PUSH1 0x20 DUP5 ADD PUSH2 0x45 JUMP JUMPDEST SWAP1 POP SWAP3 POP SWAP3 SWAP1 POP JUMP JUMPDEST PUSH1 0x80 MLOAD PUSH1 0xA0 MLOAD PUSH1 0xC0 MLOAD PUSH2 0xA87 PUSH2 0xCE PUSH0 CODECOPY PUSH0 DUP2 DUP2 PUSH1 0xDC ADD MSTORE PUSH2 0x1C4 ADD MSTORE PUSH0 DUP2 DUP2 PUSH1 0xA2 ADD MSTORE PUSH2 0x1A3 ADD MSTORE PUSH0 DUP2 DUP2 PUSH2 0x103 ADD MSTORE PUSH2 0x182 ADD MSTORE PUSH2 0xA87 PUSH0 RETURN INVALID PUSH1 0x80 PUSH1 0x40 MSTORE CALLVALUE DUP1 ISZERO PUSH2 0xF JUMPI PUSH0 PUSH0 REVERT JUMPDEST POP PUSH1 0x4 CALLDATASIZE LT PUSH2 0x55 JUMPI PUSH0 CALLDATALOAD PUSH1 0xE0 SHR DUP1 PUSH4 0x17902B15 EQ PUSH2 0x59 JUMPI DUP1 PUSH4 0x9FAAD999 EQ PUSH2 0x9D JUMPI DUP1 PUSH4 0xAF5303A2 EQ PUSH2 0xC4 JUMPI DUP1 PUSH4 0xBE7C06BA EQ PUSH2 0xD7 JUMPI DUP1 PUSH4 0xFC0C546A EQ PUSH2 0xFE JUMPI JUMPDEST PUSH0 PUSH0 REVERT JUMPDEST PUSH2 0x81 PUSH2 0x67 CALLDATASIZE PUSH1 0x4 PUSH2 0x29C JUMP JUMPDEST PUSH0 PUSH1 0x20 DUP2 SWAP1 MSTORE SWAP1 DUP2 MSTORE PUSH1 0x40 SWAP1 KECCAK256 SLOAD PUSH1 0x1 PUSH1 0x1 PUSH1 0xA0 SHL SUB AND DUP2 JUMP JUMPDEST PUSH1 0x40 MLOAD PUSH1 0x1 PUSH1 0x1 PUSH1 0xA0 SHL SUB SWAP1 SWAP2 AND DUP2 MSTORE PUSH1 0x20 ADD PUSH1 0x40 MLOAD DUP1 SWAP2 SUB SWAP1 RETURN JUMPDEST PUSH2 0x81 PUSH32 0x0 DUP2 JUMP JUMPDEST PUSH2 0x81 PUSH2 0xD2 CALLDATASIZE PUSH1 0x4 PUSH2 0x29C JUMP JUMPDEST PUSH2 0x125 JUMP JUMPDEST PUSH2 0x81 PUSH32 0x0 DUP2 JUMP JUMPDEST PUSH2 0x81 PUSH32 0x0 DUP2 JUMP JUMPDEST PUSH0 DUP2 DUP2 MSTORE PUSH1 0x20 DUP2 SWAP1 MSTORE PUSH1 0x40 DUP2 KECCAK256 SLOAD PUSH1 0x1 PUSH1 0x1 PUSH1 0xA0 SHL SUB AND ISZERO PUSH2 0x17F JUMPI PUSH1 0x40 MLOAD PUSH3 0x461BCD PUSH1 0xE5 SHL DUP2 MSTORE PUSH1 0x20 PUSH1 0x4 DUP3 ADD MSTORE PUSH1 0xF PUSH1 0x24 DUP3 ADD MSTORE PUSH15 0x105B1C9958591E4818DC99585D1959 PUSH1 0x8A SHL PUSH1 0x44 DUP3 ADD MSTORE PUSH1 0x64 ADD PUSH1 0x40 MLOAD DUP1 SWAP2 SUB SWAP1 REVERT JUMPDEST PUSH0 PUSH32 0x0 PUSH32 0x0 PUSH32 0x0 PUSH1 0x40 MLOAD PUSH2 0x1EF SWAP1 PUSH2 0x28F JUMP JUMPDEST PUSH1 0x1 PUSH1 0x1 PUSH1 0xA0 SHL SUB SWAP4 DUP5 AND DUP2 MSTORE SWAP2 DUP4 AND PUSH1 0x20 DUP4 ADD MSTORE SWAP1 SWAP2 AND PUSH1 0x40 DUP3 ADD MSTORE PUSH1 0x60 ADD PUSH1 0x40 MLOAD DUP1 SWAP2 SUB SWAP1 PUSH0 CREATE DUP1 ISZERO DUP1 ISZERO PUSH2 0x228 JUMPI RETURNDATASIZE PUSH0 PUSH0 RETURNDATACOPY RETURNDATASIZE PUSH0 REVERT JUMPDEST POP PUSH0 DUP5 DUP2 MSTORE PUSH1 0x20 DUP2 DUP2 MSTORE PUSH1 0x40 SWAP2 DUP3 SWAP1 KECCAK256 DUP1 SLOAD PUSH1 0x1 PUSH1 0x1 PUSH1 0xA0 SHL SUB NOT AND PUSH1 0x1 PUSH1 0x1 PUSH1 0xA0 SHL SUB DUP6 AND SWAP1 DUP2 OR SWAP1 SWAP2 SSTORE SWAP2 MLOAD SWAP2 DUP3 MSTORE SWAP2 SWAP3 POP DUP5 SWAP2 PUSH32 0x95D7F2F485611D956AF8FDE7B4745AFC3322F31F37790F557A0CD5756E159E9F SWAP2 ADD PUSH1 0x40 MLOAD DUP1 SWAP2 SUB SWAP1 LOG2 SWAP3 SWAP2 POP POP JUMP JUMPDEST PUSH2 0x79E DUP1 PUSH2 0x2B4 DUP4 CODECOPY ADD SWAP1 JUMP JUMPDEST PUSH0 PUSH1 0x20 DUP3 DUP5 SUB SLT ISZERO PUSH2 0x2AC JUMPI PUSH0 PUSH0 REVERT JUMPDEST POP CALLDATALOAD SWAP2 SWAP1 POP JUMP INVALID PUSH1 0xC0 PUSH1 0x40 MSTORE CALLVALUE DUP1 ISZERO PUSH2 0xF JUMPI PUSH0 PUSH0 REVERT JUMPDEST POP PUSH1 0x40 MLOAD PUSH2 0x79E CODESIZE SUB DUP1 PUSH2 0x79E DUP4 CODECOPY DUP2 ADD PUSH1 0x40 DUP2 SWAP1 MSTORE PUSH2 0x2E SWAP2 PUSH2 0xE8 JUMP JUMPDEST DUP1 PUSH1 0x1 PUSH1 0x1 PUSH1 0xA0 SHL SUB DUP2 AND PUSH2 0x5C JUMPI PUSH1 0x40 MLOAD PUSH4 0x1E4FBDF7 PUSH1 0xE0 SHL DUP2 MSTORE PUSH0 PUSH1 0x4 DUP3 ADD MSTORE PUSH1 0x24 ADD PUSH1 0x40 MLOAD DUP1 SWAP2 SUB SWAP1 REVERT JUMPDEST PUSH2 0x65 DUP2 PUSH2 0x7E JUMP JUMPDEST POP POP PUSH1 0x1 PUSH1 0x1 PUSH1 0xA0 SHL SUB SWAP2 DUP3 AND PUSH1 0x80 MSTORE AND PUSH1 0xA0 MSTORE PUSH2 0x128 JUMP JUMPDEST PUSH0 DUP1 SLOAD PUSH1 0x1 PUSH1 0x1 PUSH1 0xA0 SHL SUB DUP4 DUP2 AND PUSH1 0x1 PUSH1 0x1 PUSH1 0xA0 SHL SUB NOT DUP4 AND DUP2 OR DUP5 SSTORE PUSH1 0x40 MLOAD SWAP2 SWAP1 SWAP3 AND SWAP3 DUP4 SWAP2 PUSH32 0x8BE0079C531659141344CD1FD0A4F28419497F9722A3DAAFE3B4186F6B6457E0 SWAP2 SWAP1 LOG3 POP POP JUMP JUMPDEST DUP1 MLOAD PUSH1 0x1 PUSH1 0x1 PUSH1 0xA0 SHL SUB DUP2 AND DUP2 EQ PUSH2 0xE3 JUMPI PUSH0 PUSH0 REVERT JUMPDEST SWAP2 SWAP1 POP JUMP JUMPDEST PUSH0 PUSH0 PUSH0 PUSH1 0x60 DUP5 DUP7 SUB SLT ISZERO PUSH2 0xFA JUMPI PUSH0 PUSH0 REVERT JUMPDEST PUSH2 0x103 DUP5 PUSH2 0xCD JUMP JUMPDEST SWAP3 POP PUSH2 0x111 PUSH1 0x20 DUP6 ADD PUSH2 0xCD JUMP JUMPDEST SWAP2 POP PUSH2 0x11F PUSH1 0x40 DUP6 ADD PUSH2 0xCD JUMP JUMPDEST SWAP1 POP SWAP3 POP SWAP3 POP SWAP3 JUMP JUMPDEST PUSH1 0x80 MLOAD PUSH1 0xA0 MLOAD PUSH2 0x62C PUSH2 0x172 PUSH0 CODECOPY PUSH0 DUP2 DUP2 PUSH1 0xE6 ADD MSTORE DUP2 DUP2 PUSH2 0x160 ADD MSTORE DUP2 DUP2 PUSH2 0x29C ADD MSTORE PUSH2 0x35C ADD MSTORE PUSH0 DUP2 DUP2 PUSH2 0x133 ADD MSTORE DUP2 DUP2 PUSH2 0x1D2 ADD MSTORE DUP2 DUP2 PUSH2 0x2EF ADD MSTORE PUSH2 0x3BF ADD MSTORE PUSH2 0x62C PUSH0 RETURN INVALID PUSH1 0x80 PUSH1 0x40 MSTORE CALLVALUE DUP1 ISZERO PUSH2 0xF JUMPI PUSH0 PUSH0 REVERT JUMPDEST POP PUSH1 0x4 CALLDATASIZE LT PUSH2 0x85 JUMPI PUSH0 CALLDATALOAD PUSH1 0xE0 SHR DUP1 PUSH4 0x9FAAD999 GT PUSH2 0x58 JUMPI DUP1 PUSH4 0x9FAAD999 EQ PUSH2 0xE1 JUMPI DUP1 PUSH4 0xE4E103DC EQ PUSH2 0x108 JUMPI DUP1 PUSH4 0xF2FDE38B EQ PUSH2 0x11B JUMPI DUP1 PUSH4 0xFC0C546A EQ PUSH2 0x12E JUMPI PUSH0 PUSH0 REVERT JUMPDEST DUP1 PUSH4 0x52A711B EQ PUSH2 0x89 JUMPI DUP1 PUSH4 0x715018A6 EQ PUSH2 0x9E JUMPI DUP1 PUSH4 0x7B47EC1A EQ PUSH2 0xA6 JUMPI DUP1 PUSH4 0x8DA5CB5B EQ PUSH2 0xB9 JUMPI JUMPDEST PUSH0 PUSH0 REVERT JUMPDEST PUSH2 0x9C PUSH2 0x97 CALLDATASIZE PUSH1 0x4 PUSH2 0x541 JUMP JUMPDEST PUSH2 0x155 JUMP JUMPDEST STOP JUMPDEST PUSH2 0x9C PUSH2 0x27E JUMP JUMPDEST PUSH2 0x9C PUSH2 0xB4 CALLDATASIZE PUSH1 0x4 PUSH2 0x569 JUMP JUMPDEST PUSH2 0x291 JUMP JUMPDEST PUSH0 SLOAD PUSH1 0x1 PUSH1 0x1 PUSH1 0xA0 SHL SUB AND JUMPDEST PUSH1 0x40 MLOAD PUSH1 0x1 PUSH1 0x1 PUSH1 0xA0 SHL SUB SWAP1 SWAP2 AND DUP2 MSTORE PUSH1 0x20 ADD PUSH1 0x40 MLOAD DUP1 SWAP2 SUB SWAP1 RETURN JUMPDEST PUSH2 0xC5 PUSH32 0x0 DUP2 JUMP JUMPDEST PUSH2 0x9C PUSH2 0x116 CALLDATASIZE PUSH1 0x4 PUSH2 0x541 JUMP JUMPDEST PUSH2 0x351 JUMP JUMPDEST PUSH2 0x9C PUSH2 0x129 CALLDATASIZE PUSH1 0x4 PUSH2 0x580 JUMP JUMPDEST PUSH2 0x46E JUMP JUMPDEST PUSH2 0xC5 PUSH32 0x0 DUP2 JUMP JUMPDEST CALLER PUSH1 0x1 PUSH1 0x1 PUSH1 0xA0 SHL SUB PUSH32 0x0 AND EQ PUSH2 0x1A6 JUMPI PUSH1 0x40 MLOAD PUSH3 0x461BCD PUSH1 0xE5 SHL DUP2 MSTORE PUSH1 0x4 ADD PUSH2 0x19D SWAP1 PUSH2 0x5A0 JUMP JUMPDEST PUSH1 0x40 MLOAD DUP1 SWAP2 SUB SWAP1 REVERT JUMPDEST PUSH1 0x40 MLOAD PUSH4 0x23B872DD PUSH1 0xE0 SHL DUP2 MSTORE PUSH1 0x1 PUSH1 0x1 PUSH1 0xA0 SHL SUB DUP4 DUP2 AND PUSH1 0x4 DUP4 ADD MSTORE ADDRESS PUSH1 0x24 DUP4 ADD MSTORE PUSH1 0x44 DUP3 ADD DUP4 SWAP1 MSTORE PUSH32 0x0 AND SWAP1 PUSH4 0x23B872DD SWAP1 PUSH1 0x64 ADD PUSH1 0x20 PUSH1 0x40 MLOAD DUP1 DUP4 SUB DUP2 PUSH0 DUP8 GAS CALL ISZERO DUP1 ISZERO PUSH2 0x218 JUMPI RETURNDATASIZE PUSH0 PUSH0 RETURNDATACOPY RETURNDATASIZE PUSH0 REVERT JUMPDEST POP POP POP POP PUSH1 0x40 MLOAD RETURNDATASIZE PUSH1 0x1F NOT PUSH1 0x1F DUP3 ADD AND DUP3 ADD DUP1 PUSH1 0x40 MSTORE POP DUP2 ADD SWAP1 PUSH2 0x23C SWAP2 SWAP1 PUSH2 0x5D7 JUMP JUMPDEST PUSH2 0x27A JUMPI PUSH1 0x40 MLOAD PUSH3 0x461BCD PUSH1 0xE5 SHL DUP2 MSTORE PUSH1 0x20 PUSH1 0x4 DUP3 ADD MSTORE PUSH1 0xF PUSH1 0x24 DUP3 ADD MSTORE PUSH15 0x151C985B9CD9995C8819985A5B1959 PUSH1 0x8A SHL PUSH1 0x44 DUP3 ADD MSTORE PUSH1 0x64 ADD PUSH2 0x19D JUMP JUMPDEST POP POP JUMP JUMPDEST PUSH2 0x286 PUSH2 0x4AB JUMP JUMPDEST PUSH2 0x28F PUSH0 PUSH2 0x4D7 JUMP JUMPDEST JUMP JUMPDEST CALLER PUSH1 0x1 PUSH1 0x1 PUSH1 0xA0 SHL SUB PUSH32 0x0 AND EQ PUSH2 0x2D9 JUMPI PUSH1 0x40 MLOAD PUSH3 0x461BCD PUSH1 0xE5 SHL DUP2 MSTORE PUSH1 0x4 ADD PUSH2 0x19D SWAP1 PUSH2 0x5A0 JUMP JUMPDEST PUSH1 0x40 MLOAD PUSH4 0x852CD8D PUSH1 0xE3 SHL DUP2 MSTORE PUSH1 0x4 DUP2 ADD DUP3 SWAP1 MSTORE PUSH32 0x0 PUSH1 0x1 PUSH1 0x1 PUSH1 0xA0 SHL SUB AND SWAP1 PUSH4 0x42966C68 SWAP1 PUSH1 0x24 ADD PUSH0 PUSH1 0x40 MLOAD DUP1 DUP4 SUB DUP2 PUSH0 DUP8 DUP1 EXTCODESIZE ISZERO DUP1 ISZERO PUSH2 0x338 JUMPI PUSH0 PUSH0 REVERT JUMPDEST POP GAS CALL ISZERO DUP1 ISZERO PUSH2 0x34A JUMPI RETURNDATASIZE PUSH0 PUSH0 RETURNDATACOPY RETURNDATASIZE PUSH0 REVERT JUMPDEST POP POP POP POP POP JUMP JUMPDEST CALLER PUSH1 0x1 PUSH1 0x1 PUSH1 0xA0 SHL SUB PUSH32 0x0 AND EQ PUSH2 0x399 JUMPI PUSH1 0x40 MLOAD PUSH3 0x461BCD PUSH1 0xE5 SHL DUP2 MSTORE PUSH1 0x4 ADD PUSH2 0x19D SWAP1 PUSH2 0x5A0 JUMP JUMPDEST PUSH1 0x40 MLOAD PUSH4 0xA9059CBB PUSH1 0xE0 SHL DUP2 MSTORE PUSH1 0x1 PUSH1 0x1 PUSH1 0xA0 SHL SUB DUP4 DUP2 AND PUSH1 0x4 DUP4 ADD MSTORE PUSH1 0x24 DUP3 ADD DUP4 SWAP1 MSTORE PUSH32 0x0 AND SWAP1 PUSH4 0xA9059CBB SWAP1 PUSH1 0x44 ADD PUSH1 0x20 PUSH1 0x40 MLOAD DUP1 DUP4 SUB DUP2 PUSH0 DUP8 GAS CALL ISZERO DUP1 ISZERO PUSH2 0x405 JUMPI RETURNDATASIZE PUSH0 PUSH0 RETURNDATACOPY RETURNDATASIZE PUSH0 REVERT JUMPDEST POP POP POP POP PUSH1 0x40 MLOAD RETURNDATASIZE PUSH1 0x1F NOT PUSH1 0x1F DUP3 ADD AND DUP3 ADD DUP1 PUSH1 0x40 MSTORE POP DUP2 ADD SWAP1 PUSH2 0x429 SWAP2 SWAP1 PUSH2 0x5D7 JUMP JUMPDEST PUSH2 0x27A JUMPI PUSH1 0x40 MLOAD PUSH3 0x461BCD PUSH1 0xE5 SHL DUP2 MSTORE PUSH1 0x20 PUSH1 0x4 DUP3 ADD MSTORE PUSH1 0x16 PUSH1 0x24 DUP3 ADD MSTORE PUSH22 0x14995DD85C99081D1C985B9CD9995C8819985A5B1959 PUSH1 0x52 SHL PUSH1 0x44 DUP3 ADD MSTORE PUSH1 0x64 ADD PUSH2 0x19D JUMP JUMPDEST PUSH2 0x476 PUSH2 0x4AB JUMP JUMPDEST PUSH1 0x1 PUSH1 0x1 PUSH1 0xA0 SHL SUB DUP2 AND PUSH2 0x49F JUMPI PUSH1 0x40 MLOAD PUSH4 0x1E4FBDF7 PUSH1 0xE0 SHL DUP2 MSTORE PUSH0 PUSH1 0x4 DUP3 ADD MSTORE PUSH1 0x24 ADD PUSH2 0x19D JUMP JUMPDEST PUSH2 0x4A8 DUP2 PUSH2 0x4D7 JUMP JUMPDEST POP JUMP JUMPDEST PUSH0 SLOAD PUSH1 0x1 PUSH1 0x1 PUSH1 0xA0 SHL SUB AND CALLER EQ PUSH2 0x28F JUMPI PUSH1 0x40 MLOAD PUSH4 0x118CDAA7 PUSH1 0xE0 SHL DUP2 MSTORE CALLER PUSH1 0x4 DUP3 ADD MSTORE PUSH1 0x24 ADD PUSH2 0x19D JUMP JUMPDEST PUSH0 DUP1 SLOAD PUSH1 0x1 PUSH1 0x1 PUSH1 0xA0 SHL SUB DUP4 DUP2 AND PUSH1 0x1 PUSH1 0x1 PUSH1 0xA0 SHL SUB NOT DUP4 AND DUP2 OR DUP5 SSTORE PUSH1 0x40 MLOAD SWAP2 SWAP1 SWAP3 AND SWAP3 DUP4 SWAP2 PUSH32 0x8BE0079C531659141344CD1FD0A4F28419497F9722A3DAAFE3B4186F6B6457E0 SWAP2 SWAP1 LOG3 POP POP JUMP JUMPDEST DUP1 CALLDATALOAD PUSH1 0x1 PUSH1 0x1 PUSH1 0xA0 SHL SUB DUP2 AND DUP2 EQ PUSH2 0x53C JUMPI PUSH0 PUSH0 REVERT JUMPDEST SWAP2 SWAP1 POP JUMP JUMPDEST PUSH0 PUSH0 PUSH1 0x40 DUP4 DUP6 SUB SLT ISZERO PUSH2 0x552 JUMPI PUSH0 PUSH0 REVERT JUMPDEST PUSH2 0x55B DUP4 PUSH2 0x526 JUMP JUMPDEST SWAP5 PUSH1 0x20 SWAP4 SWAP1 SWAP4 ADD CALLDATALOAD SWAP4 POP POP POP JUMP JUMPDEST PUSH0 PUSH1 0x20 DUP3 DUP5 SUB SLT ISZERO PUSH2 0x579 JUMPI PUSH0 PUSH0 REVERT JUMPDEST POP CALLDATALOAD SWAP2 SWAP1 POP JUMP JUMPDEST PUSH0 PUSH1 0x20 DUP3 DUP5 SUB SLT ISZERO PUSH2 0x590 JUMPI PUSH0 PUSH0 REVERT JUMPDEST PUSH2 0x599 DUP3 PUSH2 0x526 JUMP JUMPDEST SWAP4 SWAP3 POP POP POP JUMP JUMPDEST PUSH1 0x20 DUP1 DUP3 MSTORE PUSH1 0x18 SWAP1 DUP3 ADD MSTORE PUSH32 0x4F6E6C792043726561746550757A7A2063616E2063616C6C0000000000000000 PUSH1 0x40 DUP3 ADD MSTORE PUSH1 0x60 ADD SWAP1 JUMP JUMPDEST PUSH0 PUSH1 0x20 DUP3 DUP5 SUB SLT ISZERO PUSH2 0x5E7 JUMPI PUSH0 PUSH0 REVERT JUMPDEST DUP2 MLOAD DUP1 ISZERO ISZERO DUP2 EQ PUSH2 0x599 JUMPI PUSH0 PUSH0 REVERT INVALID LOG2 PUSH5 0x6970667358 0x22 SLT KECCAK256 SWAP7 CALLDATASIZE 0xE2 BYTE DUP10 OR PUSH9 0xE52DF2EE8FA7F330C8 SWAP15 JUMP PC LOG3 0x2E STATICCALL 0x21 0x2A DUP6 0xB2 PUSH14 0xA7E7EC6FDB64736F6C634300081E STOP CALLER LOG2 PUSH5 0x6970667358 0x22 SLT KECCAK256 0xFC JUMPF 0xBB00 0xBF SMOD 0xB0 ADD DATALOADN 0x8062 0xC8 SWAP13 SWAP2 0xBC 0xC7 0xC8 0x25 DATALOADN 0xB374 EXTSTATICCALL BLOBHASH 0x4E MCOPY 0x4E JUMP ADDMOD 0x2D DIV DUP12 SUB PUSH5 0x736F6C6343 STOP ADDMOD 0x1E STOP CALLER "
		},
		"gasEstimates": {
			"creation": {
				"codeDepositCost": "539000",
				"executionCost": "infinite",
				"totalCost": "infinite"
			},
			"external": {
				"createPuzz()": "infinite",
				"createTokenManager(uint256)": "infinite",
				"iniOwner()": "infinite",
				"puzzleToManager(uint256)": "2443",
				"token()": "infinite"
			}
		},
		"methodIdentifiers": {
			"createPuzz()": "9faad999",
			"createTokenManager(uint256)": "af5303a2",
			"iniOwner()": "be7c06ba",
			"puzzleToManager(uint256)": "17902b15",
			"token()": "fc0c546a"
		}
	},
	"abi": [
		{
			"inputs": [
				{
					"internalType": "address",
					"name": "_token",
					"type": "address"
				},
				{
					"internalType": "address",
					"name": "_createPuzz",
					"type": "address"
				}
			],
			"stateMutability": "nonpayable",
			"type": "constructor"
		},
		{
			"anonymous": false,
			"inputs": [
				{
					"indexed": true,
					"internalType": "uint256",
					"name": "puzId",
					"type": "uint256"
				},
				{
					"indexed": false,
					"internalType": "address",
					"name": "manager",
					"type": "address"
				}
			],
			"name": "TokenManagerCreated",
			"type": "event"
		},
		{
			"inputs": [],
			"name": "createPuzz",
			"outputs": [
				{
					"internalType": "address",
					"name": "",
					"type": "address"
				}
			],
			"stateMutability": "view",
			"type": "function"
		},
		{
			"inputs": [
				{
					"internalType": "uint256",
					"name": "puzId",
					"type": "uint256"
				}
			],
			"name": "createTokenManager",
			"outputs": [
				{
					"internalType": "address",
					"name": "",
					"type": "address"
				}
			],
			"stateMutability": "nonpayable",
			"type": "function"
		},
		{
			"inputs": [],
			"name": "iniOwner",
			"outputs": [
				{
					"internalType": "address",
					"name": "",
					"type": "address"
				}
			],
			"stateMutability": "view",
			"type": "function"
		},
		{
			"inputs": [
				{
					"internalType": "uint256",
					"name": "",
					"type": "uint256"
				}
			],
			"name": "puzzleToManager",
			"outputs": [
				{
					"internalType": "address",
					"name": "",
					"type": "address"
				}
			],
			"stateMutability": "view",
			"type": "function"
		},
		{
			"inputs": [],
			"name": "token",
			"outputs": [
				{
					"internalType": "address",
					"name": "",
					"type": "address"
				}
			],
			"stateMutability": "view",
			"type": "function"
		}
	]
}